:101C5500D292C282C283C284C285C286C287D2940E
:101C6500D295D296D29743E90143E94043EA10530E
:101C7500EBEF43E94043EA2053EBDF43E98043EAD6
:101C85004053EBBF43E98043EA8053EB7F439B021C
:061C950043870202204219
:0921710053B3FB43B404C29222F3
:101BB400121FAB122171122284121EF0D2AF9001B7
:101BC400A6E06002E4F09001A8E06008E4F01220CE
:101BD40027121E0F9001AAE06005E4F01215289068
:101BE40001ACE06002E4F09001AFE06002E4F012C6
:101BF4001E75900169EFF060C5E0FF120B16121C10
:031C04005580BB4D
:0C212F009001A0EBF0A3EAF0A3E9F0227D
:0C213B009001A3EBF0A3EAF0A3E9F0226E
:1020D4009001A0A3E0FAA3E0F94A60031203BF222F
:1020E4009001A3A3E0FAA3E0F94A60031203BF221C
:101E4300EF4E602D900196EEF0A3EFF0AF05A3ECFB
:101E5300F0A3EFF0AF03A3EAF0A3EFF0E4A3F0A342
:101E6300F0A3F0A3F0900195F090019404F01220F8
:021E7300D42277
:10207500E4900194F01220E47B007A0079001221AB
:042085002F02213BCA
:10152800900194E070030215DC900198E0FEA3E0BE
:10153800FF4E70030215DC900195E07035D3EF94EF
:1015480000EE940050030215DC90019CE475F00154
:101558001201C3FED3900197E095F0900196E09EAA
:1015680050721220E4E490019CF0A3F090019504DD
:10157800F022900195E06401705A90019C75F00189
:101588001201C3FED3900199E095F0900198E09E76
:10159800504290019AE0FEA3E0FF9400EE940040D0
:1015A8002590019EE475F0011201C3FCD3EF95F07C
:1015B800EE9C5005E4900194F0900194E07007903F
:1015C8000198F0A3F022E490019CF0A3F09001951B
:0515D800F01220D422F6
:1020F40000000000000000000000000000000000DC
:101C070041012800500129000000000000000000E9
:101C17000000000000000050011800000000000054
:101C2700000000000000000000004801390000002B
:051C37000000000000A8
:101EF000E4900128F0FE7F10FD7B017A0179291220
:101F000003C57E007F107D007B017A0179181203E2
:071F1000C512106A02211343
:0E17F60090016DEBF0A3EAF0A3E9F0A3EDF093
:10180400780D7C007D007BFF7A2079F47E007F10C8
:101814001200DEE4900171F0900170E0D394105056
:10182400409001287401F07E007F107D007B007AD7
:1018340000790D1203C5900170E0FF7E00780D7CE5
:10184400007D0090016DE0FBA3E0FAA3E0F9120033
:10185400DE7B007A00790D7D10121CDEE4900128F5
:01186400F093
:011865002260
:101E0F00900128E0602D12215DEF24F0601424D0A2
:101E1F00601024207012122147122264E4900128CE
:101E2F00F0221221470222647B017A0179187D107A
:041E3F00121CDE2271
:1018D4009001E8EBF0A3EAF0A3E9F0AE05E490018F
:1018E400EBF0AF061EEF60469001EBE0FF9001E8DD
:1018F400E0FBA3E475F0011201D9A9F0FA12010486
:101904006F9001EBF0E4A3F09001ECE0C394085075
:10191400D19001EBE030E007C313648CF0800790B2
:1019240001EBE0C313F09001ECE004F080DA9001E5
:04193400EBE0FF22C3
:101677009001B2EBF0A3EAF0A3E9F0AE05E4900124
:10168700EBF0AF061EEF606B9001EBE0FF9001B24D
:10169700E0FBA3E475F0011201D9A9F0FA120104E5
:1016A7006F9001EBF09001B6E004F0A3E0FF90012A
:1016B700B6E0C39F4012E4F0EFFDE49DFDE4940023
:1016C7009001B38DF01201C3E49001ECF09001ECAE
:1016D700E0C3940850AC9001EBE030E007C313641B
:1016E7008CF080079001EBE0C313F09001ECE0046D
:0916F700F080DA9001EBE0FF2223
:012284002237
:0A215300E42FFFEE343CFE020D6F96
:012285002236
:012286002235
:041C3C004101ED0075
:06145D007B017A01796BAE
:0E14630090016DEFF0A3EBF0A3EAF0A3E9F027
:10147100E4A3F01220757BFF7A22797E12212F7B63
:10148100FF7A22798112213B7B017A007D017C0068
:101491007F037E00121E4390016EE0FBA3E0FAA3DE
:1014A100E0F9740112011D2418F582E43401F58379
:1014B10074F2F0740112011D2418F582E43401F56F
:1014C100837401F090016DE0FF740112011D241875
:1014D100F582E43401F583EFF0E4900171F09001BD
:1014E10019E02401FFE433FE900171E0FDC39FEE9A
:1014F1006480F8748098502E74192DF582E43401BB
:10150100F583E0FF90016EE0FBA3E0FAA3E0F9129E
:1015110001042418F582E43401F583E02FF09001F1
:0615210071E004F080B847
:0115270022A1
:050B160090016AEFF000
:100B1B00E4A3F0A3F090016BF0FE7F10FD7B017A54
:100B2B000179181203C590016AE024FEB446004017
:100B3B0003020D5B900B4D75F003A4C58325F0C527
:100B4B008373020C1F020C2C020C49020C3C020C8E
:100B5B005D020D5B020C6D020C80020CA9020C9065
:100B6B00020CBD020D5B020CCD020D5B020D5B0294
:100B7B000D5B020D5B020CD8020D5B020D5B020DCF
:100B8B005B020D5B020D5B020D5B020D5B020D5BED
:100B9B00020CE2020D5B020D5B020D5B020CEC0220
:100BAB000D5B020CF6020D5B020D5B020D5B020D81
:100BBB005B020D5B020D00020D5B020D5B020D0A69
:100BCB00020D5B020D5B020D14020D5B020D5B024D
:100BDB000D5B020D5B020D5B020D1E020D5B020D28
:100BEB005B020D5B020D5B020D5B020D28020D5BC0
:100BFB00020D5B020D32020D5B020D5B020D5B02FF
:100C0B000D3C020D5B020D5B020D46020D5B020DEE
:100C1B005B020D509001EDE070227F5012145D804D
:100C2B00759001ED7401F0FB7A01796B7F70020D09
:100C3B00589001EDE070057F5112145D80589001C2
:100C4B00EDE07003020D5B7B017A01796B7F710222
:100C5B000D589001ED7401F0FB7A01796B7F7102F5
:100C6B000D589001EDE0700B7B017A01796B7F528F
:100C7B0012146380219001ED7401F0FB7A01796B02
:100C8B007F72020D589001EDE0700B7B017A0179B8
:100C9B006B7F53121463E49001EDF0020D5B900136
:100CAB00EDE07003020D5B7B017A01796B7F7302C0
:100CBB000D589001ED7401F0FB7A01796B7F730293
:100CCB000D587B017A01796B7F54020D587B017AA9
:100CDB0001796B7F5580767B017A01796B7F56802A
:100CEB006C7B017A01796B7F5780627B017A01798A
:100CFB006B7F5880587B017A01796B7F59804E7BD3
:100D0B00017A01796B7F5A80447B017A01796B7F81
:100D1B005B803A7B017A01796B7F5C80307B017A57
:100D2B0001796B7F5D80267B017A01796B7F5E8019
:100D3B001C7B017A01796B7F5F80127B017A0179D1
:100D4B006B7F6080087B017A01796B7F6112146382
:100D5B0090016BE0600D04F07B017A017918E0FDE6
:030D6B001217F666
:010D6E002262
:101FAB00A2AF9209C2AF75C7AA75C75553A37FA23B
:101FBB000992AF122089122183122278121FCDD2DF
:021FCB00AF2243
:081C40004101B0004101B100B7
:101FCD001221045389F0438901538EF79001B074A7
:101FDD00FAF0A374C4F0758CFAF58AD2A9D28C22CA
:0F2104007E007F0A7D007B017A0179A60203C568
:03000B00021700D9
:10170000C0E0C0F0C083C082C0D075D000C000C0AF
:10171000069001B0E0F58CA3E0F58A9001A6740173
:10172000F0A3E004F0C3940A4005E4F0A304F090B1
:1017300001A9E004F0C394644005E4F0A304F09030
:1017400001ABE004F0C394F4748094814005E4F0AC
:10175000A304F09001ADE475F0011201C3FEC3E5EE
:10176000F094E8EE9403400A9001ADE4F0A3F0A3F6
:1017700004F0D006D000D0D0D082D083D0F0D0E01A
:011780003236
:101F64000A6D679C46F6375D4521EFAC5A50010B6C
:101F7400DF020A6D679C46F6375D4521EFAC5A5087
:041F8400E10BDF028C
:081C48004501C3CCCCCCCCCC8F
:1020890053B3FE43B40153B3FD43B40253B1FE430A
:03209900B201226F
:012287002234
:101FED00E4FEC290EF30E704D2808002C280EF257C
:0C1FFD00E0FFD290000EEEB408E8C290A5
:0120090022B4
:04209C00E4FD7FFCE4
:0F20A000C29100121FEDAF05121FED00D2912269
:0A1C9B007B019001807405F07F3F8B
:0B1CA50090017DEBF0A3EAF0A3E9F052
:101CB000C291E4FD121FED900180E0FFEDC39F5043
:101CC0001A90017DE0FBA3E0FAA3E0F98D82758311
:0D1CD00000120141FF121FED0D80DCD291CA
:011CDD0022E4
:101F8800E4FEC290EF30E704D2808002C280EF25E1
:101F9800E0FFD290000EEEB408E843B10153B2FE60
:021FA800C290E5
:011FAA002214
:10205C00E4FFFEC290EF25E0FFD2903080034401F4
:08206C00FF0EEEB408EDC29076
:012074002249
:1020AF00C29100121F8812205C53B1FE43B201008F
:0220BF00D291BC
:0120C10022FC
:0B1D21009001BFEBF0A3EAF0A3E9F093
:101D2C00C291121F88E4FD9001C2E0FFEDC39F50E9
:101D3C001A12205C9001BFE0FBA3E0FAA3E0F98D3E
:101D4C0082758300EF1201A10D80DC53B1FE43B20A
:031D5C0001D29120
:011D5F002261
:0E21130012209C7D8E7F201220A00000002252
:101F3E00E4FEFD7FFC1220A07D8F7F201220A0E406
:101F4E00FD7FFD1220A0E4FEFF000FBF00010EBEBC
:051F5E0013F7BF88F439
:011F6300225B
:0A215D007F071220AFEF5470FF223D
:062272007F091220AF22DB
:072264007D707F270220A01E
:0C214700E4FD7FE11220A07FE20220A056
:0E212100AC0712209CAF04AD077F250220A062
:061CDE0012215DEF703CD5
:101CE400900172F0A3F0900180EDF07FA0121CA58A
:101CF400E4FD7FFD1220A0E4900172F0A3F00090B7
:101D04000173E004F07006900172E004F090017237
:0C1D1400E07004A3E064C870E512209C9D
:011D200022A0
:101E9F00AC0512215DEF30E61D12209C9001C2ECC3
:101EAF00F07F61121D21122147122264E4FD7FFD94
:091EBF001220A07F01227F002205
:10106A00786A7C017D017BFF7A1F79647E007F05A7
:10107A001200DE786F7C017D017BFF7A1F79697E21
:10108A00007F031200DE78727C017D017BFF7A1FEC
:10109A00796C7E007F061200DE78787C017D017B08
:1010AA00FF7A1F79727E007F011200DE78797C0157
:1010BA007D017BFF7A1F79737E007F031200DE12A7
:1010CA0022877D5A7F531220A07DA57F531220A02C
:1010DA007D207F3D1220A012209C7FE11220A07F5C
:1010EA00E21220A07D707F271220A07D017F2212AC
:1010FA0020A07D037F231220A07D4E7F251220A0F1
:10110A007D107F311220A07B017A0179C390018082
:10111A007405F07F30121CA57B017A0179C3900116
:10112A00807405F07F2A121CA57A01796A121C9B29
:10113A007B017A0179729001807406F07F3A121C61
:10114A00A57B017A0179789001807401F07F3912C8
:10115A001CA57B017A01796F9001807403F07F3EB0
:10116A00121CA57B017A0179799001807403F07FC2
:10117A003B121CA5E4FD7F3C1220A07D3F7F261276
:0E118A0020A0E4FD7F241220A07F210220A0DF
:0512AA00900181EFF04E
:1012AF00E478827C017D017BFF7A1F7976FE7F05D2
:1012BF001200DE78877C017D017BFF7A1F797B7EB0
:1012CF00007F031200DE788A7C017D017BFF7A1F8D
:1012DF00797E7E007F061200DE78907C017D017B97
:1012EF00FF7A1F79847E007F011200DE78917C01E6
:1012FF007D017BFF7A1F79857E007F031200DE7DE3
:10130F005A7F531220A07DA57F531220A07D207FEE
:10131F003D1220A012209CE4FF000000000FEFB44C
:10132F00DCF7900181E0FD7F251220A07D3F7F2615
:10133F001220A07A017982121C9B7B017A01798A93
:10134F009001807406F07F3A121CA57B017A017917
:10135F00909001807401F07F39121CA57B017A01F6
:10136F0079879001807403F07F3E121CA57B017A70
:0E137F000179919001807403F07F3B021CA560
:041C50004101BA0094
:012288002233
:100D6F00AB07AA06A9059001BBEFF0C3948050040E
:100D7F00E4F080069001BB7480F09001B8E4F0A31A
:100D8F007480F09001BBE07C002400FEEC3AA3F0ED
:100D9F00A3CEF09001B8E0FEA3E0FF7003EE640174
:100DAF0060369001BCE0FCA3E0F5828C83E4938F66
:100DBF00828E83F09001BAE004F09001B9E004F064
:100DCF0070069001B8E004F09001BDE004F070C32C
:100DDF009001BCE004F080BBAF039001BBEFF0C308
:100DEF009480500FE02480FEE4339001B8F0A3CE3E
:100DFF00F0800D9001BBE0FF9001B8E4F0A3EFF09D
:100E0F009001B8E0FCA3E0F5828C83E9F0AD038D8F
:100E1F00A6EAFFF5A775AEFFA2AF9209C2AF75C7DD
:100E2F00AA75C755439F01A20992AFA2AF9209C2FB
:100E3F00AF75C7AA75C75543A501A20992AF75AF84
:100E4F0022A2AF9209C2AF75C7AA75C75543A401B5
:100E5F00A20992AF9001BBEDF0C394805004E4F06F
:100E6F0080069001BB7480F09001B8E4F0A3748009
:100E7F00F09001BBE0F5A68FA7A2AF9209C2AF75A4
:100E8F00C7AA75C755439F01A20992AFA2AF920996
:100E9F00C2AF75C7AA75C75543A501A20992AF7511
:100EAF00AF219001B8E0FEA3E0FFF44E602C8F82DB
:100EBF008E83E0F5AEA2AF9209C2AF75C7AA75C710
:100ECF005543A401A20992AF05A69001B9E004F021
:100EDF0070D09001B8E004F080C8A2AF9209C2AF01
:100EEF0075C7AA75C75553A5FEA20992AFA2AF92B7
:100EFF0009C2AF75C7AA75C755539FFEA20992AF16
:010F0F0022BF
:040003008F828E83D7
:03000700E493FF80
:01000A0022D3
:10138D00E4FED282D283D284D285D286D287D29401
:10139D00D295D296D297EF14603114604614605BEB
:1013AD001460701470030214382405600302145A7B
:1013BD00C282ED14600F14600E14600D24036003DF
:1013CD0002145A80768078807A807CC283ED146016
:1013DD000C14600B14600A24037072805E806080B0
:1013ED00628064C284ED14600C14600B14600A24D6
:1013FD0003705A80468048804A804CC285ED146047
:10140D000C14600B14600A24037042802E8030800F
:10141D00328034C286ED14600C14600B14600A2403
:10142D0003702A80168018801A801CC287ED146004
:10143D000E14600F14601024037012A297800AA27C
:0F144D00968006A2958002A294B3E433FEAF0608
:01145C00226D
:07226B00E4FDFF12138D22B8
:08218C007D01E4FF12138D2216
:082194007D02E4FF12138D220D
:08219C007D03E4FF12138D2204
:0821A400E4FD7F0112138D22FE
:0821AC007D017F0112138D2259
:0821B4007D027F0112138D2250
:0821BC007D037F0112138D2247
:0821C400E4FD7F0212138D22DD
:0821CC007D017F0212138D2238
:0821D4007D027F0212138D222F
:0821DC007D037F0212138D2226
:0821E400E4FD7F0312138D22BC
:0821EC007D017F0312138D2217
:0821F4007D027F0312138D220E
:0821FC007D037F0312138D2205
:08220400E4FD7F0412138D229A
:08220C007D017F0412138D22F5
:082214007D027F0412138D22EC
:08221C007D037F0412138D22E3
:08222400E4FD7F0512138D2279
:08222C007D017F0512138D22D4
:082234007D027F0512138D22CB
:08223C007D037F0512138D22C2
:062278001207D5021D60F3
:10200A00900116E0240BF582E43401F583EFF09099
:0D201A000116E004F0C3940A4002E4F02235
:101E7500900116E0FF900115E0FEB507037F0022F3
:101E8500740B2EF582E43401F583E0FF900115E033
:091E950004F0C3940A4002E4F0D9
:011E9E002221
:101EC800900116E0FFA3E0FEB507037F0022740B24
:101ED8002EF582E43401F583E0FF900117E004F069
:071EE800C3940A4002E4F07C
:011EEF0022D0
:1020C20075F00BEFA4240BF582E5F03400F583E004
:0220D200FF22EB
:101DD80075F00BEFA42409F582E5F03400F583ECE7
:101DE800F0A3EDF075F00BEFA4240CF582E5F034C8
:101DF80000F583EBF075F00BEFA4240DF582E5F008
:071E08003400F583E4F02231
:09217A00900116E0900115F0221D
:101D600053B1FB53B2FB53B1F753B2F753B1EF5337
:101D7000B2EF53B1DF53B2DF53B1BF53B2BF53B170
:101D80007F53B27F53B3EF53B4EF53B3DF53B4DF9A
:0D1D900053B3BF53B4BF53B37F53B47F228E
:1007D500E47E017F08FD7B017A0079031203C5E4FD
:1007E500900115F0A3F0A3F0FF75F00BEFA4240919
:1007F500F582E5F03400F583E4F0A37446F075F076
:100805000BEFA42406F582E5F03400F5837402F0BD
:1008150075F00BEFA4240BF582E5F03400F583E4C5
:10082500F075F00BEFA4240CF582E5F03400F583A8
:10083500E4F075F00BEFA4240DF582E5F03400F536
:1008450083E4F00FEFB418A19000177428F090001E
:100855002DF090004EF09000A6F090006FF0900003
:1008650085F090009BF09000C7F09000B1F09000EB
:10087500DDF0E4FF0F75F00BA42403F582E5F034F9
:1008850000F58374FFF0A37422F0A3746BF00F7569
:10089500F00B7401A42403F582E5F03400F58374AC
:1008A500FFF0A37421F0A3748CF00F75F00B7402A4
:1008B500A42403F582E5F03400F58374FFF0A374F6
:1008C50021F0A37494F00F75F00B7403A42403F5C1
:1008D50082E5F03400F58374FFF0A37421F0A3746E
:1008E5009CF00F75F00B7404A42403F582E5F03435
:1008F50000F58374FFF0A37421F0A374A4F00F75C1
:10090500F00B7405A42403F582E5F03400F5837437
:10091500FFF0A37421F0A374ACF00F75F00B74060F
:10092500A42403F582E5F03400F58374FFF0A37485
:1009350021F0A374B4F00F75F00B7407A42403F52C
:1009450082E5F03400F58374FFF0A37421F0A374FD
:10095500BCF00F75F00B7408A42403F582E5F034A0
:1009650000F58374FFF0A37421F0A374C4F00F7530
:10097500F00B7409A42403F582E5F03400F58374C3
:10098500FFF0A37421F0A374CCF00F75F00B740A7B
:10099500A42403F582E5F03400F58374FFF0A37415
:1009A50021F0A374D4F00F75F00B740BA42403F598
:1009B50082E5F03400F58374FFF0A37421F0A3748D
:1009C500DCF00F75F00B740CA42403F582E5F0340C
:1009D50000F58374FFF0A37421F0A374E4F00F75A0
:1009E500F00B740DA42403F582E5F03400F583744F
:1009F500FFF0A37421F0A374ECF00F75F00B740EE7
:100A0500A42403F582E5F03400F58374FFF0A374A4
:100A150021F0A374F4F00F75F00B740FA42403F503
:100A250082E5F03400F58374FFF0A37421F0A3741C
:100A3500FCF00F75F00B7410A42403F582E5F03477
:100A450000F58374FFF0A37422F0A37404F00F750E
:100A5500F00B7411A42403F582E5F03400F58374DA
:100A6500FFF0A37422F0A3740CF00F75F00B741251
:100A7500A42403F582E5F03400F58374FFF0A37434
:100A850022F0A37414F00F75F00B7413A42403F56E
:100A950082E5F03400F58374FFF0A37422F0A374AB
:100AA5001CF00F75F00B7414A42403F582E5F034E3
:100AB50000F58374FFF0A37422F0A37424F00F757E
:100AC500F00B7415A42403F582E5F03400F5837466
:100AD500FFF0A37422F0A3742CF00F75F00B7416BD
:100AE500A42403F582E5F03400F58374FFF0A374C4
:100AF50022F0A37434F075F00BEFA42403F582E51E
:100B0500F03400F58374FFF0A37422F0A3743CF075
:010B150022BD
:100F100090016BEFF0E075F00BA42403F974003539
:100F2000F0FA7B01900000EBF0A3EAF0A3E9F012E5
:100F3000039F1203BFEF7003021002900000E0FB5A
:100F4000A3E0FAA3E0F9900003120141FFC3940566
:100F500050089000037405021066EFC3940A50080D
:100F6000900003740102016E900008120141701498
:100F7000900008041201A190016BE075F003A40435
:100F8000FF12200A900000E0FBA3E0FAA3E0F99032
:100F900000061201EFFFAEF0D39400EE9400500370
:100FA0000210699000041201EFC39FE5F09E5023E8
:100FB000900004E475F001120227FCE5F06F700266
:100FC000EC6E600302106990016BE075F003A424DD
:100FD00003802B900009120141FFD39400500302BB
:100FE000106990000A740112016EC39F407B90004B
:100FF0000AE41201A190016BE075F003A404FF0262
:10100000200A900000E0FBA3E0FAA3E0F9900003BF
:10101000120141FFD39405400A90000374051201A8
:10102000A1802BEF600A90000374FF12016E801EF6
:10103000900008120141B40115900008E41201A1CA
:1010400090016BE075F003A42402FF12200A9000C7
:1010500000E0FBA3E0FAA3E0F9900004E4F5F0124D
:0A106000027490000AE41201A122BC
:10202700E490016AF090016AE0FFC39418500B1224
:0A2037000F1090016AE004F080EB46
:01204100227C
:0921830053ACFE43AD01022281C0
:03227E00D2B022B9
:03228100C2B022C6
:0A216700EF600302227E12228122A3
:101D9D0053B1BF53B2BF53B17F53B27F7598504308
:101DAD008920438780438E1053C4DFAB07AA06A951
:101DBD0005A8047F407E427D0F7C001202DDEF04FA
:0B1DCD00F404F58DD28ED299D2AC2226
:101781009001C812039353B1BF53B2BF53B17F53FA
:10179100B27F75985043878053C4F843C4209001A9
:1017A100C8E0F8A3E0F9A3E0FAA3E0FB7F407E42A2
:1017B1007D0F7C001202DDC374FF9FFF74FF9EFE4C
:1017C100E49DFDE49CFC78081203808FC69001C85B
:1017D100E0F8A3E0F9A3E0FAA3E0FB7F407E427DBD
:1017E1000F7C001202DDC374FF9FFF8FC543C40845
:0517F100D299D2AC22E8
:072244003098FDAF99C2982C
:01224B002270
:08224C00C2998F993099FD221F
:101866009001CC12039353B1FB53B2FB53B3BF5356
:10187600B4BF75F85075C40853C4DF9001CCE0F8C6
:10188600A3E0F9A3E0FAA3E0FB7F407E427D0F7C54
:10189600001202DDC374FF9FFF74FF9EFEE49DFDF0
:1018A600E49CFC78081203808FC69001CCE0F8A374
:1018B600E0F9A3E0FAA3E0FB7F407E427D0F7C00C7
:0E18C6001202DDC374FF9FFF8FC543C40822CA
:0722540030F8FDAF9AC2F85B
:01225B002260
:08225C00C2F98F9A30F9FD224E
:1020420075C7AA75C755A2AF9209C2AF75C7AA755F
:0A205200C755439F80A20992AF22F8
:101AA9009001D0120393538EF7438901D28CE4FF3E
:101AB900FEFDFC9001D0E0F8A3E0F9A3E0FAA3E071
:101AC900FBC312036F602F758A7E758CFF308DFD05
:101AD900C28D9001D0E0FCA3E0FDA3E0FEA3E024C9
:101AE900FFFFEE34FFFEED34FFFDEC34FFFC900107
:091AF900D012039380B8C28C22C4
:101B02009001D4120393538EF7438901D28CE4FFE0
:101B1200FEFDFC9001D4E0F8A3E0F9A3E0FAA3E013
:101B2200FBC312036F602F758ACA758CFA308DFD64
:101B3200C28D9001D4E0FCA3E0FDA3E0FEA3E0246B
:101B4200FFFFEE34FFFEED34FFFDEC34FFFC9001AD
:091B5200D412039380B8C28C2266
:101B5B009001D8120393538EEF438910D28EE4FF7A
:101B6B00FEFDFC9001D8E0F8A3E0F9A3E0FAA3E0B6
:101B7B00FBC312036F602F758BEA758DCB308FFD16
:101B8B00C28F9001D8E0FCA3E0FDA3E0FEA3E0240C
:101B9B00FFFFEE34FFFEED34FFFDEC34FFFC900154
:091BAB00D812039380B8C28E2207
:101997009001DC12039353C9BF53C9DF43C910D267
:1019A700CAE4FFFEFDFC9001DCE0F8A3E0F9A3E048
:1019B700FAA3E0FBC312036F602F75CC3075CDF827
:1019C70030CFFDC2CF9001DCE0FCA3E0FDA3E0FE39
:1019D700A3E024FFFFEE34FFFEED34FFFDEC34FF00
:0C19E700FC9001DC12039380B8C2CA22FD
:1019F3009001E012039375C40743C408E4FFFEFD9E
:101A0300FC9001E0E0F8A3E0F9A3E0FAA3E0FBC354
:101A130012036F603275C52C75C6CFE5C430E4FB85
:101A230053C4EF9001E0E0FCA3E0FDA3E0FEA3E0DC
:101A330024FFFFEE34FFFEED34FFFDEC34FFFC909A
:0B1A430001E012039380B553C4F722AA
:101A4E009001E412039375C40743C408E4FFFEFD3E
:101A5E00FC9001E4E0F8A3E0F9A3E0FAA3E0FBC3F5
:101A6E0012036F603275C5D875C6FFE5C430E4FB4E
:101A7E0053C4EF9001E4E0FCA3E0FDA3E0FEA3E07D
:101A8E0024FFFFEE34FFFEED34FFFDEC34FFFC903F
:0B1A9E0001E412039380B553C4F7224B
:101198000A3D3D3D3D3D3D3D3D3D3D3D3D3D3D3DAA
:1011A8003D3D3D3D3D3D3D3D3D3D3D3D3D3D3D3D67
:1011B8003D3D3D3D3D3D3D3D3D3D3D3D3D3D3D3D57
:1011C8003D3D3D3D3D3D3D3D3D3D3D3D3D3D3D3D47
:1011D8003D3D3D3D3D000A2A2020436F70797269EC
:1011E8006768742863292032303135204E75766F50
:1011F800746F6E20546563686E6F6C6F67792043F7
:101208006F72702E20416C6C20726967687473204D
:1012180072657365727665642E2020000A2A202084
:10122800436F6E7461637420452D4D61696C3A207B
:101238004D6963726F432D38626974406E75766FBD
:10124800746F6E2E636F6D202020202020202020B8
:101258002020202020202020202020202020202086
:1012680020000A2A202044656D6F20566572736934
:101278006F6E20203A202532642E2532642E2532C6
:1012880064000A2A202046696E69736865642044F0
:10129800617465203A202532642E2532642E253269
:0212A8006400E0
:101938007BFF7A1179981204DB7BFF7A1179DE122A
:1019480004DB7BFF7A1279241204DB7BFF7A12799D
:101958006A900144E4F0A304F0E4A3F0A3F0A3F038
:10196800A3F01204DB7BFF7A12798A900144740792
:10197800F0A374DFF0A3E4F0A37405F0A3E4F0A3EC
:0F198800741FF01204DB7BFF7A1179980204DBE5
:030000000215DD09
:1015DD00787FE4F6D8FD9000007FFF7E03E4F0A352
:0A15ED00DFFCDEFA758121021632E0
:1015F700021BB4E493A3F8E493A34003F68001F23B
:1016070008DFF48029E493A3F85407240CC8C333F4
:10161700C4540F4420C8834004F456800146F6DFC3
:10162700E4800B0102040810204080901C07E47E30
:10163700019360BCA3FF543F30E509541FFEE493B8
:10164700A360010ECF54C025E060A840B8E493A37F
:10165700FAE493A3F8E493A3C8C582C8CAC583CAAA
:10166700F0A3C8C582C8CAC583CADFE9DEE780BE62
:011C5400008F
:10000E00E709F608DFFA8046E709F208DFFA803ED4
:10001E0088828C83E709F0A3DFFA8032E309F608C1
:10002E00DFFA8078E309F208DFFA807088828C8329
:10003E00E309F0A3DFFA806489828A83E0A3F608DD
:10004E00DFFA805889828A83E0A3F208DFFA804CB7
:10005E0080D280FA80C680D4806980F2803380108E
:10006E0080A680EA809A80A880DA80E280CA8033F7
:10007E0089828A83ECFAE493A3C8C582C8CCC5836F
:10008E00CCF0A3C8C582C8CCC583CCDFE9DEE7803F
:10009E000D89828A83E493A3F608DFF9ECFAA9F0BE
:1000AE00EDFB2289828A83ECFAE0A3C8C582C8CC14
:1000BE00C583CCF0A3C8C582C8CCC583CCDFEADE2D
:1000CE00E880DB89828A83E493A3F208DFF980CC8F
:1000DE0088F0EF60010E4E60C388F0ED2402B40488
:1000EE000050B9F582EB2402B4040050AF2323452F
:0600FE00822390005E73F6
:10010400BB010689828A83E0225002E722BBFE02F9
:09011400E32289828A83E493222C
:10011D00BB010B89828A83F8E0C828F0E8225003DE
:10012D0027C722BBFE07F8E3C828F3E8228A838994
:04013D0082E49322A3
:10014100BB010CE58229F582E5833AF583E0225073
:1001510006E92582F8E622BBFE06E92582F8E222BD
:0D016100E58229F582E5833AF583E49322D7
:10016E00BB010FF8E58229F582E5833AF583E02895
:10017E00F0225009C58229F8E58226F622BBFE0937
:10018E00C58229F8E22582F222F8EA2583F583E971
:03019E0093282281
:1001A100F8BB010DE58229F582E5833AF583E8F094
:1001B100225006E92582C8F622BBFE05E92582C840
:0201C100F22228
:1001C300C5F0F8A3E028F0C5F0F8E58215827002C7
:0601D3001583E038F02264
:1001D900A3F8E0C5F025F0F0E582158270021583D9
:0601E900E0C838F0E82236
:1001EF00BB0110E58229F582E5833AF583E0F5F04E
:1001FF00A3E0225009E92582F886F008E622BBFE2B
:10020F000AE92582F8E2F5F008E222E5832AF58370
:08021F00E993F5F0A3E9932235
:10022700BB010DC58229C582C5833AC5830201C3B7
:100237005011C58229F808E5F026F618F5F0E58291
:1002470036F622BBFE11C58229F808E225F0F5F043
:10025700F218E23582F222F8E58229F582E5832A4F
:0D026700F58374019325F0F5F0E49338223F
:10027400F8BB0111E58229F582E5833AF583E8F0BC
:10028400E5F0A3F0225009E92582C8F608A6F02279
:0D029400BBFE09E92582C8F2E5F008F22260
:1002A10075F008758200EF2FFFEE33FECD33CDCC14
:1002B10033CCC58233C5829BED9AEC99E582984097
:1002C1000CF582EE9BFEED9AFDEC99FC0FD5F0D674
:1002D100E4CEFBE4CDFAE4CCF9A88222B800C1B99E
:1002E1000059BA002DEC8BF084CFCECDFCE5F0CBDC
:1002F100F97818EF2FFFEE33FEED33FDEC33FCEB15
:1003010033FB10D703994004EB99FB0FD8E5E4F9CF
:10031100FA227818EF2FFFEE33FEED33FDEC33FCBC
:10032100C933C910D7059BE99A4007EC9BFCE99AB0
:10033100F90FD8E0E4C9FAE4CCFB2275F010EF2FF5
:10034100FFEE33FEED33FDCC33CCC833C810D707F5
:100351009BEC9AE899400AED9BFDEC9AFCE899F830
:0E0361000FD5F0DAE4CDFBE4CCFAE4C8F922C3
:10036F00EB9FF5F0EA9E42F0E99D42F0E89C45F0E4
:01037F00225B
:10038000E8600FECC313FCED13FDEE13FEEF13FF5B
:03039000D8F1227F
:0C039300ECF0A3EDF0A3EEF0A3EFF022DD
:10039F00BB010789828A8302040C5005E9F8020425
:1003AF0003BBFE05E9F802043589828A8302043E05
:0603BF008A838982E473C9
:10047000E5082444F582E43401F583E00508229080
:100480000141300703900144E475F00112041502A4
:1004900001042000E97F2ED2008018EF540F249031
:1004A000D43440D4FF30040BEF24BFB41A005003FF
:1004B0002461FFE50960021509050CE50C700205D1
:1004C0000B30070E900141E475F001120415EF02A4
:1004D00003F1021F177403D2078003E4C207F50873
:1004E00090014112042CE4F509F50BF50CE50960C7
:1004F000077F201204B380F5750AFFC201C200C253
:1005000002C203C205C206C20812047FFF700D308A
:1005100007057F001204C4AF0CAE0B22B4255FC2E6
:10052000D5C20412047FFF24D0B40A00501A75F01B
:100530000A780930D50508B6FF0106C6A426F620BC
:10054000D5047002D20380D924CFB41A00EF50042E
:10055000C2E5D2040206C5D20180C6D20080C0D254
:100560000280BCD2D580BAD20580B47F201204B3F9
:100570002002077401B5090040F1120470FF120453
:10058000B30204EDD208D2068095120470FB120467
:1005900070FA120470F94A4B700679967A077BFF5D
:1005A00020022EE509602A7E008E827583001201EA
:1005B0004160060EEE650A70F0C2D5EBC0E0EAC0FD
:1005C000E0E9C0E0EE12070CD0E0F9D0E0FAD0E0AC
:1005D000FB120104FF60AAEBC0E0EAC0E0E9C0E062
:1005E0001204B3D0E02401F9D0E03400FAD0E0FBEB
:1005F000E50A0460DCD50AD980877BFF7A07790891
:10060000D202809C791080027908C206C208800854
:10061000D2D5790A8004790AC2D5E50A047002F5B8
:100620000AE4FAFDFEFF120470FC7B08200113129D
:100630000470FD7B1030000A120470FE120470FF7B
:100640007B20EC3382D592D55013C3E43000069F53
:10065000FFE49EFEE42001039DFDE49CFCE4CBF856
:10066000C201EC700CCFCECDCCE824F8F870F3804A
:1006700017C3EF33FFEE33FEED33FDEC33FCEB330A
:10068000FB994002FB0FD8E9EB300105F8D0E0C43C
:1006900048B201C0E00AEC4D4E4F78207B0070C29A
:1006A000EAB50A0040BCC0E012070ED0F0D0E0204E
:1006B0000104C4C0E0C4B201C0F012049CD0F0D563
:1006C000F0EB0204ED12044A058A53060458055B58
:1006D0004C05574206084F06104406104905704362
:0806E00006165505FA4605FA5D
:1006E8004505FA4707B650055F2D05632E05862B8D
:1006F800056723058420079F2A051F480000057EFB
:100708003F3F3F00790AA2D5200314300509B910EC
:10071800020404B9080104A2D520060250010420ED
:1007280002689202B509005034C0E07F20300319F6
:100738007F30A20272067205500F120765C202C20C
:1007480006C205C2087F30800F300503E9C0E012F9
:1007580004B3300503D0E0F9D0E0B509CC30051773
:100768007F30B9100C1204B37F583004077F7880AB
:1007780003B908031204B33002057F2D0204B37FC6
:10078800202008F87F2B2006F322920280CF286EC3
:10079800756C6C2900D2011204703001F8C201781E
:1007A8000930D50108F602051F2D50434958120497
:1007B800702403B405004001E49007B1931204A427
:0D07C800743A1204A4D20375090402060459
:1003C500EF4E6012EF60010EEDBB010B89828A834F
:1003D500F0A3DFFCDEFA2289F05007F709DFFCA95C
:0C03E500F022BBFEFCF309DFFCA9F022B3
:1003F100BB010689828A83F0225002F722BBFE01EB
:02040100F322E4
:09040300E6FB08E6FA08E6F9221E
:09040C00E0FBA3E0FAA3E0F922F1
:10041500F8E0FBA3A3E0F925F0F0E5821582700270
:070425001583E0FA38F02214
:09042C00EBF0A3EAF0A3E9F022D1
:09043500E2FB08E2FA08E2F922F8
:0C043E00E493FB740193FA740293F9221A
:10044A00D083D082F8E4937012740193700DA3A341
:10045A0093F8740193F5828883E473740293686055
:06046A00EFA3A3A380DF55
:101F1700EFB40A07740D121F22740A309811A8999A
:101F2700B8130CC2983098FDA899C298B811F6302A
:071F370099FDC299F5992202
:00000001FF
