:101C6E00D292C282C283C284C285C286C287D294F5
:101C7E00D295D296D29743E90143E94043EA1053F5
:101C8E00EBEF43E94043EA2053EBDF43E98043EABD
:101C9E004053EBBF43E98043EA8053EB7F439B0203
:061CAE0043870202205BE7
:09218A0053B3FB43B404C29222DA
:1018D400E4900169F0121FC412218A12229D121F82
:1018E40009D2AF9001A7E06002E4F09001A9E060A2
:1018F40008E4F0122040121E289001ABE06005E4D9
:10190400F01215289001ADE06002E4F09001B0E01F
:101914006013E4F0900169E004F0E0C3940340052F
:10192400E4F0121C6E121E8E90016AEFF060B4E4B3
:0C193400900169F0A3E0FF120B1680A7E1
:0C2148009001A1EBF0A3EAF0A3E9F02263
:0C2154009001A4EBF0A3EAF0A3E9F02254
:1020ED009001A1A3E0FAA3E0F94A60031203BF2215
:1020FD009001A4A3E0FAA3E0F94A60031203BF2202
:101E5C00EF4E602D900197EEF0A3EFF0AF05A3ECE1
:101E6C00F0A3EFF0AF03A3EAF0A3EFF0E4A3F0A329
:101E7C00F0A3F0A3F0900196F090019504F01220DD
:021E8C00ED2245
:10208E00E4900195F01220FD7B007A007900122178
:04209E00480221547F
:10152800900195E070030215DC900199E0FEA3E0BC
:10153800FF4E70030215DC900196E07035D3EF94EE
:1015480000EE940050030215DC90019DE475F00153
:101558001201C3FED3900198E095F0900197E09EA8
:1015680050721220FDE490019DF0A3F090019604C2
:10157800F022900196E06401705A90019D75F00187
:101588001201C3FED390019AE095F0900199E09E74
:10159800504290019BE0FEA3E0FF9400EE940040CF
:1015A8002590019FE475F0011201C3FCD3EF95F07B
:1015B800EE9C5005E4900195F0900195E07007903D
:1015C8000199F0A3F022E490019DF0A3F090019618
:0515D800F01220ED22DD
:10210D0000000000000000000000000000000000C2
:101C200041012800500129000000000000000000D0
:101C3000000000000000005001180000000000003B
:101C40000000000000000000000048013900000012
:051C500000000000008F
:101F0900E4900128F0FE7F10FD7B017A0179291206
:101F190003C57E007F107D007B017A0179181203C9
:071F2900C512106A02212C11
:0E17F60090016EEBF0A3EAF0A3E9F0A3EDF092
:10180400780D7C007D007BFF7A21790D7E007F10AE
:101814001200DEE4900172F0900171E0D394105054
:10182400409001287401F07E007F107D007B007AD7
:1018340000790D1203C5900171E0FF7E00780D7CE4
:10184400007D0090016EE0FBA3E0FAA3E0F9120032
:10185400DE7B007A00790D7D10121CF7E4900128DC
:01186400F093
:011865002260
:101E2800900128E0602D122176EF24F0601424D070
:101E380060102420701212216012227DE490012883
:101E4800F02212216002227D7B017A0179187D102F
:041E5800121CF7223F
:101940009001E9EBF0A3EAF0A3E9F0AE05E4900121
:10195000ECF0AF061EEF60469001ECE0FF9001E96D
:10196000E0FBA3E475F0011201D9A9F0FA12010419
:101970006F9001ECF0E4A3F09001EDE0C394085007
:10198000D19001ECE030E007C313648CF080079045
:1019900001ECE0C313F09001EDE004F080DA900177
:0419A000ECE0FF2256
:101677009001B3EBF0A3EAF0A3E9F0AE05E4900123
:10168700ECF0AF061EEF606B9001ECE0FF9001B34A
:10169700E0FBA3E475F0011201D9A9F0FA120104E5
:1016A7006F9001ECF09001B7E004F0A3E0FF900128
:1016B700B7E0C39F4012E4F0EFFDE49DFDE4940022
:1016C7009001B48DF01201C3E49001EDF09001EDAB
:1016D700E0C3940850AC9001ECE030E007C313641A
:1016E7008CF080079001ECE0C313F09001EDE0046B
:0916F700F080DA9001ECE0FF2222
:01229D00221E
:0A216C00E42FFFEE343CFE020D6F7D
:01229E00221D
:01229F00221C
:041C55004101EE005B
:06145D007B017A01796CAD
:0E14630090016EEFF0A3EBF0A3EAF0A3E9F026
:10147100E4A3F012208E7BFF7A2279971221487B18
:10148100FF7A22799A1221547B017A007D017C0036
:101491007F037E00121E5C90016FE0FBA3E0FAA3C4
:1014A100E0F9740112011D2418F582E43401F58379
:1014B10074F2F0740112011D2418F582E43401F56F
:1014C100837401F090016EE0FF740112011D241874
:1014D100F582E43401F583EFF0E4900172F09001BC
:1014E10019E02401FFE433FE900172E0FDC39FEE99
:1014F1006480F8748098502E74192DF582E43401BB
:10150100F583E0FF90016FE0FBA3E0FAA3E0F9129D
:1015110001042418F582E43401F583E02FF09001F1
:0615210072E004F080B846
:0115270022A1
:050B160090016BEFF0FF
:100B1B00E4A3F0A3F090016CF0FE7F10FD7B017A53
:100B2B000179181203C590016BE024FEB446004016
:100B3B0003020D5B900B4D75F003A4C58325F0C527
:100B4B008373020C1F020C2C020C49020C3C020C8E
:100B5B005D020D5B020C6D020C80020CA9020C9065
:100B6B00020CBD020D5B020CCD020D5B020D5B0294
:100B7B000D5B020D5B020CD8020D5B020D5B020DCF
:100B8B005B020D5B020D5B020D5B020D5B020D5BED
:100B9B00020CE2020D5B020D5B020D5B020CEC0220
:100BAB000D5B020CF6020D5B020D5B020D5B020D81
:100BBB005B020D5B020D00020D5B020D5B020D0A69
:100BCB00020D5B020D5B020D14020D5B020D5B024D
:100BDB000D5B020D5B020D5B020D1E020D5B020D28
:100BEB005B020D5B020D5B020D5B020D28020D5BC0
:100BFB00020D5B020D32020D5B020D5B020D5B02FF
:100C0B000D3C020D5B020D5B020D46020D5B020DEE
:100C1B005B020D509001EEE070227F5012145D804C
:100C2B00759001EE7401F0FB7A01796C7F70020D07
:100C3B00589001EEE070057F5112145D80589001C1
:100C4B00EEE07003020D5B7B017A01796C7F710220
:100C5B000D589001EE7401F0FB7A01796C7F7102F3
:100C6B000D589001EEE0700B7B017A01796C7F528D
:100C7B0012146380219001EE7401F0FB7A01796C00
:100C8B007F72020D589001EEE0700B7B017A0179B7
:100C9B006C7F53121463E49001EEF0020D5B900134
:100CAB00EEE07003020D5B7B017A01796C7F7302BE
:100CBB000D589001EE7401F0FB7A01796C7F730291
:100CCB000D587B017A01796C7F54020D587B017AA8
:100CDB0001796C7F5580767B017A01796C7F568028
:100CEB006C7B017A01796C7F5780627B017A017989
:100CFB006C7F5880587B017A01796C7F59804E7BD1
:100D0B00017A01796C7F5A80447B017A01796C7F7F
:100D1B005B803A7B017A01796C7F5C80307B017A56
:100D2B0001796C7F5D80267B017A01796C7F5E8017
:100D3B001C7B017A01796C7F5F80127B017A0179D0
:100D4B006C7F6080087B017A01796C7F6112146380
:100D5B0090016CE0600D04F07B017A017918E0FDE5
:030D6B001217F666
:010D6E002262
:101FC400A2AF9209C2AF75C7AA75C75553A37FA222
:101FD4000992AF1220A212219C122291121FE6D262
:021FE400AF222A
:081C59004101B1004101B2009C
:101FE60012211D5389F0438901538EF79001B17474
:101FF600FAF0A374C4F0758CFAF58AD2A9D28C22B1
:0F211D007E007F0A7D007B017A0179A70203C54E
:03000B00021700D9
:10170000C0E0C0F0C083C082C0D075D000C000C0AF
:10171000069001B1E0F58CA3E0F58A9001A7740171
:10172000F0A3E004F0C3940A4005E4F0A304F090B1
:1017300001AAE004F0C394644005E4F0A304F0902F
:1017400001ACE004F0C394F4748094814005E4F0AB
:10175000A304F09001AEE475F0011201C3FEC3E5ED
:10176000F094E8EE9403400A9001AEE4F0A3F0A3F5
:1017700004F0D006D000D0D0D082D083D0F0D0E01A
:011780003236
:101F7D000A6D679C46F6375D4521EFAC5A50010B53
:101F8D00DF020A6D679C46F6375D4521EFAC5A506E
:041F9D00E10BDF0273
:081C61004501C4CCCCCCCCCC75
:1020A20053B3FE43B40153B3FD43B40253B1FE43F1
:0320B200B2012256
:0122A000221B
:10200600E4FEC290EF30E704D2808002C280EF2562
:0C201600E0FFD290000EEEB408E8C2908B
:01202200229B
:0420B500E4FD7FFCCB
:0F20B900C29100122006AF0512200600D291221C
:0A1CB4007B019001817405F07F3F71
:0B1CBE0090017EEBF0A3EAF0A3E9F038
:101CC900C291E4FD122006900181E0FFEDC39F500F
:101CD9001A90017EE0FBA3E0FAA3E0F98D827583F7
:0D1CE90000120141FF1220060D80DCD29197
:011CF60022CB
:101FA100E4FEC290EF30E704D2808002C280EF25C8
:101FB100E0FFD290000EEEB408E843B10153B2FE47
:021FC100C290CC
:011FC30022FB
:10207500E4FFFEC290EF25E0FFD2903080034401DB
:08208500FF0EEEB408EDC2905D
:01208D002230
:1020C800C29100121FA112207553B1FE43B2010044
:0220D800D291A3
:0120DA0022E3
:0B1D3A009001C0EBF0A3EAF0A3E9F079
:101D4500C291121FA1E4FD9001C3E0FFEDC39F50B6
:101D55001A1220759001C0E0FBA3E0FAA3E0F98D0B
:101D650082758300EF1201A10D80DC53B1FE43B2F1
:031D750001D29107
:011D78002248
:0E212C001220B57D8E7F201220B90000002207
:101F5700E4FEFD7FFC1220B97D8F7F201220B9E4BB
:101F6700FD7FFD1220B9E4FEFF000FBF00010EBE8A
:051F770013F7BF88F420
:011F7C002242
:0A2176007F071220C8EF5470FF220B
:06228B007F091220C822A9
:07227D007D707F270220B9EC
:0C216000E4FD7FE11220B97FE20220B90B
:0E213A00AC071220B5AF04AD077F250220B917
:061CF700122176EF703CA3
:101CFD00900173F0A3F0900181EDF07FA0121CBE56
:101D0D00E4FD7FFD1220B9E4900173F0A3F0009083
:101D1D000174E004F07006900173E004F09001731B
:0C1D2D00E07004A3E064C870E51220B56B
:011D39002287
:101EB800AC05122176EF30E61D1220B59001C3EC77
:101EC800F07F61121D3A12216012227DE4FD7FFD30
:091ED8001220B97F01227F0022D3
:10106A00786B7C017D017BFF7A1F797D7E007F058D
:10107A001200DE78707C017D017BFF7A1F79827E07
:10108A00007F031200DE78737C017D017BFF7A1FEB
:10109A0079857E007F061200DE78797C017D017BEE
:1010AA00FF7A1F798B7E007F011200DE787A7C013D
:1010BA007D017BFF7A1F798C7E007F031200DE128E
:1010CA0022A07D5A7F531220B97DA57F531220B9E1
:1010DA007D207F3D1220B91220B57FE11220B97F11
:1010EA00E21220B97D707F271220B97D017F22127A
:1010FA0020B97D037F231220B97D4E7F251220B9A6
:10110A007D107F311220B97B017A0179C490018167
:10111A007405F07F30121CBE7B017A0179C49001FC
:10112A00817405F07F2A121CBE7A01796B121CB4F5
:10113A007B017A0179739001817406F07F3A121C5F
:10114A00BE7B017A0179799001817401F07F3912AD
:10115A001CBE7B017A0179709001817403F07F3E95
:10116A00121CBE7B017A01797A9001817403F07FA7
:10117A003B121CBEE4FD7F3C1220B97D3F7F261244
:0E118A0020B9E4FD7F241220B97F210220B994
:0512AA00900182EFF04D
:1012AF00E478837C017D017BFF7A1F798FFE7F05B8
:1012BF001200DE78887C017D017BFF7A1F79947E96
:1012CF00007F031200DE788B7C017D017BFF7A1F8C
:1012DF0079977E007F061200DE78917C017D017B7D
:1012EF00FF7A1F799D7E007F011200DE78927C01CC
:1012FF007D017BFF7A1F799E7E007F031200DE7DCA
:10130F005A7F531220B97DA57F531220B97D207FBC
:10131F003D1220B91220B5E4FF000000000FEFB41A
:10132F00DCF7900182E0FD7F251220B97D3F7F26FB
:10133F001220B97A017983121CB47B017A01798B5F
:10134F009001817406F07F3A121CBE7B017A0179FD
:10135F00919001817401F07F39121CBE7B017A01DB
:10136F0079889001817403F07F3E121CBE7B017A55
:0E137F000179929001817403F07F3B021CBE45
:041C69004101BB007A
:0122A100221A
:100D6F00AB07AA06A9059001BCEFF0C3948050040D
:100D7F00E4F080069001BC7480F09001B9E4F0A318
:100D8F007480F09001BCE07C002400FEEC3AA3F0EC
:100D9F00A3CEF09001B9E0FEA3E0FF7003EE640173
:100DAF0060369001BDE0FCA3E0F5828C83E4938F65
:100DBF00828E83F09001BBE004F09001BAE004F062
:100DCF0070069001B9E004F09001BEE004F070C32A
:100DDF009001BDE004F080BBAF039001BCEFF0C306
:100DEF009480500FE02480FEE4339001B9F0A3CE3D
:100DFF00F0800D9001BCE0FF9001B9E4F0A3EFF09B
:100E0F009001B9E0FCA3E0F5828C83E9F0AD038D8E
:100E1F00A6EAFFF5A775AEFFA2AF9209C2AF75C7DD
:100E2F00AA75C755439F01A20992AFA2AF9209C2FB
:100E3F00AF75C7AA75C75543A501A20992AF75AF84
:100E4F0022A2AF9209C2AF75C7AA75C75543A401B5
:100E5F00A20992AF9001BCEDF0C394805004E4F06E
:100E6F0080069001BC7480F09001B9E4F0A3748007
:100E7F00F09001BCE0F5A68FA7A2AF9209C2AF75A3
:100E8F00C7AA75C755439F01A20992AFA2AF920996
:100E9F00C2AF75C7AA75C75543A501A20992AF7511
:100EAF00AF219001B9E0FEA3E0FFF44E602C8F82DA
:100EBF008E83E0F5AEA2AF9209C2AF75C7AA75C710
:100ECF005543A401A20992AF05A69001BAE004F020
:100EDF0070D09001B9E004F080C8A2AF9209C2AF00
:100EEF0075C7AA75C75553A5FEA20992AFA2AF92B7
:100EFF0009C2AF75C7AA75C755539FFEA20992AF16
:010F0F0022BF
:040003008F828E83D7
:03000700E493FF80
:01000A0022D3
:10138D00E4FED282D283D284D285D286D287D29401
:10139D00D295D296D297EF14603114604614605BEB
:1013AD001460701470030214382405600302145A7B
:1013BD00C282ED14600F14600E14600D24036003DF
:1013CD0002145A80768078807A807CC283ED146016
:1013DD000C14600B14600A24037072805E806080B0
:1013ED00628064C284ED14600C14600B14600A24D6
:1013FD0003705A80468048804A804CC285ED146047
:10140D000C14600B14600A24037042802E8030800F
:10141D00328034C286ED14600C14600B14600A2403
:10142D0003702A80168018801A801CC287ED146004
:10143D000E14600F14601024037012A297800AA27C
:0F144D00968006A2958002A294B3E433FEAF0608
:01145C00226D
:07228400E4FDFF12138D229F
:0821A5007D01E4FF12138D22FD
:0821AD007D02E4FF12138D22F4
:0821B5007D03E4FF12138D22EB
:0821BD00E4FD7F0112138D22E5
:0821C5007D017F0112138D2240
:0821CD007D027F0112138D2237
:0821D5007D037F0112138D222E
:0821DD00E4FD7F0212138D22C4
:0821E5007D017F0212138D221F
:0821ED007D027F0212138D2216
:0821F5007D037F0212138D220D
:0821FD00E4FD7F0312138D22A3
:082205007D017F0312138D22FD
:08220D007D027F0312138D22F4
:082215007D037F0312138D22EB
:08221D00E4FD7F0412138D2281
:082225007D017F0412138D22DC
:08222D007D027F0412138D22D3
:082235007D037F0412138D22CA
:08223D00E4FD7F0512138D2260
:082245007D017F0512138D22BB
:08224D007D027F0512138D22B2
:082255007D037F0512138D22A9
:062291001207D5021D79C1
:10202300900116E0240BF582E43401F583EFF09080
:0D2033000116E004F0C3940A4002E4F0221C
:101E8E00900116E0FF900115E0FEB507037F0022DA
:101E9E00740B2EF582E43401F583E0FF900115E01A
:091EAE0004F0C3940A4002E4F0C0
:011EB7002208
:101EE100900116E0FFA3E0FEB507037F0022740B0B
:101EF1002EF582E43401F583E0FF900117E004F050
:071F0100C3940A4002E4F062
:011F080022B6
:1020DB0075F00BEFA4240BF582E5F03400F583E0EB
:0220EB00FF22D2
:101DF10075F00BEFA42409F582E5F03400F583ECCE
:101E0100F0A3EDF075F00BEFA4240CF582E5F034AE
:101E110000F583EBF075F00BEFA4240DF582E5F0EE
:071E21003400F583E4F02218
:09219300900116E0900115F02204
:101D790053B1FB53B2FB53B1F753B2F753B1EF531E
:101D8900B2EF53B1DF53B2DF53B1BF53B2BF53B157
:101D99007F53B27F53B3EF53B4EF53B3DF53B4DF81
:0D1DA90053B3BF53B4BF53B37F53B47F2275
:1007D500E47E017F08FD7B017A0079031203C5E4FD
:1007E500900115F0A3F0A3F0FF75F00BEFA4240919
:1007F500F582E5F03400F583E4F0A37446F075F076
:100805000BEFA42406F582E5F03400F5837402F0BD
:1008150075F00BEFA4240BF582E5F03400F583E4C5
:10082500F075F00BEFA4240CF582E5F03400F583A8
:10083500E4F075F00BEFA4240DF582E5F03400F536
:1008450083E4F00FEFB418A19000177428F090001E
:100855002DF090004EF09000A6F090006FF0900003
:1008650085F090009BF09000C7F09000B1F09000EB
:10087500DDF0E4FF0F75F00BA42403F582E5F034F9
:1008850000F58374FFF0A37422F0A37484F00F7550
:10089500F00B7401A42403F582E5F03400F58374AC
:1008A500FFF0A37421F0A374A5F00F75F00B74028B
:1008B500A42403F582E5F03400F58374FFF0A374F6
:1008C50021F0A374ADF00F75F00B7403A42403F5A8
:1008D50082E5F03400F58374FFF0A37421F0A3746E
:1008E500B5F00F75F00B7404A42403F582E5F0341C
:1008F50000F58374FFF0A37421F0A374BDF00F75A8
:10090500F00B7405A42403F582E5F03400F5837437
:10091500FFF0A37421F0A374C5F00F75F00B7406F6
:10092500A42403F582E5F03400F58374FFF0A37485
:1009350021F0A374CDF00F75F00B7407A42403F513
:1009450082E5F03400F58374FFF0A37421F0A374FD
:10095500D5F00F75F00B7408A42403F582E5F03487
:1009650000F58374FFF0A37421F0A374DDF00F7517
:10097500F00B7409A42403F582E5F03400F58374C3
:10098500FFF0A37421F0A374E5F00F75F00B740A62
:10099500A42403F582E5F03400F58374FFF0A37415
:1009A50021F0A374EDF00F75F00B740BA42403F57F
:1009B50082E5F03400F58374FFF0A37421F0A3748D
:1009C500F5F00F75F00B740CA42403F582E5F034F3
:1009D50000F58374FFF0A37421F0A374FDF00F7587
:1009E500F00B740DA42403F582E5F03400F583744F
:1009F500FFF0A37422F0A37405F00F75F00B740ECD
:100A0500A42403F582E5F03400F58374FFF0A374A4
:100A150022F0A3740DF00F75F00B740FA42403F5E9
:100A250082E5F03400F58374FFF0A37422F0A3741B
:100A350015F00F75F00B7410A42403F582E5F0345E
:100A450000F58374FFF0A37422F0A3741DF00F75F5
:100A5500F00B7411A42403F582E5F03400F58374DA
:100A6500FFF0A37422F0A37425F00F75F00B741238
:100A7500A42403F582E5F03400F58374FFF0A37434
:100A850022F0A3742DF00F75F00B7413A42403F555
:100A950082E5F03400F58374FFF0A37422F0A374AB
:100AA50035F00F75F00B7414A42403F582E5F034CA
:100AB50000F58374FFF0A37422F0A3743DF00F7565
:100AC500F00B7415A42403F582E5F03400F5837466
:100AD500FFF0A37422F0A37445F00F75F00B7416A4
:100AE500A42403F582E5F03400F58374FFF0A374C4
:100AF50022F0A3744DF075F00BEFA42403F582E505
:100B0500F03400F58374FFF0A37422F0A37455F05C
:010B150022BD
:100F100090016CEFF0E075F00BA42403F974003538
:100F2000F0FA7B01900000EBF0A3EAF0A3E9F012E5
:100F3000039F1203BFEF7003021002900000E0FB5A
:100F4000A3E0FAA3E0F9900003120141FFC3940566
:100F500050089000037405021066EFC3940A50080D
:100F6000900003740102016E900008120141701498
:100F7000900008041201A190016CE075F003A40434
:100F8000FF122023900000E0FBA3E0FAA3E0F99019
:100F900000061201EFFFAEF0D39400EE9400500370
:100FA0000210699000041201EFC39FE5F09E5023E8
:100FB000900004E475F001120227FCE5F06F700266
:100FC000EC6E600302106990016CE075F003A424DC
:100FD00003802B900009120141FFD39400500302BB
:100FE000106990000A740112016EC39F407B90004B
:100FF0000AE41201A190016CE075F003A404FF0261
:101000002023900000E0FBA3E0FAA3E0F9900003A6
:10101000120141FFD39405400A90000374051201A8
:10102000A1802BEF600A90000374FF12016E801EF6
:10103000900008120141B40115900008E41201A1CA
:1010400090016CE075F003A42402FF1220239000AD
:1010500000E0FBA3E0FAA3E0F9900004E4F5F0124D
:0A106000027490000AE41201A122BC
:10204000E490016BF090016BE0FFC39418500B1209
:0A2050000F1090016BE004F080EB2C
:01205A002263
:09219C0053ACFE43AD0102229A8E
:03229700D2B022A0
:03229A00C2B022AD
:0A218000EF600302229712229A2258
:101DB60053B1BF53B2BF53B17F53B27F75985043EF
:101DC6008920438780438E1053C4DFAB07AA06A938
:101DD60005A8047F407E427D0F7C001202DDEF04E1
:0B1DE600F404F58DD28ED299D2AC220D
:101781009001C912039353B1BF53B2BF53B17F53F9
:10179100B27F75985043878053C4F843C4209001A9
:1017A100C9E0F8A3E0F9A3E0FAA3E0FB7F407E42A1
:1017B1007D0F7C001202DDC374FF9FFF74FF9EFE4C
:1017C100E49DFDE49CFC78081203808FC69001C95A
:1017D100E0F8A3E0F9A3E0FAA3E0FB7F407E427DBD
:1017E1000F7C001202DDC374FF9FFF8FC543C40845
:0517F100D299D2AC22E8
:07225D003098FDAF99C29813
:012264002257
:08226500C2998F993099FD2206
:101866009001CD12039353B1FB53B2FB53B3BF5355
:10187600B4BF75F85075C40853C4DF9001CDE0F8C5
:10188600A3E0F9A3E0FAA3E0FB7F407E427D0F7C54
:10189600001202DDC374FF9FFF74FF9EFEE49DFDF0
:1018A600E49CFC78081203808FC69001CDE0F8A373
:1018B600E0F9A3E0FAA3E0FB7F407E427D0F7C00C7
:0E18C6001202DDC374FF9FFF8FC543C40822CA
:07226D0030F8FDAF9AC2F842
:012274002247
:08227500C2F98F9A30F9FD2235
:10205B0075C7AA75C755A2AF9209C2AF75C7AA7546
:0A206B00C755439F80A20992AF22DF
:101B15009001D1120393538EF7438901D28CE4FFD0
:101B2500FEFDFC9001D1E0F8A3E0F9A3E0FAA3E003
:101B3500FBC312036F602F758A7E758CFF308DFD98
:101B4500C28D9001D1E0FCA3E0FDA3E0FEA3E0245B
:101B5500FFFFEE34FFFEED34FFFDEC34FFFC90019A
:091B6500D112039380B8C28C2256
:101B6E009001D5120393538EF7438901D28CE4FF73
:101B7E00FEFDFC9001D5E0F8A3E0F9A3E0FAA3E0A6
:101B8E00FBC312036F602F758ACA758CFA308DFDF8
:101B9E00C28D9001D5E0FCA3E0FDA3E0FEA3E024FE
:101BAE00FFFFEE34FFFEED34FFFDEC34FFFC900141
:091BBE00D512039380B8C28C22F9
:101BC7009001D9120393538EEF438910D28EE4FF0D
:101BD700FEFDFC9001D9E0F8A3E0F9A3E0FAA3E049
:101BE700FBC312036F602F758BEA758DCB308FFDAA
:101BF700C28F9001D9E0FCA3E0FDA3E0FEA3E0249F
:101C0700FFFFEE34FFFEED34FFFDEC34FFFC9001E7
:091C1700D912039380B8C28E2299
:101A03009001DD12039353C9BF53C9DF43C910D2F9
:101A1300CAE4FFFEFDFC9001DDE0F8A3E0F9A3E0DA
:101A2300FAA3E0FBC312036F602F75CC3075CDF8BA
:101A330030CFFDC2CF9001DDE0FCA3E0FDA3E0FECB
:101A4300A3E024FFFFEE34FFFEED34FFFDEC34FF93
:0C1A5300FC9001DD12039380B8C2CA228F
:101A5F009001E112039375C40743C408E4FFFEFD30
:101A6F00FC9001E1E0F8A3E0F9A3E0FAA3E0FBC3E7
:101A7F0012036F603275C52C75C6CFE5C430E4FB19
:101A8F0053C4EF9001E1E0FCA3E0FDA3E0FEA3E06F
:101A9F0024FFFFEE34FFFEED34FFFDEC34FFFC902E
:0B1AAF0001E112039380B553C4F7223D
:101ABA009001E512039375C40743C408E4FFFEFDD1
:101ACA00FC9001E5E0F8A3E0F9A3E0FAA3E0FBC388
:101ADA0012036F603275C5D875C6FFE5C430E4FBE2
:101AEA0053C4EF9001E5E0FCA3E0FDA3E0FEA3E010
:101AFA0024FFFFEE34FFFEED34FFFDEC34FFFC90D3
:0B1B0A0001E512039380B553C4F722DD
:101198000A3D3D3D3D3D3D3D3D3D3D3D3D3D3D3DAA
:1011A8003D3D3D3D3D3D3D3D3D3D3D3D3D3D3D3D67
:1011B8003D3D3D3D3D3D3D3D3D3D3D3D3D3D3D3D57
:1011C8003D3D3D3D3D3D3D3D3D3D3D3D3D3D3D3D47
:1011D8003D3D3D3D3D000A2A2020436F70797269EC
:1011E8006768742863292032303135204E75766F50
:1011F800746F6E20546563686E6F6C6F67792043F7
:101208006F72702E20416C6C20726967687473204D
:1012180072657365727665642E2020000A2A202084
:10122800436F6E7461637420452D4D61696C3A207B
:101238004D6963726F432D38626974406E75766FBD
:10124800746F6E2E636F6D202020202020202020B8
:101258002020202020202020202020202020202086
:1012680020000A2A202044656D6F20566572736934
:101278006F6E20203A202532642E2532642E2532C6
:1012880064000A2A202046696E69736865642044F0
:10129800617465203A202532642E2532642E253269
:0212A8006400E0
:1019A4007BFF7A1179981204DB7BFF7A1179DE12BE
:1019B40004DB7BFF7A1279241204DB7BFF7A127931
:1019C4006A900144E4F0A304F0E4A3F0A3F0A3F0CC
:1019D400A3F01204DB7BFF7A12798A900144740726
:1019E400F0A374DFF0A3E4F0A37405F0A3E4F0A380
:0F19F400741FF01204DB7BFF7A1179980204DB79
:030000000215DD09
:1015DD00787FE4F6D8FD9000007FFF7E03E4F0A352
:0A15ED00DFFCDEFA758121021632E0
:1015F7000218D4E493A3F8E493A34003F68001F21E
:1016070008DFF48029E493A3F85407240CC8C333F4
:10161700C4540F4420C8834004F456800146F6DFC3
:10162700E4800B0102040810204080901C20E47E17
:10163700019360BCA3FF543F30E509541FFEE493B8
:10164700A360010ECF54C025E060A840B8E493A37F
:10165700FAE493A3F8E493A3C8C582C8CAC583CAAA
:10166700F0A3C8C582C8CAC583CADFE9DEE780BE62
:011C6D000076
:10000E00E709F608DFFA8046E709F208DFFA803ED4
:10001E0088828C83E709F0A3DFFA8032E309F608C1
:10002E00DFFA8078E309F208DFFA807088828C8329
:10003E00E309F0A3DFFA806489828A83E0A3F608DD
:10004E00DFFA805889828A83E0A3F208DFFA804CB7
:10005E0080D280FA80C680D4806980F2803380108E
:10006E0080A680EA809A80A880DA80E280CA8033F7
:10007E0089828A83ECFAE493A3C8C582C8CCC5836F
:10008E00CCF0A3C8C582C8CCC583CCDFE9DEE7803F
:10009E000D89828A83E493A3F608DFF9ECFAA9F0BE
:1000AE00EDFB2289828A83ECFAE0A3C8C582C8CC14
:1000BE00C583CCF0A3C8C582C8CCC583CCDFEADE2D
:1000CE00E880DB89828A83E493A3F208DFF980CC8F
:1000DE0088F0EF60010E4E60C388F0ED2402B40488
:1000EE000050B9F582EB2402B4040050AF2323452F
:0600FE00822390005E73F6
:10010400BB010689828A83E0225002E722BBFE02F9
:09011400E32289828A83E493222C
:10011D00BB010B89828A83F8E0C828F0E8225003DE
:10012D0027C722BBFE07F8E3C828F3E8228A838994
:04013D0082E49322A3
:10014100BB010CE58229F582E5833AF583E0225073
:1001510006E92582F8E622BBFE06E92582F8E222BD
:0D016100E58229F582E5833AF583E49322D7
:10016E00BB010FF8E58229F582E5833AF583E02895
:10017E00F0225009C58229F8E58226F622BBFE0937
:10018E00C58229F8E22582F222F8EA2583F583E971
:03019E0093282281
:1001A100F8BB010DE58229F582E5833AF583E8F094
:1001B100225006E92582C8F622BBFE05E92582C840
:0201C100F22228
:1001C300C5F0F8A3E028F0C5F0F8E58215827002C7
:0601D3001583E038F02264
:1001D900A3F8E0C5F025F0F0E582158270021583D9
:0601E900E0C838F0E82236
:1001EF00BB0110E58229F582E5833AF583E0F5F04E
:1001FF00A3E0225009E92582F886F008E622BBFE2B
:10020F000AE92582F8E2F5F008E222E5832AF58370
:08021F00E993F5F0A3E9932235
:10022700BB010DC58229C582C5833AC5830201C3B7
:100237005011C58229F808E5F026F618F5F0E58291
:1002470036F622BBFE11C58229F808E225F0F5F043
:10025700F218E23582F222F8E58229F582E5832A4F
:0D026700F58374019325F0F5F0E49338223F
:10027400F8BB0111E58229F582E5833AF583E8F0BC
:10028400E5F0A3F0225009E92582C8F608A6F02279
:0D029400BBFE09E92582C8F2E5F008F22260
:1002A10075F008758200EF2FFFEE33FECD33CDCC14
:1002B10033CCC58233C5829BED9AEC99E582984097
:1002C1000CF582EE9BFEED9AFDEC99FC0FD5F0D674
:1002D100E4CEFBE4CDFAE4CCF9A88222B800C1B99E
:1002E1000059BA002DEC8BF084CFCECDFCE5F0CBDC
:1002F100F97818EF2FFFEE33FEED33FDEC33FCEB15
:1003010033FB10D703994004EB99FB0FD8E5E4F9CF
:10031100FA227818EF2FFFEE33FEED33FDEC33FCBC
:10032100C933C910D7059BE99A4007EC9BFCE99AB0
:10033100F90FD8E0E4C9FAE4CCFB2275F010EF2FF5
:10034100FFEE33FEED33FDCC33CCC833C810D707F5
:100351009BEC9AE899400AED9BFDEC9AFCE899F830
:0E0361000FD5F0DAE4CDFBE4CCFAE4C8F922C3
:10036F00EB9FF5F0EA9E42F0E99D42F0E89C45F0E4
:01037F00225B
:10038000E8600FECC313FCED13FDEE13FEEF13FF5B
:03039000D8F1227F
:0C039300ECF0A3EDF0A3EEF0A3EFF022DD
:10039F00BB010789828A8302040C5005E9F8020425
:1003AF0003BBFE05E9F802043589828A8302043E05
:0603BF008A838982E473C9
:10047000E5082444F582E43401F583E00508229080
:100480000141300703900144E475F00112041502A4
:1004900001042000E97F2ED2008018EF540F249031
:1004A000D43440D4FF30040BEF24BFB41A005003FF
:1004B0002461FFE50960021509050CE50C700205D1
:1004C0000B30070E900141E475F001120415EF02A4
:1004D00003F1021F307403D2078003E4C207F5085A
:1004E00090014112042CE4F509F50BF50CE50960C7
:1004F000077F201204B380F5750AFFC201C200C253
:1005000002C203C205C206C20812047FFF700D308A
:1005100007057F001204C4AF0CAE0B22B4255FC2E6
:10052000D5C20412047FFF24D0B40A00501A75F01B
:100530000A780930D50508B6FF0106C6A426F620BC
:10054000D5047002D20380D924CFB41A00EF50042E
:10055000C2E5D2040206C5D20180C6D20080C0D254
:100560000280BCD2D580BAD20580B47F201204B3F9
:100570002002077401B5090040F1120470FF120453
:10058000B30204EDD208D2068095120470FB120467
:1005900070FA120470F94A4B700679967A077BFF5D
:1005A00020022EE509602A7E008E827583001201EA
:1005B0004160060EEE650A70F0C2D5EBC0E0EAC0FD
:1005C000E0E9C0E0EE12070CD0E0F9D0E0FAD0E0AC
:1005D000FB120104FF60AAEBC0E0EAC0E0E9C0E062
:1005E0001204B3D0E02401F9D0E03400FAD0E0FBEB
:1005F000E50A0460DCD50AD980877BFF7A07790891
:10060000D202809C791080027908C206C208800854
:10061000D2D5790A8004790AC2D5E50A047002F5B8
:100620000AE4FAFDFEFF120470FC7B08200113129D
:100630000470FD7B1030000A120470FE120470FF7B
:100640007B20EC3382D592D55013C3E43000069F53
:10065000FFE49EFEE42001039DFDE49CFCE4CBF856
:10066000C201EC700CCFCECDCCE824F8F870F3804A
:1006700017C3EF33FFEE33FEED33FDEC33FCEB330A
:10068000FB994002FB0FD8E9EB300105F8D0E0C43C
:1006900048B201C0E00AEC4D4E4F78207B0070C29A
:1006A000EAB50A0040BCC0E012070ED0F0D0E0204E
:1006B0000104C4C0E0C4B201C0F012049CD0F0D563
:1006C000F0EB0204ED12044A058A53060458055B58
:1006D0004C05574206084F06104406104905704362
:0806E00006165505FA4605FA5D
:1006E8004505FA4707B650055F2D05632E05862B8D
:1006F800056723058420079F2A051F480000057EFB
:100708003F3F3F00790AA2D5200314300509B910EC
:10071800020404B9080104A2D520060250010420ED
:1007280002689202B509005034C0E07F20300319F6
:100738007F30A20272067205500F120765C202C20C
:1007480006C205C2087F30800F300503E9C0E012F9
:1007580004B3300503D0E0F9D0E0B509CC30051773
:100768007F30B9100C1204B37F583004077F7880AB
:1007780003B908031204B33002057F2D0204B37FC6
:10078800202008F87F2B2006F322920280CF286EC3
:10079800756C6C2900D2011204703001F8C201781E
:1007A8000930D50108F602051F2D50434958120497
:1007B800702403B405004001E49007B1931204A427
:0D07C800743A1204A4D20375090402060459
:1003C500EF4E6012EF60010EEDBB010B89828A834F
:1003D500F0A3DFFCDEFA2289F05007F709DFFCA95C
:0C03E500F022BBFEFCF309DFFCA9F022B3
:1003F100BB010689828A83F0225002F722BBFE01EB
:02040100F322E4
:09040300E6FB08E6FA08E6F9221E
:09040C00E0FBA3E0FAA3E0F922F1
:10041500F8E0FBA3A3E0F925F0F0E5821582700270
:070425001583E0FA38F02214
:09042C00EBF0A3EAF0A3E9F022D1
:09043500E2FB08E2FA08E2F922F8
:0C043E00E493FB740193FA740293F9221A
:10044A00D083D082F8E4937012740193700DA3A341
:10045A0093F8740193F5828883E473740293686055
:06046A00EFA3A3A380DF55
:101F3000EFB40A07740D121F3B740A309811A89968
:101F4000B8130CC2983098FDA899C298B811F63011
:071F500099FDC299F59922E9
:00000001FF
