:091E4A004101D8004201D9000059
:1019BB00E4FFFE43B30453B4FBD292000FBF00010C
:1019CB000EEF64C84E70F443B10153B2FEC28043B4
:1019DB00B30153B4FEC29043B30253B4FDC291C2E0
:1019EB0082C283C284C285C286C287D294D295D268
:1019FB0096D29743E90143E94043EA1053EBEF4397
:101A0B00E94043EA2053EBDF43E98043EA4053EBE1
:101A1B00BF43E98043EA8053EB7F439B024387023A
:031A2B0002239DF6
:0924DE0053B3FB43B404C2922283
:10159100E490014BF09001D8F01224DEA3F0A3F007
:1015A10000009001DAE004F070069001D9E004F047
:1015B1009001D9E0B401E9A3E0B4F4E41222EC1201
:1015C10025F5D2AF90018DE06002E4F090018FE04B
:1015D1006008E4F0121EF8122368900191E06005A2
:1015E100E4F01214DC900194E06002E4F0900197C1
:1015F100E06026E4F01225F990014BE004F0781741
:10160100E660047F1E80027F0390014BE0C39F4090
:1016110008E4F01223D01219BB1221B890014CEF4B
:10162100F060A1E490014BF09001D8E0700904F062
:10163100E47817F612249290014CE0FF120B3280ED
:011641008325
:0C247A00900187EBF0A3EAF0A3E9F02248
:0C24860090018AEBF0A3EAF0A3E9F02239
:10242F00900187A3E0FAA3E0F94A60031203BF22E9
:10243F0090018AA3E0FAA3E0F94A60031203BF22D6
:10218600EF4E602D90017DEEF0A3EFF0AF05A3ECCE
:10219600F0A3EFF0AF03A3EAF0A3EFF0E4A3F0A3FC
:1021A600F0A3F0A3F090017CF090017B04F01224E0
:0221B6002F22D6
:1023D000E490017BF012243F7B007A007900122404
:0423E0007A022486D3
:1014DC0090017BE0700302159090017FE0FEA3E089
:1014EC00FF4E700302159090017CE07035D3EF94A1
:1014FC0000EE94005003021590900183E475F00106
:10150C001201C3FED390017EE095F090017DE09E28
:10151C00507212243FE4900183F0A3F090017C04FC
:10152C00F02290017CE06401705A90018375F00107
:10153C001201C3FED3900180E095F090017FE09EF4
:10154C005042900181E0FEA3E0FF9400EE94004035
:10155C0025900185E475F0011201C3FCD3EF95F0E1
:10156C00EE9C5005E490017BF090017BE0700790BD
:10157C00017FF0A3F022E4900183F0A3F090017CB2
:05158C00F012242F22E3
:0A24C0000000000000000000000012
:101E53000132001033000000000000000000000009
:101E6300000000000010220000000000000000003D
:101E7300000000000000004801A400000000000072
:021E830000005D
:10228000E47832F6FE7F10FDFB7A0079331203C545
:102290007E007F107D007B007A0079221203C51238
:0522A00010E902245EBC
:0B1FCF00900153EBF0A3EAF0A3E9F04F
:101FDA00E4A3F0F0900156E0FFC394055029EF24E2
:101FEA0080FFE43447FE1225EB900153E0FBA3E0A7
:101FFA00FAA3E0F9A3E0F582758300EF1201A1903C
:07200A000156E004F080CD57
:0120110022AC
:101F4300E4FE789A7C017D017B017A01799F7F050C
:101F53001200DEE47832F6FE7F10FDFB7A0079335F
:101F63001203C57E007F107D007B007A0079221268
:101F730003C51210E9E4FEFF000FBF00010EBE030C
:071F8300F7BF20F402225A0F
:0C2492007B017A01799A121FCF02228090
:0E1B6D00900151EBF0A3EAF0A3E9F0A3EDF034
:101B7B00E4A3F0EDD39410504978327601900151E3
:101B8B00E0FBA3E0FAA3E0F9900022EB7008E96513
:101B9B00827003EA6583602A7E007F107D007B00E4
:101BAB007A0079221203C5900154E0FF7E0078225F
:101BBB007C007D00900151E0FBA3E0FAA3E0F91259
:021BCB0000DE3A
:011BCD0022F5
:0B0E080090014DEBF0A3EAF0A3E9F02D
:100E1300E4A3F0A3F012010464F86003020F8E90C0
:100E2300014DE0FBA3E0FAA3E0F9900001120141B8
:100E3300D394104003020F8EE4900150F090014DC3
:100E4300E0FBA3E0FAA3E0F99000011201412401C1
:100E5300FFE433FE900150E0FDC39FEE6480F8741D
:100E63008098501DED2401FFE433FE8F828E8312A0
:100E73000141FF900151E02FF0900150E004F08018
:100E8300BC90014DE0FBA3E0FAA3E0F9900001124E
:100E93000141F582758300A3A3120141FF90015123
:100EA300E06F6003020F8E90014DE0FBA3E0FAA315
:0F0EB300E0F990000212014124026003020F8E49
:100EC200E4900152F0780D7C00FD7BFF7A2479C01A
:100ED200FE7F051200DE78127C007D007BFF7A2403
:100EE20079C57E007F051200DE7E007F057D007BD6
:100EF200007A00790D1203C57E007F057D007B001C
:100F02007A0079121203C57B007A00790D121FCF85
:100F120090014DE0FBA3E0FAA3E02403F9E43AFADE
:100F220078127C007D007E007F051200DE90015267
:100F32007401F0E4900150F0900150E0FF240DF9AB
:100F420074122FF8E6676007E4900152F0800A906D
:100F52000150E004F0E0B405DF900152E07026FF9A
:100F6200FE1224AAE4900150F0900150E004F0E057
:100F7200B4FDF67B007A0079129001587405F0E412
:0C0F8200FFFE121EA2E47817F61223D026
:010F8E002240
:101EF8007832E6602E1224CAEF24F0601524D060F0
:101F08000F2420701312249E1225D1E47832F62271
:101F1800800012249E0225D17B007A0079227D1050
:101F28000220557B007A0079337D101221E2EF60A0
:0B1F3800097B007A007933120E0822AA
:101B09009001DBEBF0A3EAF0A3E9F0AE05E4900164
:101B1900DEF0AF061EEF60469001DEE0FF9001DBCC
:101B2900E0FBA3E475F0011201D9A9F0FA1201044E
:101B39006F9001DEF0E4A3F09001DFE0C394085058
:101B4900D19001DEE030E007C313648CF080079088
:101B590001DEE0C313F09001DFE004F080DA9001C8
:041B6900DEE0FF2299
:1018BD009001ACEBF0A3EAF0A3E9F0AE05E49001E2
:1018CD00DEF0AF061EEF606B9001DEE0FF9001AC25
:1018DD00E0FBA3E475F0011201D9A9F0FA1201049D
:1018ED006F9001DEF09001B0E004F0A3E0FF9001F5
:1018FD00B0E0C39F4012E4F0EFFDE49DFDE49400E1
:10190D009001AD8DF01201C3E49001DFF09001DF85
:10191D00E0C3940850AC9001DEE030E007C31364DF
:10192D008CF080079001DEE0C313F09001DFE0043E
:09193D00F080DA9001DEE0FF22E7
:0125F50022C3
:0B24AA00EF2480FFEE3447FE021F8A83
:0B24B500EF2480FFEE3447FE021A9C6B
:101EA200900153EEF0A3EFF0A3EBF0A3EAF0A3E965
:011EB200F03F
:101EB300E4900159F0F0900158E0FFA3E0FEC39FC6
:101EC3005032EEFF900154E02FFF900153E03400B5
:101ED300FE900155E0FBA3E0FAA3E0F9900159E07D
:101EE300F582758300120141FD1224B5900159E07A
:041EF30004F080C2B5
:011EF70022C8
:0425EB0012000322B5
:0125F60022C2
:0125F70022C1
:041E85004101E00037
:0616ED007B017A01794E39
:0E16F300900151EFF0A3EBF0A3EAF0A3E9F0B1
:10170100E4A3F01223D07BFF7A2579EF12247A7BB0
:10171100FF7A2579F21224867B017A007D017C0013
:101721007F037E00122186900152E0FBA3E0FAA321
:10173100E0F9740112011D2422F876F274011201FC
:101741001D2422F87601900151E0FF740112011D60
:101751002422F8A607E4900155F07823E62401FF3E
:10176100E433FE900155E0FDC39FEE6480F8748080
:1017710098502274232DF8E6FF900152E0FBA3E07C
:10178100FAA3E0F91201042422F8EF26F69001559C
:05179100E004F080C53A
:011796002230
:050B320090014DEFF001
:100B3700E4A3F0A3F0A3F07817E66003020E07E43E
:100B470090014EF0FE7F10FDFB7A0079221203C55B
:100B570090014DE024FEB44A004003020DF4900BCF
:100B67007375F003A4C58325F0C58373020C510286
:100B77000C5F020C7D020C6F020C91020DF4020C4B
:100B8700A1020CB5020CD9020CC5020CED020DF442
:100B9700020CFD020DF4020DF4020DF4020DF40235
:100BA7000D08020DF4020DF4020DF4020DF4020D0E
:100BB700F4020DF4020DF4020DF4020D13020DF40C
:100BC700020DF4020DF4020D1E020DF4020D2802AF
:100BD7000DF4020DF4020DF4020DF4020DF4020DF2
:100BE70032020DF4020DF4020D3C020DF4020DF475
:100BF700020D46020DF4020DF4020DF4020DF4028B
:100C07000DF4020D50020DF4020DF4020DF4020D65
:100C1700F4020DF4020D5A020DF4020DF4020DF464
:100C2700020D64020D7C020DF4020D84020DF40224
:100C37000DF4020D8E020DF4020DF4020D98020D53
:100C4700F4020DF4020DF4020DA59001E0E070230B
:100C57007F501216ED020D759001E07401F0FB7ADA
:100C670001794E7F70020DA09001E0E070057F5181
:100C77001216ED020D759001E0E07003020DF47B92
:100C8700017A01794E7F71020DA09001E07401F0A5
:100C9700FB7A01794E7F71020DA09001E0E0700BA5
:100CA7007B017A01794E7F521216F3020D7590017E
:100CB700E07401F0FB7A01794E7F72020DA090017A
:100CC700E0E0700B7B017A01794E7F531216F30235
:100CD7000D759001E0E07003020DF47B017A017954
:100CE7004E7F73020DA09001E07401F0FB7A017949
:100CF7004E7F73020DA07B017A01794E7F54020D5E
:100D0700A07B017A01794E7F55020DA07B017A0104
:100D1700794E7F56020DA07B017A01794E7F57806D
:100D2700787B017A01794E7F58806E7B017A017951
:100D37004E7F5980647B017A01794E7F5A805A7BB6
:100D4700017A01794E7F5B80507B017A01794E7F72
:100D57005C80467B017A01794E7F5D803C9001E0A3
:100D6700E0700B7B017A01794E7F5E1216F3E490F7
:100D770001E0F080789001E07401F080707B017AE7
:100D870001794E7F5F80127B017A01794E7F608007
:100D9700087B017A01794E7F611216F3804F78172D
:100DA7007601E490014FF0A3F000900150E004F0C9
:100DB700700690014FE004F090014FE0B403EAA3FE
:100DC700E0B4E8E5121F431223D07BFF7A2579EFC1
:100DD70012247A7BFF7A2579F2122486E4FBFA7DC6
:100DE70005FC7F01FE122186E490014EF090014E32
:100DF700E0600D04F07B007A007922E0FD121B6DA4
:010E070022C8
:0125F80022C0
:0125F90022BF
:0125FA0022BE
:0125FB0022BD
:1022EC00A2AF9209C2AF75C7AA75C75553A37FA2F7
:1022FC000992AF1223E41224F01225E512230ED218
:02230C00AF22FE
:081E890041019800410199009C
:10230E0012244F5389F0438901538EF7900198742C
:10231E00FAF0A374C4F0758CFAF58AD2A9D28C2285
:0F244F007E007F0B7D007B017A01798D0203C532
:03000B00021831A7
:10183100C0E0C0F0C083C082C0D075D000C000C07D
:1018410006900198E0F58CA3E0F58A90018D740172
:10185100F0A3E004F0C3940A4005E4F0A304F0907F
:101861000190E004F0C394644005E4F0A304F09017
:101871000192E475F0011201C3FEC3E5F094F4EEA8
:101881009401400A900192E4F0A3F0A304F09001C6
:1018910095E475F0011201C3FEC3E5F094E8EE94FE
:1018A10003400A900195E4F0A3F0A304F0D006D020
:0C18B10000D0D0D082D083D0F0D0E03244
:1022A5000A6D679C46F6375D4521EFAC5A50010B28
:1022B500DF020A6D679C46F6375D4521EFAC5A5043
:0422C500E10BDF0248
:101E910045019F1262ACB36645019ACCCCCCCCCC47
:1023E40053B3FE43B40153B3FD43B40253B1FE43AC
:0323F400B2012211
:0125FC0022BC
:10232E00E4FEC290EF30E704D2808002C280EF2537
:0C233E00E0FFD290000EEEB408E8C29060
:01234A002270
:0423F700E4FD7FFC86
:0F23FB00C2910012232EAF0512232E00D2912281
:0A2012007B019001677405F07F3F29
:0B201C00900164EBF0A3EAF0A3E9F0F0
:10202700C291E4FD12232E900167E0FFEDC39F509C
:102037001A900164E0FBA3E0FAA3E0F98D827583AF
:0D20470000120141FF12232E0D80DCD2910A
:012054002269
:1022C900E4FEC290EF30E704D2808002C280EF259D
:1022D900E0FFD290000EEEB408E843B10153B2FE1C
:0222E900C290A1
:0122EB0022D0
:1023B700E4FFFEC290EF25E0FFD290308003440196
:0823C700FF0EEEB408EDC29018
:0123CF0022EB
:10240A00C291001222C91223B753B1FE43B201008E
:02241A00D2915D
:01241C00229D
:0B20980090014EEBF0A3EAF0A3E9F08A
:1020A300C2911222C9E4FD900151E0FFEDC39F509C
:1020B3001A1223B790014EE0FBA3E0FAA3E0F98DD7
:1020C30082758300EF1201A10D80DC53B1FE43B290
:0320D30001D291A6
:0120D60022E7
:0E245E001223F77D8E7F201223FB0000002248
:10225A00E4FEFD7FFC1223FB7D8F7F201223FBE42B
:10226A00FD7FFD1223FBE4FEFF000FBF00010EBE3F
:05227A0013F7BF88F41A
:01227F00223C
:0A24CA007F0712240AEF5470FF226E
:0625DF007F0912240A220C
:0725D1007D707F270223FB50
:0C249E00E4FD7FE11223FB7FE20223FB40
:0E246C00AC071223F7AF04AD077F250223FB58
:062055001224CAEF703CEA
:10205B0090014DF0A3F0900167EDF07FA012201CD2
:10206B00E4FD7FFD1223FBE490014DF0A3F0009003
:10207B00014EE004F0700690014DE004F090014D2C
:0C208B00E07004A3E064C870E51223F7C5
:012097002226
:1021E200AC051224CAEF30E61D1223F7900151EC20
:1021F200F07F6112209812249E1225D1E4FD7FFD0A
:092202001223FB7F01227F002260
:1010E90078517C017D017BFF7A2279A57E007F05FD
:1010F9001200DE78567C017D017BFF7A2279AA7E77
:10110900007F031200DE78597C017D017BFF7A2282
:1011190079AD7E007F061200DE785F7C017D017B60
:10112900FF7A2279B37E007F011200DE78607C01AC
:101139007D017BFF7A2279B47E007F031200DE12E3
:1011490025FC7D5A7F531223FB7DA57F531223FB78
:101159007D207F3D1223FB1223F77FE11223FB7FC2
:10116900E21223FB7D707F271223FB7D017F221270
:1011790023FB7D037F231223FB7D4E7F251223FB57
:101189007D107F311223FB7B017A01799A900167E7
:101199007405F07F3012201C7B017A01799A900145
:1011A900677405F07F2A12201C7A017951122012E6
:1011B9007B017A0179599001677406F07F3A122010
:1011C9001C7B017A01795F9001677401F07F391204
:1011D900201C7B017A0179569001677403F07F3EE8
:1011E90012201C7B017A0179609001677403F07FFA
:1011F9003B12201CE4FD7F3C1223FB7D3F7F26121E
:0E12090023FBE4FD7F241223FB7F210223FB45
:05132900900168EFF0E7
:10132E00E478697C017D017BFF7A2279B7FE7F0527
:10133E001200DE786E7C017D017BFF7A2279BC7E05
:10134E00007F031200DE78717C017D017BFF7A2223
:10135E0079BF7E007F061200DE78777C017D017BEF
:10136E00FF7A2279C57E007F011200DE78787C013B
:10137E007D017BFF7A2279C67E007F031200DE7D1F
:10138E005A7F531223FB7DA57F531223FB7D207FB3
:10139E003D1223FB1223F7E4FF000000000FEFB411
:1013AE00DCF7900168E0FD7F251223FB7D3F7F2651
:1013BE001223FB7A0179691220127B017A0179716D
:1013CE009001677406F07F3A12201C7B017A017936
:1013DE00779001677401F07F3912201C7B017A012E
:1013EE00796E9001677403F07F3E12201C7B017AA8
:0E13FE000179789001677403F07F3B02201C98
:0125FD0022BB
:101A9C00EFF5A6EEF5A7A2AF9209C2AF75C7AA756E
:101AAC00C755439F01A20992AFA2AF9209C2AF756D
:101ABC00C7AA75C75543A501A20992AF75AF21AF4F
:101ACC00058FAEA2AF9209C2AF75C7AA75C75543B1
:101ADC00A401A20992AFA2AF9209C2AF75C7AA75B1
:101AEC00C75553A5FEA20992AFA2AF9209C2AF751A
:0D1AFC00C7AA75C755539FFEA20992AF22DD
:101F8A008FA6EEF5A775AEFFA2AF9209C2AF75C7CD
:101F9A00AA75C755439F01A20992AFA2AF9209C27F
:101FAA00AF75C7AA75C75543A501A20992AF75AF08
:101FBA0022A2AF9209C2AF75C7AA75C75543A40139
:051FCA00A20992AF2204
:101642009001B2EEF0A3EFF0A3EBF0A3EAF0A3E96E
:01165200F0A7
:101653009001B2E0FEA3E0F5A6EEF5A7A2AF9209D2
:10166300C2AF75C7AA75C755439F01A20992AFA21E
:10167300AF9209C2AF75C7AA75C75543A501A209A1
:1016830092AF75AF21E4FEFF9001B7E0FDC3EF9D7C
:10169300EE9400502E9001B4E0FBA3E0FAA3E0F92E
:1016A3008F828E83120141F5AEA2AF9209C2AF754C
:1016B300C7AA75C75543A401A20992AF0FBF000182
:1016C3000E80C5A2AF9209C2AF75C7AA75C755539D
:1016D300A5FEA20992AFA2AF9209C2AF75C7AA75C0
:0916E300C755539FFEA20992AF06
:0116EC0022DB
:040003008F828E83D7
:03000700E493FF80
:01000A0022D3
:10140C00E4FED282D283D284D285D286D287D29481
:10141C00D295D296D297EF14603114604614605B6B
:10142C001460701470030214B7240560030214D9FD
:10143C00C282ED14600F14600E14600D240360035F
:10144C000214D980768078807A807CC283ED146017
:10145C000C14600B14600A24037072805E80608030
:10146C00628064C284ED14600C14600B14600A2456
:10147C0003705A80468048804A804CC285ED1460C7
:10148C000C14600B14600A24037042802E80308090
:10149C00328034C286ED14600C14600B14600A2484
:1014AC0003702A80168018801A801CC287ED146085
:1014BC000E14600F14601024037012A297800AA2FD
:0F14CC00968006A2958002A294B3E433FEAF0689
:0114DB0022EE
:0725D800E4FDFF12140C22C8
:0824F9007D01E4FF12140C2226
:082501007D02E4FF12140C221C
:082509007D03E4FF12140C2213
:08251100E4FD7F0112140C220D
:082519007D017F0112140C2268
:082521007D027F0112140C225F
:082529007D037F0112140C2256
:08253100E4FD7F0212140C22EC
:082539007D017F0212140C2247
:082541007D027F0212140C223E
:082549007D037F0212140C2235
:08255100E4FD7F0312140C22CB
:082559007D017F0312140C2226
:082561007D027F0312140C221D
:082569007D037F0312140C2214
:08257100E4FD7F0412140C22AA
:082579007D017F0412140C2205
:082581007D027F0412140C22FC
:082589007D037F0412140C22F3
:08259100E4FD7F0512140C2289
:082599007D017F0512140C22E4
:0825A1007D027F0512140C22DB
:0825A9007D037F0512140C22D2
:10238300E4FD7F0512140CEF600D7D037F0512142D
:0A2393000CEF60037F01227F00229F
:0625E5001207D50220D709
:10234B00900121E02416F582E43401F583EFF0903F
:0D235B000121E004F0C3940A4002E4F022E6
:1021B800900121E0FF900120E0FEB507037F002297
:1021C80074162EF582E43401F583E0FF900120E0D7
:0921D80004F0C3940A4002E4F093
:0121E10022DB
:10220B00900121E0FFA3E0FEB507037F00227416C7
:10221B002EF582E43401F583E0FF900122E004F017
:07222B00C3940A4002E4F035
:012232002289
:10241D0075F00BEFA4240BF582E5F03400F583E0A5
:02242D00FF228C
:10214F0075F00BEFA42409F582E5F03400F583EC6C
:10215F00F0A3EDF075F00BEFA4240CF582E5F0344D
:10216F0000F583EBF075F00BEFA4240DF582E5F08D
:07217F003400F583E4F022B7
:0924E700900121E0900120F02297
:1020D70053B1FB53B2FB53B1F753B2F753B1EF53BD
:1020E700B2EF53B1DF53B2DF53B1BF53B2BF53B1F6
:1020F7007F53B27F53B3EF53B4EF53B3DF53B4DF20
:0D21070053B3BF53B4BF53B37F53B47F2213
:1007D500E47E017F13FD7B017A0079031203C5E4F2
:1007E500900120F0A3F0A3F0FF75F00BEFA424090E
:1007F500F582E5F03400F583E4F0A37446F075F076
:100805000BEFA42406F582E5F03400F5837402F0BD
:1008150075F00BEFA4240BF582E5F03400F583E4C5
:10082500F075F00BEFA4240CF582E5F03400F583A8
:10083500E4F075F00BEFA4240DF582E5F03400F536
:1008450083E4F00FEFB419A19000177428F090001D
:100855002DF090004EF09000A6F090006FF0900003
:1008650085F090009BF09000C7F09000B1F09000EB
:10087500DDF0E4FF0F75F00BA42403F582E5F034F9
:1008850000F58374FFF0A37425F0A374D8F00F75F9
:10089500F00B7401A42403F582E5F03400F58374AC
:1008A500FFF0A37424F0A374F9F00F75F00B740234
:1008B500A42403F582E5F03400F58374FFF0A374F6
:1008C50025F0A37401F00F75F00B7403A42403F550
:1008D50082E5F03400F58374FFF0A37425F0A3746A
:1008E50009F00F75F00B7404A42403F582E5F034C8
:1008F50000F58374FFF0A37425F0A37411F00F7550
:10090500F00B7405A42403F582E5F03400F5837437
:10091500FFF0A37425F0A37419F00F75F00B74069E
:10092500A42403F582E5F03400F58374FFF0A37485
:1009350025F0A37421F00F75F00B7407A42403F5BB
:1009450082E5F03400F58374FFF0A37425F0A374F9
:1009550029F00F75F00B7408A42403F582E5F03433
:1009650000F58374FFF0A37425F0A37431F00F75BF
:10097500F00B7409A42403F582E5F03400F58374C3
:10098500FFF0A37425F0A37439F00F75F00B740A0A
:10099500A42403F582E5F03400F58374FFF0A37415
:1009A50025F0A37441F00F75F00B740BA42403F527
:1009B50082E5F03400F58374FFF0A37425F0A37489
:1009C50049F00F75F00B740CA42403F582E5F0349F
:1009D50000F58374FFF0A37425F0A37451F00F752F
:1009E500F00B740DA42403F582E5F03400F583744F
:1009F500FFF0A37425F0A37459F00F75F00B740E76
:100A0500A42403F582E5F03400F58374FFF0A374A4
:100A150025F0A37461F00F75F00B740FA42403F592
:100A250082E5F03400F58374FFF0A37425F0A37418
:100A350069F00F75F00B7410A42403F582E5F0340A
:100A450000F58374FFF0A37425F0A37471F00F759E
:100A5500F00B7411A42403F582E5F03400F58374DA
:100A6500FFF0A37425F0A37479F00F75F00B7412E1
:100A7500A42403F582E5F03400F58374FFF0A37434
:100A850025F0A37481F00F75F00B7413A42403F5FE
:100A950082E5F03400F58374FFF0A37425F0A374A8
:100AA50089F00F75F00B7414A42403F582E5F03476
:100AB50000F58374FFF0A37425F0A37491F00F750E
:100AC500F00B7415A42403F582E5F03400F5837466
:100AD500FFF0A37425F0A37499F00F75F00B74164D
:100AE500A42403F582E5F03400F58374FFF0A374C4
:100AF50025F0A374A1F00F75F00B7417A42403F56A
:100B050082E5F03400F58374FFF0A37425F0A37437
:100B1500A9F075F00BEFA42403F582E5F03400F598
:0C0B25008374FFF0A37423F0A37483F02A
:010B310022A1
:100F8F0090014EEFF0E075F00BA42403F9740035D7
:100F9F00F0FA7B01900000EBF0A3EAF0A3E9F01266
:100FAF00039F1203BFEF7003021081900000E0FB5C
:100FBF00A3E0FAA3E0F9900003120141FFC39405E7
:100FCF00500890000374050210E5EFC3940A50080F
:100FDF00900003740102016E900008120141701419
:100FEF00900008041201A190014EE075F003A404D3
:100FFF00FF12234B900000E0FBA3E0FAA3E0F9906F
:10100F0000061201EFFFAEF0D39400EE94005003F0
:10101F000210E89000041201EFC39FE5F09E5023E9
:10102F00900004E475F001120227FCE5F06F7002E6
:10103F00EC6E60030210E890014EE075F003A424FB
:10104F0003802B900009120141FFD394005003023B
:10105F0010E890000A740112016EC39F407B90004C
:10106F000AE41201A190014EE075F003A404FF02FF
:10107F00234B900000E0FBA3E0FAA3E0F9900003FC
:10108F00120141FFD39405400A9000037405120129
:10109F00A1802BEF600A90000374FF12016E801E77
:1010AF00900008120141B40115900008E41201A14B
:1010BF0090014EE075F003A42402FF12234B900021
:1010CF0000E0FBA3E0FAA3E0F9900004E4F5F012CE
:0A10DF00027490000AE41201A1223D
:10236800E490014DF090014DE0FFC39419500B1219
:0A2378000F8F90014DE004F080EBA0
:012382002238
:0924F00053ACFE43AD010225F2DC
:0325EF00D2B02245
:0325F200C2B02252
:0A24D400EF60030225EF1225F2224B
:1021140053B1BF53B2BF53B17F53B27F759850438D
:102124008920438780438E1053C4DFAB07AA06A9D6
:1021340005A8047F407E427D0F7C001202DDEF047F
:0B214400F404F58DD28ED299D2AC22AB
:101946009001B812039353B1BF53B2BF53B17F5343
:10195600B27F75985043878053C4F843C4209001E2
:10196600B8E0F8A3E0F9A3E0FAA3E0FB7F407E42EB
:101976007D0F7C001202DDC374FF9FFF74FF9EFE85
:10198600E49DFDE49CFC78081203808FC69001B8A4
:10199600E0F8A3E0F9A3E0FAA3E0FB7F407E427DF6
:1019A6000F7C001202DDC374FF9FFF8FC543C4087E
:0519B600D299D2AC2221
:0725B1003098FDAF99C298BC
:0125B8002200
:0825B900C2998F993099FD22AF
:101A2E009001BC12039353B1FB53B2FB53B3BF539C
:101A3E00B4BF75F85075C40853C4DF9001BCE0F80C
:101A4E00A3E0F9A3E0FAA3E0FB7F407E427D0F7C8A
:101A5E00001202DDC374FF9FFF74FF9EFEE49DFD26
:101A6E00E49CFC78081203808FC69001BCE0F8A3BA
:101A7E00E0F9A3E0FAA3E0FB7F407E427D0F7C00FD
:0E1A8E001202DDC374FF9FFF8FC543C4082200
:0725C10030F8FDAF9AC2F8EB
:0125C80022F0
:0825C900C2F98F9A30F9FD22DE
:10239D0075C7AA75C755A2AF9209C2AF75C7AA7501
:0A23AD00C755439F80A20992AF229A
:101D3F009001C0120393538EF7438901D28CE4FFB5
:101D4F00FEFDFC9001C0E0F8A3E0F9A3E0FAA3E0E8
:101D5F00FBC312036F602F758A7E758CFF308DFD6C
:101D6F00C28D9001C0E0FCA3E0FDA3E0FEA3E02440
:101D7F00FFFFEE34FFFEED34FFFDEC34FFFC90016E
:091D8F00C012039380B8C28C223B
:101D98009001C4120393538EF7438901D28CE4FF58
:101DA800FEFDFC9001C4E0F8A3E0F9A3E0FAA3E08B
:101DB800FBC312036F602F758ACA758CFA308DFDCC
:101DC800C28D9001C4E0FCA3E0FDA3E0FEA3E024E3
:101DD800FFFFEE34FFFEED34FFFDEC34FFFC900115
:091DE800C412039380B8C28C22DE
:101DF1009001C8120393538EEF438910D28EE4FFF2
:101E0100FEFDFC9001C8E0F8A3E0F9A3E0FAA3E02D
:101E1100FBC312036F602F758BEA758DCB308FFD7D
:101E2100C28F9001C8E0FCA3E0FDA3E0FEA3E02483
:101E3100FFFFEE34FFFEED34FFFDEC34FFFC9001BB
:091E4100C812039380B8C28E227E
:101C2D009001CC12039353C9BF53C9DF43C910D2DE
:101C3D00CAE4FFFEFDFC9001CCE0F8A3E0F9A3E0BF
:101C4D00FAA3E0FBC312036F602F75CC3075CDF88E
:101C5D0030CFFDC2CF9001CCE0FCA3E0FDA3E0FEB0
:101C6D00A3E024FFFFEE34FFFEED34FFFDEC34FF67
:0C1C7D00FC9001CC12039380B8C2CA2274
:101C89009001D012039375C40743C408E4FFFEFD15
:101C9900FC9001D0E0F8A3E0F9A3E0FAA3E0FBC3CC
:101CA90012036F603275C52C75C6CFE5C430E4FBED
:101CB90053C4EF9001D0E0FCA3E0FDA3E0FEA3E054
:101CC90024FFFFEE34FFFEED34FFFDEC34FFFC9002
:0B1CD90001D012039380B553C4F72222
:101CE4009001D412039375C40743C408E4FFFEFDB6
:101CF400FC9001D4E0F8A3E0F9A3E0FAA3E0FBC36D
:101D040012036F603275C5D875C6FFE5C430E4FBB5
:101D140053C4EF9001D4E0FCA3E0FDA3E0FEA3E0F4
:101D240024FFFFEE34FFFEED34FFFDEC34FFFC90A6
:0B1D340001D412039380B553C4F722C2
:101217000A3D3D3D3D3D3D3D3D3D3D3D3D3D3D3D2A
:101227003D3D3D3D3D3D3D3D3D3D3D3D3D3D3D3DE7
:101237003D3D3D3D3D3D3D3D3D3D3D3D3D3D3D3DD7
:101247003D3D3D3D3D3D3D3D3D3D3D3D3D3D3D3DC7
:101257003D3D3D3D3D000A2A2020436F707972696C
:101267006768742863292032303135204E75766FD0
:10127700746F6E20546563686E6F6C6F6779204377
:101287006F72702E20416C6C2072696768747320CE
:1012970072657365727665642E2020000A2A202005
:1012A700436F6E7461637420452D4D61696C3A20FC
:1012B7004D6963726F432D38626974406E75766F3E
:1012C700746F6E2E636F6D20202020202020202039
:1012D7002020202020202020202020202020202007
:1012E70020000A2A202044656D6F205665727369B5
:1012F7006F6E20203A202532642E2532642E253247
:1013070064000A2A202046696E6973686564204470
:10131700617465203A202532642E2532642E2532E9
:02132700640060
:101BCE007BFF7A1279171204DB7BFF7A12795D1292
:101BDE0004DB7BFF7A1279A31204DB7BFF7A127986
:101BEE00E9900126E4F0A304F0E4A3F0A3F0A3F03F
:101BFE00A3F01204DB7BFF7A137909900126740798
:101C0E00F0A374DFF0A3E4F0A37405F0A3E4F0A353
:0F1C1E00741FF01204DB7BFF7A1279170204DBCC
:030000000217974D
:10179700787FE4F6D8FD9000007FFF7E03E4F0A396
:0A17A700DFFCDEFA7581420217EC48
:1017B100021591E493A3F8E493A34003F68001F2A8
:1017C10008DFF48029E493A3F85407240CC8C33339
:1017D100C4540F4420C8834004F456800146F6DF08
:1017E100E4800B0102040810204080901E4AE47E30
:1017F100019360BCA3FF543F30E509541FFEE493FD
:10180100A360010ECF54C025E060A840B8E493A3C3
:10181100FAE493A3F8E493A3C8C582C8CAC583CAEE
:10182100F0A3C8C582C8CAC583CADFE9DEE780BEA6
:011EA1000040
:10000E00E709F608DFFA8046E709F208DFFA803ED4
:10001E0088828C83E709F0A3DFFA8032E309F608C1
:10002E00DFFA8078E309F208DFFA807088828C8329
:10003E00E309F0A3DFFA806489828A83E0A3F608DD
:10004E00DFFA805889828A83E0A3F208DFFA804CB7
:10005E0080D280FA80C680D4806980F2803380108E
:10006E0080A680EA809A80A880DA80E280CA8033F7
:10007E0089828A83ECFAE493A3C8C582C8CCC5836F
:10008E00CCF0A3C8C582C8CCC583CCDFE9DEE7803F
:10009E000D89828A83E493A3F608DFF9ECFAA9F0BE
:1000AE00EDFB2289828A83ECFAE0A3C8C582C8CC14
:1000BE00C583CCF0A3C8C582C8CCC583CCDFEADE2D
:1000CE00E880DB89828A83E493A3F208DFF980CC8F
:1000DE0088F0EF60010E4E60C388F0ED2402B40488
:1000EE000050B9F582EB2402B4040050AF2323452F
:0600FE00822390005E73F6
:10010400BB010689828A83E0225002E722BBFE02F9
:09011400E32289828A83E493222C
:10011D00BB010B89828A83F8E0C828F0E8225003DE
:10012D0027C722BBFE07F8E3C828F3E8228A838994
:04013D0082E49322A3
:10014100BB010CE58229F582E5833AF583E0225073
:1001510006E92582F8E622BBFE06E92582F8E222BD
:0D016100E58229F582E5833AF583E49322D7
:10016E00BB010FF8E58229F582E5833AF583E02895
:10017E00F0225009C58229F8E58226F622BBFE0937
:10018E00C58229F8E22582F222F8EA2583F583E971
:03019E0093282281
:1001A100F8BB010DE58229F582E5833AF583E8F094
:1001B100225006E92582C8F622BBFE05E92582C840
:0201C100F22228
:1001C300C5F0F8A3E028F0C5F0F8E58215827002C7
:0601D3001583E038F02264
:1001D900A3F8E0C5F025F0F0E582158270021583D9
:0601E900E0C838F0E82236
:1001EF00BB0110E58229F582E5833AF583E0F5F04E
:1001FF00A3E0225009E92582F886F008E622BBFE2B
:10020F000AE92582F8E2F5F008E222E5832AF58370
:08021F00E993F5F0A3E9932235
:10022700BB010DC58229C582C5833AC5830201C3B7
:100237005011C58229F808E5F026F618F5F0E58291
:1002470036F622BBFE11C58229F808E225F0F5F043
:10025700F218E23582F222F8E58229F582E5832A4F
:0D026700F58374019325F0F5F0E49338223F
:10027400F8BB0111E58229F582E5833AF583E8F0BC
:10028400E5F0A3F0225009E92582C8F608A6F02279
:0D029400BBFE09E92582C8F2E5F008F22260
:1002A10075F008758200EF2FFFEE33FECD33CDCC14
:1002B10033CCC58233C5829BED9AEC99E582984097
:1002C1000CF582EE9BFEED9AFDEC99FC0FD5F0D674
:1002D100E4CEFBE4CDFAE4CCF9A88222B800C1B99E
:1002E1000059BA002DEC8BF084CFCECDFCE5F0CBDC
:1002F100F97818EF2FFFEE33FEED33FDEC33FCEB15
:1003010033FB10D703994004EB99FB0FD8E5E4F9CF
:10031100FA227818EF2FFFEE33FEED33FDEC33FCBC
:10032100C933C910D7059BE99A4007EC9BFCE99AB0
:10033100F90FD8E0E4C9FAE4CCFB2275F010EF2FF5
:10034100FFEE33FEED33FDCC33CCC833C810D707F5
:100351009BEC9AE899400AED9BFDEC9AFCE899F830
:0E0361000FD5F0DAE4CDFBE4CCFAE4C8F922C3
:10036F00EB9FF5F0EA9E42F0E99D42F0E89C45F0E4
:01037F00225B
:10038000E8600FECC313FCED13FDEE13FEEF13FF5B
:03039000D8F1227F
:0C039300ECF0A3EDF0A3EEF0A3EFF022DD
:10039F00BB010789828A8302040C5005E9F8020425
:1003AF0003BBFE05E9F802043589828A8302043E05
:0603BF008A838982E473C9
:10047000E5082426F582E43401F583E0050822909E
:100480000123300703900126E475F00112041502E0
:1004900001042000E97F2ED2008018EF540F249031
:1004A000D43440D4FF30040BEF24BFB41A005003FF
:1004B0002461FFE50960021509050CE50C700205D1
:1004C0000B30070E900123E475F001120415EF02C2
:1004D00003F10222337403D2078003E4C207F50854
:1004E00090012312042CE4F509F50BF50CE50960E5
:1004F000077F201204B380F5750AFFC201C200C253
:1005000002C203C205C206C20812047FFF700D308A
:1005100007057F001204C4AF0CAE0B22B4255FC2E6
:10052000D5C20412047FFF24D0B40A00501A75F01B
:100530000A780930D50508B6FF0106C6A426F620BC
:10054000D5047002D20380D924CFB41A00EF50042E
:10055000C2E5D2040206C5D20180C6D20080C0D254
:100560000280BCD2D580BAD20580B47F201204B3F9
:100570002002077401B5090040F1120470FF120453
:10058000B30204EDD208D2068095120470FB120467
:1005900070FA120470F94A4B700679967A077BFF5D
:1005A00020022EE509602A7E008E827583001201EA
:1005B0004160060EEE650A70F0C2D5EBC0E0EAC0FD
:1005C000E0E9C0E0EE12070CD0E0F9D0E0FAD0E0AC
:1005D000FB120104FF60AAEBC0E0EAC0E0E9C0E062
:1005E0001204B3D0E02401F9D0E03400FAD0E0FBEB
:1005F000E50A0460DCD50AD980877BFF7A07790891
:10060000D202809C791080027908C206C208800854
:10061000D2D5790A8004790AC2D5E50A047002F5B8
:100620000AE4FAFDFEFF120470FC7B08200113129D
:100630000470FD7B1030000A120470FE120470FF7B
:100640007B20EC3382D592D55013C3E43000069F53
:10065000FFE49EFEE42001039DFDE49CFCE4CBF856
:10066000C201EC700CCFCECDCCE824F8F870F3804A
:1006700017C3EF33FFEE33FEED33FDEC33FCEB330A
:10068000FB994002FB0FD8E9EB300105F8D0E0C43C
:1006900048B201C0E00AEC4D4E4F78207B0070C29A
:1006A000EAB50A0040BCC0E012070ED0F0D0E0204E
:1006B0000104C4C0E0C4B201C0F012049CD0F0D563
:1006C000F0EB0204ED12044A058A53060458055B58
:1006D0004C05574206084F06104406104905704362
:0806E00006165505FA4605FA5D
:1006E8004505FA4707B650055F2D05632E05862B8D
:1006F800056723058420079F2A051F480000057EFB
:100708003F3F3F00790AA2D5200314300509B910EC
:10071800020404B9080104A2D520060250010420ED
:1007280002689202B509005034C0E07F20300319F6
:100738007F30A20272067205500F120765C202C20C
:1007480006C205C2087F30800F300503E9C0E012F9
:1007580004B3300503D0E0F9D0E0B509CC30051773
:100768007F30B9100C1204B37F583004077F7880AB
:1007780003B908031204B33002057F2D0204B37FC6
:10078800202008F87F2B2006F322920280CF286EC3
:10079800756C6C2900D2011204703001F8C201781E
:1007A8000930D50108F602051F2D50434958120497
:1007B800702403B405004001E49007B1931204A427
:0D07C800743A1204A4D20375090402060459
:1003C500EF4E6012EF60010EEDBB010B89828A834F
:1003D500F0A3DFFCDEFA2289F05007F709DFFCA95C
:0C03E500F022BBFEFCF309DFFCA9F022B3
:1003F100BB010689828A83F0225002F722BBFE01EB
:02040100F322E4
:09040300E6FB08E6FA08E6F9221E
:09040C00E0FBA3E0FAA3E0F922F1
:10041500F8E0FBA3A3E0F925F0F0E5821582700270
:070425001583E0FA38F02214
:09042C00EBF0A3EAF0A3E9F022D1
:09043500E2FB08E2FA08E2F922F8
:0C043E00E493FB740193FA740293F9221A
:10044A00D083D082F8E4937012740193700DA3A341
:10045A0093F8740193F5828883E473740293686055
:06046A00EFA3A3A380DF55
:10223300EFB40A07740D12223E740A309811A8995C
:10224300B8130CC2983098FDA899C298B811F6300B
:0722530099FDC299F59922E3
:00000001FF
