:041C07004101F100A6
:10198C00E4900169F0122076122208121EAE90012A
:10199C00A7E06002E4F09001A9E06005E4F0121FFA
:1019AC00C39001ABE06008E4F0121DCD1215289035
:1019BC0001ADE06002E4F09001B0E06010E4F09062
:1019CC000169E004F0E0D394054002E4F0121E3308
:0E19DC0090016AEFF060B7E0FF120B1680B0CA
:0C20B0009001A1EBF0A3EAF0A3E9F022FC
:0C20BC009001A4EBF0A3EAF0A3E9F022ED
:102056009001A1A3E0FAA3E0F94A60031203BF22AC
:102066009001A4A3E0FAA3E0F94A60031203BF2299
:101E0100EF4E602D900197EEF0A3EFF0AF05A3EC3C
:101E1100F0A3EFF0AF03A3EAF0A3EFF0E4A3F0A384
:101E2100F0A3F0A3F0900196F090019504F0122038
:021E3100562237
:101FF700E4900195F01220667B007A0079001220A8
:04200700B00220BC47
:10152800900195E070030215DC900199E0FEA3E0BC
:10153800FF4E70030215DC900196E07035D3EF94EE
:1015480000EE940050030215DC90019DE475F00153
:101558001201C3FED3900198E095F0900197E09EA8
:101568005072122066E490019DF0A3F09001960459
:10157800F022900196E06401705A90019D75F00187
:101588001201C3FED390019AE095F0900199E09E74
:10159800504290019BE0FEA3E0FF9400EE940040CF
:1015A8002590019FE475F0011201C3FCD3EF95F07B
:1015B800EE9C5005E4900195F0900195E07007903D
:1015C8000199F0A3F022E490019DF0A3F090019618
:0515D800F01220562274
:101C0B0041012800500129000000000000000000E5
:101C1B000000000000000050011800000000000050
:101C2B000000000000000000000048013900000027
:051C3B000000000000A4
:101EAE00E4900128F0FE7F10FD7B017A0179291262
:101EBE0003C57E007F107D007B017A017918120325
:071ECE00C512106A02209406
:0E18640090016EEBF0A3EAF0A3E9F0A3EDF023
:10187200E4A3F0EDD39410504D9001287401F09040
:10188200016EE0FBA3E0FAA3E0F974019001186B8A
:101892007008E965827003EA6583602A7E007F1022
:1018A2007D007B017A0179181203C5900171E0FF76
:1018B2007E0078187C017D0190016EE0FBA3E0FAC6
:0618C200A3E0F91200DEB4
:0118C80022FD
:0C20C8009001E9EBF0A3EAF0A3E9F0229C
:101DCD00900128E0602D1220EAEF24F0601424D059
:101DDD006010242070121220D41221E8E490012802
:101DED00F0221220D40221E87B017A0179187D10AE
:041DFD00121C9C22F6
:1018C9009001ECEBF0A3EAF0A3E9F0AE05E4900196
:1018D900EFF0AF061EEF60469001EFE0FF9001ECDC
:1018E900E0FBA3E475F0011201D9A9F0FA12010491
:1018F9006F9001EFF0E4A3F09001F0E0C394085079
:10190900D19001EFE030E007C313648CF0800790B9
:1019190001EFE0C313F09001F0E004F080DA9001E8
:04192900EFE0FF22CA
:101677009001B3EBF0A3EAF0A3E9F0AE05E4900123
:10168700EFF0AF061EEF606B9001EFE0FF9001B344
:10169700E0FBA3E475F0011201D9A9F0FA120104E5
:1016A7006F9001EFF09001B7E004F0A3E0FF900125
:1016B700B7E0C39F4012E4F0EFFDE49DFDE4940022
:1016C7009001B48DF01201C3E49001F0F09001F0A5
:1016D700E0C3940850AC9001EFE030E007C3136417
:1016E7008CF080079001EFE0C313F09001F0E00465
:0916F700F080DA9001EFE0FF221F
:0122080022B3
:0A20E000E42FFFEE343CFE020D6F0A
:0122090022B2
:01220A0022B1
:041C40004101F2006C
:06145D007B017A01796CAD
:0E14630090016EEFF0A3EBF0A3EAF0A3E9F026
:10147100E4A3F0121FF77BFF7A2279021220B07BDE
:10148100FF7A2279051220BC7B017A007D017C0064
:101491007F037E00121E0190016FE0FBA3E0FAA31F
:1014A100E0F9740112011D2418F582E43401F58379
:1014B10074F2F0740112011D2418F582E43401F56F
:1014C100837401F090016EE0FF740112011D241874
:1014D100F582E43401F583EFF0E4900172F09001BC
:1014E10019E02401FFE433FE900172E0FDC39FEE99
:1014F1006480F8748098502E74192DF582E43401BB
:10150100F583E0FF90016FE0FBA3E0FAA3E0F9129D
:1015110001042418F582E43401F583E02FF09001F1
:0615210072E004F080B846
:0115270022A1
:050B160090016BEFF0FF
:100B1B00E4A3F0A3F090016CF0FE7F10FD7B017A53
:100B2B000179181203C590016BE024FEB446004016
:100B3B0003020D5B900B4D75F003A4C58325F0C527
:100B4B008373020C1F020C2C020C49020C3C020C8E
:100B5B005D020D5B020C6D020C80020CA9020C9065
:100B6B00020CBD020D5B020CCD020D5B020D5B0294
:100B7B000D5B020D5B020CD8020D5B020D5B020DCF
:100B8B005B020D5B020D5B020D5B020D5B020D5BED
:100B9B00020CE2020D5B020D5B020D5B020CEC0220
:100BAB000D5B020CF6020D5B020D5B020D5B020D81
:100BBB005B020D5B020D00020D5B020D5B020D0A69
:100BCB00020D5B020D5B020D14020D5B020D5B024D
:100BDB000D5B020D5B020D5B020D1E020D5B020D28
:100BEB005B020D5B020D5B020D5B020D28020D5BC0
:100BFB00020D5B020D32020D5B020D5B020D5B02FF
:100C0B000D3C020D5B020D5B020D46020D5B020DEE
:100C1B005B020D509001F2E070227F5012145D8048
:100C2B00759001F27401F0FB7A01796C7F70020D03
:100C3B00589001F2E070057F5112145D80589001BD
:100C4B00F2E07003020D5B7B017A01796C7F71021C
:100C5B000D589001F27401F0FB7A01796C7F7102EF
:100C6B000D589001F2E0700B7B017A01796C7F5289
:100C7B0012146380219001F27401F0FB7A01796CFC
:100C8B007F72020D589001F2E0700B7B017A0179B3
:100C9B006C7F53121463E49001F2F0020D5B900130
:100CAB00F2E07003020D5B7B017A01796C7F7302BA
:100CBB000D589001F27401F0FB7A01796C7F73028D
:100CCB000D587B017A01796C7F54020D587B017AA8
:100CDB0001796C7F5580767B017A01796C7F568028
:100CEB006C7B017A01796C7F5780627B017A017989
:100CFB006C7F5880587B017A01796C7F59804E7BD1
:100D0B00017A01796C7F5A80447B017A01796C7F7F
:100D1B005B803A7B017A01796C7F5C80307B017A56
:100D2B0001796C7F5D80267B017A01796C7F5E8017
:100D3B001C7B017A01796C7F5F80127B017A0179D0
:100D4B006C7F6080087B017A01796C7F6112146380
:100D5B0090016CE0600D04F07B017A017918E0FDE5
:030D6B00121864F7
:010D6E002262
:0F20760012200B1221071221FC121F69D2AF2278
:081C44004101B1004101B200B1
:101F69001220855389F0438901538EF79001B1748A
:101F7900FAF0A374C4F0758CFAF58AD2A9D28C222E
:0F2085007E007F0A7D007B017A0179A70203C5E7
:03000B00021700D9
:10170000C0E0C0F0C083C082C0D075D000C000C0AF
:10171000069001B1E0F58CA3E0F58A9001A7740171
:10172000F0A3E004F0C3940A4005E4F0A304F090B1
:1017300001AAE004F0C394644005E4F0A304F0902F
:1017400001ACE004F0C394F4748094814005E4F0AB
:10175000A304F09001AEE475F0011201C3FEC3E5ED
:10176000F094E8EE9403400A9001AEE4F0A3F0A3F5
:1017700004F0D006D000D0D0D082D083D0F0D0E01A
:011780003236
:101F22000A6D679C46F6375D4521EFAC5A50010BAE
:101F3200DF020A6D679C46F6375D4521EFAC5A50C9
:041F4200E10BDF02CE
:081C4C004501C4CCCCCCCCCC8A
:10200B0053B3FE43B40153B3FD43B40253B1FE4388
:03201B00B20122ED
:01220B0022B0
:101F8900E4FEC290EF30E704D2808002C280EF25E0
:0C1F9900E0FFD290000EEEB408E8C29009
:011FA5002219
:04201E00E4FD7FFC62
:0F202200C29100121F89AF05121F8900D29122AF
:0A1C59007B019001817405F07F3FCC
:0B1C630090017EEBF0A3EAF0A3E9F093
:101C6E00C291E4FD121F89900181E0FFEDC39F50E8
:101C7E001A90017EE0FBA3E0FAA3E0F98D82758352
:0D1C8E0000120141FF121F890D80DCD29170
:011C9B002226
:101F4600E4FEC290EF30E704D2808002C280EF2523
:101F5600E0FFD290000EEEB408E843B10153B2FEA2
:021F6600C29027
:011F68002256
:101FDE00E4FFFEC290EF25E0FFD290308003440173
:081FEE00FF0EEEB408EDC290F5
:011FF60022C8
:10203100C29100121F46121FDE53B1FE43B20100CE
:02204100D2913A
:01204300227A
:0B1CDF009001C0EBF0A3EAF0A3E9F0D5
:101CEA00C291121F46E4FD9001C3E0FFEDC39F506D
:101CFA001A121FDE9001C0E0FBA3E0FAA3E0F98DFF
:101D0A0082758300EF1201A10D80DC53B1FE43B24C
:031D1A0001D29162
:011D1D0022A3
:0E20940012201E7D8E7F2012202200000022CE
:101EFC00E4FEFD7FFC1220227D8F7F20122022E445
:101F0C00FD7FFD122022E4FEFF000FBF00010EBE7C
:051F1C0013F7BF88F47B
:011F2100229D
:0A20EA007F07122031EF5470FF222F
:0621F6007F0912203122D6
:0721E8007D707F2702202219
:0C20D400E4FD7FE11220227FE2022022C6
:0E20A200AC0712201EAF04AD077F25022022DE
:061C9C001220EAEF703C8B
:101CA20090016BF0A3F0900181EDF07FA0121C6314
:101CB200E4FD7FFD122022E490016BF0A3F000907E
:101CC200016CE004F0700690016BE004F090016B8F
:0C1CD200E07004A3E064C870E512201E5E
:011CDE0022E3
:101E5D00AC051220EAEF30E61D12201E9001C3ECF6
:101E6D00F07F61121CDF1220D41221E8E4FD7FFD0A
:091E7D001220227F01227F0022C5
:10106A00786B7C017D017BFF7A1F79227E007F05E8
:10107A001200DE78707C017D017BFF7A1F79277E62
:10108A00007F031200DE78737C017D017BFF7A1FEB
:10109A00792A7E007F061200DE78797C017D017B49
:1010AA00FF7A1F79307E007F011200DE787A7C0198
:1010BA007D017BFF7A1F79317E007F031200DE12E9
:1010CA00220B7D5A7F531220227DA57F53122022A4
:1010DA007D207F3D12202212201E7FE11220227FD6
:1010EA00E21220227D707F271220227D017F2212A8
:1010FA0020227D037F231220227D4E7F251220226B
:10110A007D107F311220227B017A0179C4900181FE
:10111A007405F07F30121C637B017A0179C4900157
:10112A00817405F07F2A121C637A01796B121C59AB
:10113A007B017A0179739001817406F07F3A121C5F
:10114A00637B017A0179799001817401F07F391208
:10115A001C637B017A0179709001817403F07F3EF0
:10116A00121C637B017A01797A9001817403F07F02
:10117A003B121C63E4FD7F3C1220227D3F7F261236
:0E118A002022E4FD7F241220227F2102202259
:0512AA00900182EFF04D
:1012AF00E478837C017D017BFF7A1F7934FE7F0513
:1012BF001200DE78887C017D017BFF7A1F79397EF1
:1012CF00007F031200DE788B7C017D017BFF7A1F8C
:1012DF00793C7E007F061200DE78917C017D017BD8
:1012EF00FF7A1F79427E007F011200DE78927C0127
:1012FF007D017BFF7A1F79437E007F031200DE7D25
:10130F005A7F531220227DA57F531220227D207FEA
:10131F003D12202212201EE4FF000000000FEFB448
:10132F00DCF7900182E0FD7F251220227D3F7F2692
:10133F001220227A017983121C597B017A01798B51
:10134F009001817406F07F3A121C637B017A017958
:10135F00919001817401F07F39121C637B017A0136
:10136F0079889001817403F07F3E121C637B017AB0
:0E137F000179929001817403F07F3B021C63A0
:041C54004101BB008F
:01220C0022AF
:100D6F00AB07AA06A9059001BCEFF0C3948050040D
:100D7F00E4F080069001BC7480F09001B9E4F0A318
:100D8F007480F09001BCE07C002400FEEC3AA3F0EC
:100D9F00A3CEF09001B9E0FEA3E0FF7003EE640173
:100DAF0060369001BDE0FCA3E0F5828C83E4938F65
:100DBF00828E83F09001BBE004F09001BAE004F062
:100DCF0070069001B9E004F09001BEE004F070C32A
:100DDF009001BDE004F080BBAF039001BCEFF0C306
:100DEF009480500FE02480FEE4339001B9F0A3CE3D
:100DFF00F0800D9001BCE0FF9001B9E4F0A3EFF09B
:100E0F009001B9E0FCA3E0F5828C83E9F0AD038D8E
:100E1F00A6EAFFF5A775AEFFA2AF9209C2AF75C7DD
:100E2F00AA75C755439F01A20992AFA2AF9209C2FB
:100E3F00AF75C7AA75C75543A501A20992AF75AF84
:100E4F0022A2AF9209C2AF75C7AA75C75543A401B5
:100E5F00A20992AF9001BCEDF0C394805004E4F06E
:100E6F0080069001BC7480F09001B9E4F0A3748007
:100E7F00F09001BCE0F5A68FA7A2AF9209C2AF75A3
:100E8F00C7AA75C755439F01A20992AFA2AF920996
:100E9F00C2AF75C7AA75C75543A501A20992AF7511
:100EAF00AF219001B9E0FEA3E0FFF44E602C8F82DA
:100EBF008E83E0F5AEA2AF9209C2AF75C7AA75C710
:100ECF005543A401A20992AF05A69001BAE004F020
:100EDF0070D09001B9E004F080C8A2AF9209C2AF00
:100EEF0075C7AA75C75553A5FEA20992AFA2AF92B7
:100EFF0009C2AF75C7AA75C755539FFEA20992AF16
:010F0F0022BF
:040003008F828E83D7
:03000700E493FF80
:01000A0022D3
:10138D00E4FED282D283D284D285D286D287D29401
:10139D00D295D296D297EF14603114604614605BEB
:1013AD001460701470030214382405600302145A7B
:1013BD00C282ED14600F14600E14600D24036003DF
:1013CD0002145A80768078807A807CC283ED146016
:1013DD000C14600B14600A24037072805E806080B0
:1013ED00628064C284ED14600C14600B14600A24D6
:1013FD0003705A80468048804A804CC285ED146047
:10140D000C14600B14600A24037042802E8030800F
:10141D00328034C286ED14600C14600B14600A2403
:10142D0003702A80168018801A801CC287ED146004
:10143D000E14600F14601024037012A297800AA27C
:0F144D00968006A2958002A294B3E433FEAF0608
:01145C00226D
:0721EF00E4FDFF12138D2235
:082110007D01E4FF12138D2292
:082118007D02E4FF12138D2289
:082120007D03E4FF12138D2280
:08212800E4FD7F0112138D227A
:082130007D017F0112138D22D5
:082138007D027F0112138D22CC
:082140007D037F0112138D22C3
:08214800E4FD7F0212138D2259
:082150007D017F0212138D22B4
:082158007D027F0212138D22AB
:082160007D037F0212138D22A2
:08216800E4FD7F0312138D2238
:082170007D017F0312138D2293
:082178007D027F0312138D228A
:082180007D037F0312138D2281
:08218800E4FD7F0412138D2217
:082190007D017F0412138D2272
:082198007D027F0412138D2269
:0821A0007D037F0412138D2260
:0821A800E4FD7F0512138D22F6
:0821B0007D017F0512138D2251
:0821B8007D027F0512138D2248
:0821C0007D037F0512138D223F
:0621FC001207D5021D1EB2
:101FA600900116E0240BF582E43401F583EFF090FE
:0D1FB6000116E004F0C3940A4002E4F0229A
:101E3300900116E0FF900115E0FEB507037F002235
:101E4300740B2EF582E43401F583E0FF900115E075
:091E530004F0C3940A4002E4F01B
:011E5C002263
:101E8600900116E0FFA3E0FEB507037F0022740B66
:101E96002EF582E43401F583E0FF900117E004F0AB
:071EA600C3940A4002E4F0BE
:011EAD002212
:1020440075F00BEFA4240BF582E5F03400F583E082
:02205400FF2269
:101D960075F00BEFA42409F582E5F03400F583EC29
:101DA600F0A3EDF075F00BEFA4240CF582E5F0340A
:101DB60000F583EBF075F00BEFA4240DF582E5F04A
:071DC6003400F583E4F02274
:0920FE00900116E0900115F0229A
:101D1E0053B1FB53B2FB53B1F753B2F753B1EF5379
:101D2E00B2EF53B1DF53B2DF53B1BF53B2BF53B1B2
:101D3E007F53B27F53B3EF53B4EF53B3DF53B4DFDC
:0D1D4E0053B3BF53B4BF53B37F53B47F22D0
:1007D500E47E017F08FD7B017A0079031203C5E4FD
:1007E500900115F0A3F0A3F0FF75F00BEFA4240919
:1007F500F582E5F03400F583E4F0A37446F075F076
:100805000BEFA42406F582E5F03400F5837402F0BD
:1008150075F00BEFA4240BF582E5F03400F583E4C5
:10082500F075F00BEFA4240CF582E5F03400F583A8
:10083500E4F075F00BEFA4240DF582E5F03400F536
:1008450083E4F00FEFB418A19000177428F090001E
:100855002DF090004EF09000A6F090006FF0900003
:1008650085F090009BF09000C7F09000B1F09000EB
:10087500DDF0E4FF0F75F00BA42403F582E5F034F9
:1008850000F58374FFF0A37421F0A374EFF00F75E6
:10089500F00B7401A42403F582E5F03400F58374AC
:1008A500FFF0A37421F0A37410F00F75F00B740220
:1008B500A42403F582E5F03400F58374FFF0A374F6
:1008C50021F0A37418F00F75F00B7403A42403F53D
:1008D50082E5F03400F58374FFF0A37421F0A3746E
:1008E50020F00F75F00B7404A42403F582E5F034B1
:1008F50000F58374FFF0A37421F0A37428F00F753D
:10090500F00B7405A42403F582E5F03400F5837437
:10091500FFF0A37421F0A37430F00F75F00B74068B
:10092500A42403F582E5F03400F58374FFF0A37485
:1009350021F0A37438F00F75F00B7407A42403F5A8
:1009450082E5F03400F58374FFF0A37421F0A374FD
:1009550040F00F75F00B7408A42403F582E5F0341C
:1009650000F58374FFF0A37421F0A37448F00F75AC
:10097500F00B7409A42403F582E5F03400F58374C3
:10098500FFF0A37421F0A37450F00F75F00B740AF7
:10099500A42403F582E5F03400F58374FFF0A37415
:1009A50021F0A37458F00F75F00B740BA42403F514
:1009B50082E5F03400F58374FFF0A37421F0A3748D
:1009C50060F00F75F00B740CA42403F582E5F03488
:1009D50000F58374FFF0A37421F0A37468F00F751C
:1009E500F00B740DA42403F582E5F03400F583744F
:1009F500FFF0A37421F0A37470F00F75F00B740E63
:100A0500A42403F582E5F03400F58374FFF0A374A4
:100A150021F0A37478F00F75F00B740FA42403F57F
:100A250082E5F03400F58374FFF0A37421F0A3741C
:100A350080F00F75F00B7410A42403F582E5F034F3
:100A450000F58374FFF0A37421F0A37488F00F758B
:100A5500F00B7411A42403F582E5F03400F58374DA
:100A6500FFF0A37421F0A37490F00F75F00B7412CE
:100A7500A42403F582E5F03400F58374FFF0A37434
:100A850021F0A37498F00F75F00B7413A42403F5EB
:100A950082E5F03400F58374FFF0A37421F0A374AC
:100AA500A0F00F75F00B7414A42403F582E5F0345F
:100AB50000F58374FFF0A37421F0A374A8F00F75FB
:100AC500F00B7415A42403F582E5F03400F5837466
:100AD500FFF0A37421F0A374B0F00F75F00B74163A
:100AE500A42403F582E5F03400F58374FFF0A374C4
:100AF50021F0A374B8F075F00BEFA42403F582E59B
:100B0500F03400F58374FFF0A37421F0A374C0F0F2
:010B150022BD
:100F100090016CEFF0E075F00BA42403F974003538
:100F2000F0FA7B01900000EBF0A3EAF0A3E9F012E5
:100F3000039F1203BFEF7003021002900000E0FB5A
:100F4000A3E0FAA3E0F9900003120141FFC3940566
:100F500050089000037405021066EFC3940A50080D
:100F6000900003740102016E900008120141701498
:100F7000900008041201A190016CE075F003A40434
:100F8000FF121FA6900000E0FBA3E0FAA3E0F99097
:100F900000061201EFFFAEF0D39400EE9400500370
:100FA0000210699000041201EFC39FE5F09E5023E8
:100FB000900004E475F001120227FCE5F06F700266
:100FC000EC6E600302106990016CE075F003A424DC
:100FD00003802B900009120141FFD39400500302BB
:100FE000106990000A740112016EC39F407B90004B
:100FF0000AE41201A190016CE075F003A404FF0261
:101000001FA6900000E0FBA3E0FAA3E0F990000324
:10101000120141FFD39405400A90000374051201A8
:10102000A1802BEF600A90000374FF12016E801EF6
:10103000900008120141B40115900008E41201A1CA
:1010400090016CE075F003A42402FF121FA690002B
:1010500000E0FBA3E0FAA3E0F9900004E4F5F0124D
:0A106000027490000AE41201A122BC
:101FC300E490016BF090016BE0FFC39418500B1287
:0A1FD3000F1090016BE004F080EBAA
:011FDD0022E1
:0921070053ACFE43AD01022205B8
:03220200D2B02235
:03220500C2B02242
:0A20F400EF6003022202122205220F
:101D5B0053B1BF53B2BF53B17F53B27F759850434A
:101D6B008920438780438E1053C4DFAB07AA06A993
:101D7B0005A8047F407E427D0F7C001202DDEF043C
:0B1D8B00F404F58DD28ED299D2AC2268
:101781009001C912039353B1BF53B2BF53B17F53F9
:10179100B27F75985043878053C4F843C4209001A9
:1017A100C9E0F8A3E0F9A3E0FAA3E0FB7F407E42A1
:1017B1007D0F7C001202DDC374FF9FFF74FF9EFE4C
:1017C100E49DFDE49CFC78081203808FC69001C95A
:1017D100E0F8A3E0F9A3E0FAA3E0FB7F407E427DBD
:1017E1000F7C001202DDC374FF9FFF8FC543C40845
:0517F100D299D2AC22E8
:0721C8003098FDAF99C298A9
:0121CF0022ED
:0821D000C2998F993099FD229C
:1017F6009001CD12039353B1FB53B2FB53B3BF53C6
:10180600B4BF75F85075C40853C4DF9001CDE0F835
:10181600A3E0F9A3E0FAA3E0FB7F407E427D0F7CC4
:10182600001202DDC374FF9FFF74FF9EFEE49DFD60
:10183600E49CFC78081203808FC69001CDE0F8A3E3
:10184600E0F9A3E0FAA3E0FB7F407E427D0F7C0037
:0E1856001202DDC374FF9FFF8FC543C408223A
:0721D80030F8FDAF9AC2F8D8
:0121DF0022DD
:0821E000C2F98F9A30F9FD22CB
:101AFC009001D1120393538EF7438901D28CE4FFEA
:101B0C00FEFDFC9001D1E0F8A3E0F9A3E0FAA3E01C
:101B1C00FBC312036F602F758A7E758CFF308DFDB1
:101B2C00C28D9001D1E0FCA3E0FDA3E0FEA3E02474
:101B3C00FFFFEE34FFFEED34FFFDEC34FFFC9001B3
:091B4C00D112039380B8C28C226F
:101B55009001D5120393538EF7438901D28CE4FF8C
:101B6500FEFDFC9001D5E0F8A3E0F9A3E0FAA3E0BF
:101B7500FBC312036F602F758ACA758CFA308DFD11
:101B8500C28D9001D5E0FCA3E0FDA3E0FEA3E02417
:101B9500FFFFEE34FFFEED34FFFDEC34FFFC90015A
:091BA500D512039380B8C28C2212
:101BAE009001D9120393538EEF438910D28EE4FF26
:101BBE00FEFDFC9001D9E0F8A3E0F9A3E0FAA3E062
:101BCE00FBC312036F602F758BEA758DCB308FFDC3
:101BDE00C28F9001D9E0FCA3E0FDA3E0FEA3E024B8
:101BEE00FFFFEE34FFFEED34FFFDEC34FFFC900101
:091BFE00D912039380B8C28E22B3
:1019EA009001DD12039353C9BF53C9DF43C910D213
:1019FA00CAE4FFFEFDFC9001DDE0F8A3E0F9A3E0F4
:101A0A00FAA3E0FBC312036F602F75CC3075CDF8D3
:101A1A0030CFFDC2CF9001DDE0FCA3E0FDA3E0FEE4
:101A2A00A3E024FFFFEE34FFFEED34FFFDEC34FFAC
:0C1A3A00FC9001DD12039380B8C2CA22A8
:101A46009001E112039375C40743C408E4FFFEFD49
:101A5600FC9001E1E0F8A3E0F9A3E0FAA3E0FBC300
:101A660012036F603275C52C75C6CFE5C430E4FB32
:101A760053C4EF9001E1E0FCA3E0FDA3E0FEA3E088
:101A860024FFFFEE34FFFEED34FFFDEC34FFFC9047
:0B1A960001E112039380B553C4F72256
:101AA1009001E512039375C40743C408E4FFFEFDEA
:101AB100FC9001E5E0F8A3E0F9A3E0FAA3E0FBC3A1
:101AC10012036F603275C5D875C6FFE5C430E4FBFB
:101AD10053C4EF9001E5E0FCA3E0FDA3E0FEA3E029
:101AE10024FFFFEE34FFFEED34FFFDEC34FFFC90EC
:0B1AF10001E512039380B553C4F722F7
:101198000A3D3D3D3D3D3D3D3D3D3D3D3D3D3D3DAA
:1011A8003D3D3D3D3D3D3D3D3D3D3D3D3D3D3D3D67
:1011B8003D3D3D3D3D3D3D3D3D3D3D3D3D3D3D3D57
:1011C8003D3D3D3D3D3D3D3D3D3D3D3D3D3D3D3D47
:1011D8003D3D3D3D3D000A2A2020436F70797269EC
:1011E8006768742863292032303135204E75766F50
:1011F800746F6E20546563686E6F6C6F67792043F7
:101208006F72702E20416C6C20726967687473204D
:1012180072657365727665642E2020000A2A202084
:10122800436F6E7461637420452D4D61696C3A207B
:101238004D6963726F432D38626974406E75766FBD
:10124800746F6E2E636F6D202020202020202020B8
:101258002020202020202020202020202020202086
:1012680020000A2A202044656D6F20566572736934
:101278006F6E20203A202532642E2532642E2532C6
:1012880064000A2A202046696E69736865642044F0
:10129800617465203A202532642E2532642E253269
:0212A8006400E0
:10192D007BFF7A1179981204DB7BFF7A1179DE1235
:10193D0004DB7BFF7A1279241204DB7BFF7A1279A8
:10194D006A900144E4F0A304F0E4A3F0A3F0A3F043
:10195D00A3F01204DB7BFF7A12798A90014474079D
:10196D00F0A374DFF0A3E4F0A37405F0A3E4F0A3F7
:0F197D00741FF01204DB7BFF7A1179980204DBF0
:030000000215DD09
:1015DD00787FE4F6D8FD9000007FFF7E03E4F0A352
:0A15ED00DFFCDEFA758121021632E0
:1015F70002198CE493A3F8E493A34003F68001F265
:1016070008DFF48029E493A3F85407240CC8C333F4
:10161700C4540F4420C8834004F456800146F6DFC3
:10162700E4800B0102040810204080901C07E47E30
:10163700019360BCA3FF543F30E509541FFEE493B8
:10164700A360010ECF54C025E060A840B8E493A37F
:10165700FAE493A3F8E493A3C8C582C8CAC583CAAA
:10166700F0A3C8C582C8CAC583CADFE9DEE780BE62
:011C5800008B
:10000E00E709F608DFFA8046E709F208DFFA803ED4
:10001E0088828C83E709F0A3DFFA8032E309F608C1
:10002E00DFFA8078E309F208DFFA807088828C8329
:10003E00E309F0A3DFFA806489828A83E0A3F608DD
:10004E00DFFA805889828A83E0A3F208DFFA804CB7
:10005E0080D280FA80C680D4806980F2803380108E
:10006E0080A680EA809A80A880DA80E280CA8033F7
:10007E0089828A83ECFAE493A3C8C582C8CCC5836F
:10008E00CCF0A3C8C582C8CCC583CCDFE9DEE7803F
:10009E000D89828A83E493A3F608DFF9ECFAA9F0BE
:1000AE00EDFB2289828A83ECFAE0A3C8C582C8CC14
:1000BE00C583CCF0A3C8C582C8CCC583CCDFEADE2D
:1000CE00E880DB89828A83E493A3F208DFF980CC8F
:1000DE0088F0EF60010E4E60C388F0ED2402B40488
:1000EE000050B9F582EB2402B4040050AF2323452F
:0600FE00822390005E73F6
:10010400BB010689828A83E0225002E722BBFE02F9
:09011400E32289828A83E493222C
:10011D00BB010B89828A83F8E0C828F0E8225003DE
:10012D0027C722BBFE07F8E3C828F3E8228A838994
:04013D0082E49322A3
:10014100BB010CE58229F582E5833AF583E0225073
:1001510006E92582F8E622BBFE06E92582F8E222BD
:0D016100E58229F582E5833AF583E49322D7
:10016E00BB010FF8E58229F582E5833AF583E02895
:10017E00F0225009C58229F8E58226F622BBFE0937
:10018E00C58229F8E22582F222F8EA2583F583E971
:03019E0093282281
:1001A100F8BB010DE58229F582E5833AF583E8F094
:1001B100225006E92582C8F622BBFE05E92582C840
:0201C100F22228
:1001C300C5F0F8A3E028F0C5F0F8E58215827002C7
:0601D3001583E038F02264
:1001D900A3F8E0C5F025F0F0E582158270021583D9
:0601E900E0C838F0E82236
:1001EF00BB0110E58229F582E5833AF583E0F5F04E
:1001FF00A3E0225009E92582F886F008E622BBFE2B
:10020F000AE92582F8E2F5F008E222E5832AF58370
:08021F00E993F5F0A3E9932235
:10022700BB010DC58229C582C5833AC5830201C3B7
:100237005011C58229F808E5F026F618F5F0E58291
:1002470036F622BBFE11C58229F808E225F0F5F043
:10025700F218E23582F222F8E58229F582E5832A4F
:0D026700F58374019325F0F5F0E49338223F
:10027400F8BB0111E58229F582E5833AF583E8F0BC
:10028400E5F0A3F0225009E92582C8F608A6F02279
:0D029400BBFE09E92582C8F2E5F008F22260
:1002A10075F008758200EF2FFFEE33FECD33CDCC14
:1002B10033CCC58233C5829BED9AEC99E582984097
:1002C1000CF582EE9BFEED9AFDEC99FC0FD5F0D674
:1002D100E4CEFBE4CDFAE4CCF9A88222B800C1B99E
:1002E1000059BA002DEC8BF084CFCECDFCE5F0CBDC
:1002F100F97818EF2FFFEE33FEED33FDEC33FCEB15
:1003010033FB10D703994004EB99FB0FD8E5E4F9CF
:10031100FA227818EF2FFFEE33FEED33FDEC33FCBC
:10032100C933C910D7059BE99A4007EC9BFCE99AB0
:10033100F90FD8E0E4C9FAE4CCFB2275F010EF2FF5
:10034100FFEE33FEED33FDCC33CCC833C810D707F5
:100351009BEC9AE899400AED9BFDEC9AFCE899F830
:0E0361000FD5F0DAE4CDFBE4CCFAE4C8F922C3
:10036F00EB9FF5F0EA9E42F0E99D42F0E89C45F0E4
:01037F00225B
:10038000E8600FECC313FCED13FDEE13FEEF13FF5B
:03039000D8F1227F
:0C039300ECF0A3EDF0A3EEF0A3EFF022DD
:10039F00BB010789828A8302040C5005E9F8020425
:1003AF0003BBFE05E9F802043589828A8302043E05
:0603BF008A838982E473C9
:10047000E5082444F582E43401F583E00508229080
:100480000141300703900144E475F00112041502A4
:1004900001042000E97F2ED2008018EF540F249031
:1004A000D43440D4FF30040BEF24BFB41A005003FF
:1004B0002461FFE50960021509050CE50C700205D1
:1004C0000B30070E900141E475F001120415EF02A4
:1004D00003F1021ED57403D2078003E4C207F508B6
:1004E00090014112042CE4F509F50BF50CE50960C7
:1004F000077F201204B380F5750AFFC201C200C253
:1005000002C203C205C206C20812047FFF700D308A
:1005100007057F001204C4AF0CAE0B22B4255FC2E6
:10052000D5C20412047FFF24D0B40A00501A75F01B
:100530000A780930D50508B6FF0106C6A426F620BC
:10054000D5047002D20380D924CFB41A00EF50042E
:10055000C2E5D2040206C5D20180C6D20080C0D254
:100560000280BCD2D580BAD20580B47F201204B3F9
:100570002002077401B5090040F1120470FF120453
:10058000B30204EDD208D2068095120470FB120467
:1005900070FA120470F94A4B700679967A077BFF5D
:1005A00020022EE509602A7E008E827583001201EA
:1005B0004160060EEE650A70F0C2D5EBC0E0EAC0FD
:1005C000E0E9C0E0EE12070CD0E0F9D0E0FAD0E0AC
:1005D000FB120104FF60AAEBC0E0EAC0E0E9C0E062
:1005E0001204B3D0E02401F9D0E03400FAD0E0FBEB
:1005F000E50A0460DCD50AD980877BFF7A07790891
:10060000D202809C791080027908C206C208800854
:10061000D2D5790A8004790AC2D5E50A047002F5B8
:100620000AE4FAFDFEFF120470FC7B08200113129D
:100630000470FD7B1030000A120470FE120470FF7B
:100640007B20EC3382D592D55013C3E43000069F53
:10065000FFE49EFEE42001039DFDE49CFCE4CBF856
:10066000C201EC700CCFCECDCCE824F8F870F3804A
:1006700017C3EF33FFEE33FEED33FDEC33FCEB330A
:10068000FB994002FB0FD8E9EB300105F8D0E0C43C
:1006900048B201C0E00AEC4D4E4F78207B0070C29A
:1006A000EAB50A0040BCC0E012070ED0F0D0E0204E
:1006B0000104C4C0E0C4B201C0F012049CD0F0D563
:1006C000F0EB0204ED12044A058A53060458055B58
:1006D0004C05574206084F06104406104905704362
:0806E00006165505FA4605FA5D
:1006E8004505FA4707B650055F2D05632E05862B8D
:1006F800056723058420079F2A051F480000057EFB
:100708003F3F3F00790AA2D5200314300509B910EC
:10071800020404B9080104A2D520060250010420ED
:1007280002689202B509005034C0E07F20300319F6
:100738007F30A20272067205500F120765C202C20C
:1007480006C205C2087F30800F300503E9C0E012F9
:1007580004B3300503D0E0F9D0E0B509CC30051773
:100768007F30B9100C1204B37F583004077F7880AB
:1007780003B908031204B33002057F2D0204B37FC6
:10078800202008F87F2B2006F322920280CF286EC3
:10079800756C6C2900D2011204703001F8C201781E
:1007A8000930D50108F602051F2D50434958120497
:1007B800702403B405004001E49007B1931204A427
:0D07C800743A1204A4D20375090402060459
:1003C500EF4E6012EF60010EEDBB010B89828A834F
:1003D500F0A3DFFCDEFA2289F05007F709DFFCA95C
:0C03E500F022BBFEFCF309DFFCA9F022B3
:1003F100BB010689828A83F0225002F722BBFE01EB
:02040100F322E4
:09040300E6FB08E6FA08E6F9221E
:09040C00E0FBA3E0FAA3E0F922F1
:10041500F8E0FBA3A3E0F925F0F0E5821582700270
:070425001583E0FA38F02214
:09042C00EBF0A3EAF0A3E9F022D1
:09043500E2FB08E2FA08E2F922F8
:0C043E00E493FB740193FA740293F9221A
:10044A00D083D082F8E4937012740193700DA3A341
:10045A0093F8740193F5828883E473740293686055
:06046A00EFA3A3A380DF55
:101ED500EFB40A07740D121EE0740A309811A89920
:101EE500B8130CC2983098FDA899C298B811F6306D
:071EF50099FDC299F5992245
:00000001FF
