:0424FD004101F000A9
:10254B001229B3122B451227EB9001A6E06002E48F
:10255B00F09001A8E06005E4F01229009001AAE0D8
:10256B006008E4F012270A121E7C9001ACE06002B6
:10257B00E4F09001AFE06002E4F012277090016983
:0B258B00EFF060C5E0FF12000E80BE04
:0C29ED009001A0EBF0A3EAF0A3E9F022B7
:0C29F9009001A3EBF0A3EAF0A3E9F022A8
:102993009001A0A3E0FAA3E0F94A600312106122B8
:1029A3009001A3A3E0FAA3E0F94A600312106122A5
:10273E00EF4E602D900196EEF0A3EFF0AF05A3ECF7
:10274E00F0A3EFF0AF03A3EAF0A3EFF0E4A3F0A33E
:10275E00F0A3F0A3F0900195F090019404F01229EB
:02276E009322B4
:10293400E4900194F01229A37B007A007900122913
:04294400ED0229F97E
:101E7C00900194E07003021F30900198E0FEA3E003
:101E8C00FF4E7003021F30900195E07035D3EF9434
:101E9C0000EE94005003021F3090019CE475F00199
:101EAC00120E65FED3900197E095F0900196E09E9E
:101EBC0050721229A3E490019CF0A3F090019504B8
:101ECC00F022900195E06401705A90019C75F0012C
:101EDC00120E65FED3900199E095F0900198E09E6A
:101EEC00504290019AE0FEA3E0FF9400EE94004073
:101EFC002590019EE475F001120E65FCD3EF95F070
:101F0C00EE9C5005E4900194F0900194E0700790E1
:101F1C000198F0A3F022E490019CF0A3F0900195BD
:051F2C00F012299322D0
:1025010041012800500129000000000000000000E6
:102511000000000000000050011800000000000051
:102521000000000000000000000048013900000028
:052531000000000000A5
:1027EB00E4900128F0FE7F10FD7B017A017929121C
:1027FB0010677E007F107D007B017A017918121023
:07280B0067121A890229D1AE
:0E21B80090016DEBF0A3EAF0A3E9F0A3EDF0C7
:1021C600E4A3F0EDD39410504D9001287401F090E3
:1021D600016DE0FBA3E0FAA3E0F974019001186B2E
:1021E6007008E965827003EA6583602A7E007F10C5
:1021F6007D007B017A017918121067900170E0FF6B
:102206007E0078187C017D0190016DE0FBA3E0FA69
:06221600A3E0F9120DA483
:01221C00229F
:0C2A05009001E8EBF0A3EAF0A3E9F02256
:10270A00900128E0602D122A27EF24F0601424D0CB
:10271A00601024207012122A11122B25E49001282D
:10272A00F022122A11022B257B017A0179187D10D9
:04273A001225D92269
:10221D009001EBEBF0A3EAF0A3E9F0AE05E4900139
:10222D00EEF0AF061EEF60469001EEE0FF9001EB81
:10223D00E0FBA3E475F001120E7BA9F0FA120DCAB2
:10224D006F9001EEF0E4A3F09001EFE0C39408501D
:10225D00D19001EEE030E007C313648CF08007905D
:10226D0001EEE0C313F09001EFE004F080DA90018D
:04227D00EEE0FF226E
:101FCB009001B2EBF0A3EAF0A3E9F0AE05E49001C7
:101FDB00EEF0AF061EEF606B9001EEE0FF9001B2EA
:101FEB00E0FBA3E475F001120E7BA9F0FA120DCA07
:101FFB006F9001EEF09001B6E004F0A3E0FF9001CA
:10200B00B6E0C39F4012E4F0EFFDE49DFDE49400C5
:10201B009001B38DF0120E65E49001EFF09001EF9B
:10202B00E0C3940850AC9001EEE030E007C31364BA
:10203B008CF080079001EEE0C313F09001EFE00409
:09204B00F080DA9001EEE0FF22C2
:012B4500226D
:0A2A1D00E42FFFEE343CFE02178E9A
:012B4600226C
:012B4700226B
:05000E0090016AEFF013
:10001300E4A3F0A3F090016BF0FE7F10FD7B017A67
:1000230001791812106790016AE024FEB44600407B
:1000330003020CC090004575F003A4C58325F0C5E9
:100043008373020117020CC0020CC00201BD020C33
:10005300C0020CC0020263020CC0020CC0020309FE
:10006300020CC0020CC00203AF020CC0020CC0029F
:100073000CC0020CC0020CC0020455020CC0020CDE
:10008300C0020CC0020CC0020CC0020CC0020CC0A7
:10009300020CC00204FB020CC0020CC00205A10248
:1000A3000CC0020CC0020647020CC0020CC0020CBA
:1000B300C0020CC0020CC00206ED020CC0020CC050
:1000C300020793020CC0020CC0020839020CC002E2
:1000D3000CC0020CC0020CC0020CC00208DF020CF0
:1000E300C0020CC0020CC0020CC0020CC002098585
:1000F300020CC0020CC0020A2B020CC0020CC0028C
:100103000AD1020CC0020CC0020B77020CC0020C15
:10011300C0020C1D1229347BFF7A2B793F1229ED83
:100123007BFF7A2B79421229F97B017A007D017CCE
:10013300007F057E0012273E90016BE0FF04F07400
:10014300182FF582E43401F58374F2F090016BE02B
:10015300FF04F074182FF582E43401F5837401F081
:1001630090016BE0FF04F074182FF582E43401F57D
:10017300837450F0E490016CF0900119E02401FFC6
:10018300E433FE90016CE0FDC39FEE6480F874805D
:10019300984003020CC074192DF582E43401F583F1
:1001A300E0FF90016BE02418F582E43401F583E06D
:1001B3002FF090016CE004F080BF1229347BFF7AAA
:1001C3002B793F1229ED7BFF7A2B79421229F97B98
:1001D300017A007D017C007F057E0012273E90019D
:1001E3006BE0FF04F074182FF582E43401F5837497
:1001F300F2F090016BE0FF04F074182FF582E43401
:1002030001F5837401F090016BE0FF04F074182F83
:10021300F582E43401F5837451F0E490016CF090BD
:100223000119E02401FFE433FE90016CE0FDC39F5C
:10023300EE6480F87480984003020CC074192DF5A5
:1002430082E43401F583E0FF90016BE02418F5822A
:10025300E43401F583E02FF090016CE004F080BFFB
:100263001229347BFF7A2B793F1229ED7BFF7A2BFE
:1002730079421229F97B017A007D017C007F057E9A
:100283000012273E90016BE0FF04F074182FF582F3
:10029300E43401F58374F2F090016BE0FF04F07431
:1002A300182FF582E43401F5837401F090016BE0BB
:1002B300FF04F074182FF582E43401F5837452F0CF
:1002C300E490016CF0900119E02401FFE433FE9007
:1002D300016CE0FDC39FEE6480F8748098400302D4
:1002E3000CC074192DF582E43401F583E0FF90010D
:1002F3006BE02418F582E43401F583E02FF09001DC
:100303006CE004F080BF1229347BFF7A2B793F1213
:1003130029ED7BFF7A2B79421229F97B017A007D43
:10032300017C007F057E0012273E90016BE0FF04F5
:10033300F074182FF582E43401F58374F2F0900120
:100343006BE0FF04F074182FF582E43401F5837435
:1003530001F090016BE0FF04F074182FF582E43490
:1003630001F5837453F0E490016CF0900119E024DB
:1003730001FFE433FE90016CE0FDC39FEE6480F85F
:100383007480984003020CC074192DF582E4340183
:10039300F583E0FF90016BE02418F582E43401F566
:1003A30083E02FF090016CE004F080BF1229347BCE
:1003B300FF7A2B793F1229ED7BFF7A2B79421229A1
:1003C300F97B017A007D017C007F057E0012273EC8
:1003D30090016BE0FF04F074182FF582E43401F50B
:1003E3008374F2F090016BE0FF04F074182FF58230
:1003F300E43401F5837401F090016BE0FF04F074C1
:10040300182FF582E43401F5837454F0E490016C01
:10041300F0900119E02401FFE433FE90016CE0FD4C
:10042300C39FEE6480F87480984003020CC0741973
:100433002DF582E43401F583E0FF90016BE024188D
:10044300F582E43401F583E02FF090016CE004F0D1
:1004530080BF1229347BFF7A2B793F1229ED7BFF72
:100463007A2B79421229F97B017A007D017C007F86
:10047300057E0012273E90016BE0FF04F074182FF5
:10048300F582E43401F58374F2F090016BE0FF042C
:10049300F074182FF582E43401F5837401F09001B0
:1004A3006BE0FF04F074182FF582E43401F58374D4
:1004B30055F0E490016CF0900119E02401FFE4335E
:1004C300FE90016CE0FDC39FEE6480F87480984059
:1004D30003020CC074192DF582E43401F583E0FFA7
:1004E30090016BE02418F582E43401F583E02FF0EA
:1004F30090016CE004F080BF1229347BFF7A2B79E2
:100503003F1229ED7BFF7A2B79421229F97B017A7D
:10051300007D017C007F057E0012273E90016BE089
:10052300FF04F074182FF582E43401F58374F2F0BC
:1005330090016BE0FF04F074182FF582E43401F5A9
:10054300837401F090016BE0FF04F074182FF582BF
:10055300E43401F5837456F0E490016CF0900119D2
:10056300E02401FFE433FE90016CE0FDC39FEE64E1
:1005730080F87480984003020CC074192DF582E44E
:100583003401F583E0FF90016BE02418F582E43435
:1005930001F583E02FF090016CE004F080BF122995
:1005A300347BFF7A2B793F1229ED7BFF7A2B79423B
:1005B3001229F97B017A007D017C007F057E001200
:1005C300273E90016BE0FF04F074182FF582E434AA
:1005D30001F58374F2F090016BE0FF04F074182FBF
:1005E300F582E43401F5837401F090016BE0FF04BC
:1005F300F074182FF582E43401F5837457F0E49016
:10060300016CF0900119E02401FFE433FE90016CCA
:10061300E0FDC39FEE6480F87480984003020CC031
:1006230074192DF582E43401F583E0FF90016BE04A
:100633002418F582E43401F583E02FF090016CE097
:1006430004F080BF1229347BFF7A2B793F1229ED06
:100653007BFF7A2B79421229F97B017A007D017C99
:10066300007F057E0012273E90016BE0FF04F074CB
:10067300182FF582E43401F58374F2F090016BE0F6
:10068300FF04F074182FF582E43401F5837401F04C
:1006930090016BE0FF04F074182FF582E43401F548
:1006A300837458F0E490016CF0900119E02401FF89
:1006B300E433FE90016CE0FDC39FEE6480F8748028
:1006C300984003020CC074192DF582E43401F583BC
:1006D300E0FF90016BE02418F582E43401F583E038
:1006E3002FF090016CE004F080BF1229347BFF7A75
:1006F3002B793F1229ED7BFF7A2B79421229F97B63
:10070300017A007D017C007F057E0012273E900167
:100713006BE0FF04F074182FF582E43401F5837461
:10072300F2F090016BE0FF04F074182FF582E434CB
:1007330001F5837401F090016BE0FF04F074182F4E
:10074300F582E43401F5837459F0E490016CF09080
:100753000119E02401FFE433FE90016CE0FDC39F27
:10076300EE6480F87480984003020CC074192DF570
:1007730082E43401F583E0FF90016BE02418F582F5
:10078300E43401F583E02FF090016CE004F080BFC6
:100793001229347BFF7A2B793F1229ED7BFF7A2BC9
:1007A30079421229F97B017A007D017C007F057E65
:1007B3000012273E90016BE0FF04F074182FF582BE
:1007C300E43401F58374F2F090016BE0FF04F074FC
:1007D300182FF582E43401F5837401F090016BE086
:1007E300FF04F074182FF582E43401F583745AF092
:1007F300E490016CF0900119E02401FFE433FE90D2
:10080300016CE0FDC39FEE6480F87480984003029E
:100813000CC074192DF582E43401F583E0FF9001D7
:100823006BE02418F582E43401F583E02FF09001A6
:100833006CE004F080BF1229347BFF7A2B793F12DE
:1008430029ED7BFF7A2B79421229F97B017A007D0E
:10085300017C007F057E0012273E90016BE0FF04C0
:10086300F074182FF582E43401F58374F2F09001EB
:100873006BE0FF04F074182FF582E43401F5837400
:1008830001F090016BE0FF04F074182FF582E4345B
:1008930001F583745BF0E490016CF0900119E0249E
:1008A30001FFE433FE90016CE0FDC39FEE6480F82A
:1008B3007480984003020CC074192DF582E434014E
:1008C300F583E0FF90016BE02418F582E43401F531
:1008D30083E02FF090016CE004F080BF1229347B99
:1008E300FF7A2B793F1229ED7BFF7A2B794212296C
:1008F300F97B017A007D017C007F057E0012273E93
:1009030090016BE0FF04F074182FF582E43401F5D5
:100913008374F2F090016BE0FF04F074182FF582FA
:10092300E43401F5837401F090016BE0FF04F0748B
:10093300182FF582E43401F583745CF0E490016CC4
:10094300F0900119E02401FFE433FE90016CE0FD17
:10095300C39FEE6480F87480984003020CC074193E
:100963002DF582E43401F583E0FF90016BE0241858
:10097300F582E43401F583E02FF090016CE004F09C
:1009830080BF1229347BFF7A2B793F1229ED7BFF3D
:100993007A2B79421229F97B017A007D017C007F51
:1009A300057E0012273E90016BE0FF04F074182FC0
:1009B300F582E43401F58374F2F090016BE0FF04F7
:1009C300F074182FF582E43401F5837401F090017B
:1009D3006BE0FF04F074182FF582E43401F583749F
:1009E3005DF0E490016CF0900119E02401FFE43321
:1009F300FE90016CE0FDC39FEE6480F87480984024
:100A030003020CC074192DF582E43401F583E0FF71
:100A130090016BE02418F582E43401F583E02FF0B4
:100A230090016CE004F080BF1229347BFF7A2B79AC
:100A33003F1229ED7BFF7A2B79421229F97B017A48
:100A4300007D017C007F057E0012273E90016BE054
:100A5300FF04F074182FF582E43401F58374F2F087
:100A630090016BE0FF04F074182FF582E43401F574
:100A7300837401F090016BE0FF04F074182FF5828A
:100A8300E43401F583745EF0E490016CF090011995
:100A9300E02401FFE433FE90016CE0FDC39FEE64AC
:100AA30080F87480984003020CC074192DF582E419
:100AB3003401F583E0FF90016BE02418F582E43400
:100AC30001F583E02FF090016CE004F080BF122960
:100AD300347BFF7A2B793F1229ED7BFF7A2B794206
:100AE3001229F97B017A007D017C007F057E0012CB
:100AF300273E90016BE0FF04F074182FF582E43475
:100B030001F58374F2F090016BE0FF04F074182F89
:100B1300F582E43401F5837401F090016BE0FF0486
:100B2300F074182FF582E43401F583745FF0E490D8
:100B3300016CF0900119E02401FFE433FE90016C95
:100B4300E0FDC39FEE6480F87480984003020CC0FC
:100B530074192DF582E43401F583E0FF90016BE015
:100B63002418F582E43401F583E02FF090016CE062
:100B730004F080BF1229347BFF7A2B793F1229EDD1
:100B83007BFF7A2B79421229F97B017A007D017C64
:100B9300007F057E0012273E90016BE0FF04F07496
:100BA300182FF582E43401F58374F2F090016BE0C1
:100BB300FF04F074182FF582E43401F5837401F017
:100BC30090016BE0FF04F074182FF582E43401F513
:100BD300837460F0E490016CF0900119E02401FF4C
:100BE300E433FE90016CE0FDC39FEE6480F87480F3
:100BF300984003020CC074192DF582E43401F58387
:100C0300E0FF90016BE02418F582E43401F583E002
:100C13002FF090016CE004F080BF1229347BFF7A3F
:100C23002B793F1229ED7BFF7A2B79421229F97B2D
:100C3300017A007D017C007F057E0012273E900132
:100C43006BE0FF04F074182FF582E43401F583742C
:100C5300F2F090016BE0FF04F074182FF582E43496
:100C630001F5837401F090016BE0FF04F074182F19
:100C7300F582E43401F5837461F0E490016CF09043
:100C83000119E02401FFE433FE90016CE0FDC39FF2
:100C9300EE6480F8748098502474192DF582E4343E
:100CA30001F583E0FF90016BE02418F582E4340141
:100CB300F583E02FF090016CE004F080C290016BAB
:100CC300E0600D04F07B017A017918E0FD1221B890
:010CD30022FE
:0F29B300122948122A44122B391228A6D2AF2219
:082536004101B0004101B100B8
:1028A6001229C25389F0438901538EF79001B074FF
:1028B600FAF0A374C4F0758CFAF58AD2A9D28C22E8
:0F29C2007E007F0A7D007B017A0179A6021067F3
:03000B000220547C
:10205400C0E0C0F0C083C082C0D075D000C000C052
:10206400069001B0E0F58CA3E0F58A9001A6740116
:10207400F0A3E004F0C3940A4005E4F0A304F09054
:1020840001A9E004F0C394644005E4F0A304F090D3
:1020940001ABE004F0C394F4748094814005E4F04F
:1020A400A304F09001ADE475F001120E65FEC3E5E2
:1020B400F094E8EE9403400A9001ADE4F0A3F0A399
:1020C40004F0D006D000D0D0D082D083D0F0D0E0BD
:0120D40032D9
:10285F000A6D679C46F6375D4521EFAC5A50010B68
:10286F00DF020A6D679C46F6375D4521EFAC5A5083
:04287F00E10BDF0288
:08253E004501C3CCCCCCCCCC90
:1029480053B3FE43B40153B3FD43B40253B1FE4342
:03295800B20122A7
:012B4800226A
:1028C600E4FEC290EF30E704D2808002C280EF259A
:0C28D600E0FFD290000EEEB408E8C290C3
:0128E20022D3
:04295B00E4FD7FFC1C
:0F295F00C291001228C6AF051228C600D29122DD
:0A2596007B019001807405F07F3F87
:0B25A00090017DEBF0A3EAF0A3E9F04E
:1025AB00C291E4FD1228C6900180E0FFEDC39F505D
:1025BB001A90017DE0FBA3E0FAA3E0F98D8275830D
:0D25CB0000120DE3FF1228C60D80DCD29136
:0125D80022E0
:10288300E4FEC290EF30E704D2808002C280EF25DD
:10289300E0FFD290000EEEB408E843B10153B2FE5C
:0228A300C290E1
:0128A5002210
:10291B00E4FFFEC290EF25E0FFD29030800344012C
:08292B00FF0EEEB408EDC290AE
:012933002281
:10296E00C2910012288312291B53B1FE43B20100FB
:02297E00D291F4
:012980002234
:0B261C009001BFEBF0A3EAF0A3E9F08F
:10262700C291122883E4FD9001C2E0FFEDC39F50E1
:102637001A12291B9001BFE0FBA3E0FAA3E0F98D72
:1026470082758300EF120E430D80DC53B1FE43B257
:0326570001D2911C
:01265A00225D
:0E29D10012295B7D8E7F2012295F00000022FC
:10283900E4FEFD7FFC12295F7D8F7F2012295FE472
:10284900FD7FFD12295FE4FEFF000FBF00010EBEF0
:0528590013F7BF88F435
:01285E002257
:0A2A27007F0712296EEF5470FF22A2
:062B33007F0912296E2249
:072B25007D707F2702295F8C
:0C2A1100E4FD7FE112295F7FE202295FF3
:0E29DF00AC0712295BAF04AD077F2502295F0C
:0625D900122A27EF703CFE
:1025DF0090016AF0A3F0900180EDF07FA01225A08A
:1025EF00E4FD7FFD12295FE490016AF0A3F00090F3
:1025FF00016BE004F0700690016AE004F090016A4C
:0C260F00E07004A3E064C870E512295BD1
:01261B00229C
:10279A00AC05122A27EF30E61D12295B9001C2EC24
:1027AA00F07F6112261C122A11122B25E4FD7FFDEF
:0927BA0012295F7F01227F002239
:101A8900786A7C017D017BFF7A28795F7E007F057A
:101A9900120DA4786F7C017D017BFF7A2879647E21
:101AA900007F03120DA478727C017D017BFF7A28E7
:101AB90079677E007F06120DA478787C017D017B11
:101AC900FF7A28796D7E007F01120DA478797C0157
:101AD9007D017BFF7A28796E7E007F03120DA412A7
:101AE9002B487D5A7F5312295F7DA57F5312295FA9
:101AF9007D207F3D12295F12295B7FE112295F7FDB
:101B0900E212295F7D707F2712295F7D017F2212F2
:101B1900295F7D037F2312295F7D4E7F2512295F6F
:101B29007D107F3112295F7B017A0179C390018091
:101B39007405F07F301225A07B017A0179C39001E9
:101B4900807405F07F2A1225A07A01796A122596F8
:101B59007B017A0179729001807406F07F3A12252F
:101B6900A07B017A0179789001807401F07F3912A4
:101B790025A07B017A01796F9001807403F07F3E83
:101B89001225A07B017A0179799001807403F07F95
:101B99003B1225A0E4FD7F3C12295F7D3F7F261281
:0E1BA900295FE4FD7F2412295F7F2102295F5E
:051CC900900181EFF025
:101CCE00E478827C017D017BFF7A287971FE7F05A5
:101CDE00120DA478877C017D017BFF7A2879767EB0
:101CEE00007F03120DA4788A7C017D017BFF7A2888
:101CFE0079797E007F06120DA478907C017D017BA0
:101D0E00FF7A28797F7E007F01120DA478917C01E5
:101D1E007D017BFF7A2879807E007F03120DA47DE2
:101D2E005A7F5312295F7DA57F5312295F7D207F35
:101D3E003D12295F12295BE4FF000000000FEFB493
:101D4E00DCF7900181E0FD7F2512295F7D3F7F2624
:101D5E0012295F7A0179821225967B017A01798A9E
:101D6E009001807406F07F3A1225A07B017A0179EA
:101D7E00909001807401F07F391225A07B017A01C9
:101D8E0079879001807403F07F3E1225A07B017A43
:0E1D9E000179919001807403F07F3B0225A033
:042546004101BA0095
:012B49002269
:10178E00AB07AA06A9059001BBEFF0C394805004E5
:10179E00E4F080069001BB7480F09001B8E4F0A3F1
:1017AE007480F09001BBE07C002400FEEC3AA3F0C4
:1017BE00A3CEF09001B8E0FEA3E0FF7003EE64014B
:1017CE0060369001BCE0FCA3E0F5828C83E4938F3D
:1017DE00828E83F09001BAE004F09001B9E004F03B
:1017EE0070069001B8E004F09001BDE004F070C303
:1017FE009001BCE004F080BBAF039001BBEFF0C3DF
:10180E009480500FE02480FEE4339001B8F0A3CE14
:10181E00F0800D9001BBE0FF9001B8E4F0A3EFF073
:10182E009001B8E0FCA3E0F5828C83E9F0AD038D66
:10183E00A6EAFFF5A775AEFFA2AF9209C2AF75C7B4
:10184E00AA75C755439F01A20992AFA2AF9209C2D2
:10185E00AF75C7AA75C75543A501A20992AF75AF5B
:10186E0022A2AF9209C2AF75C7AA75C75543A4018C
:10187E00A20992AF9001BBEDF0C394805004E4F046
:10188E0080069001BB7480F09001B8E4F0A37480E0
:10189E00F09001BBE0F5A68FA7A2AF9209C2AF757B
:1018AE00C7AA75C755439F01A20992AFA2AF92096D
:1018BE00C2AF75C7AA75C75543A501A20992AF75E8
:1018CE00AF219001B8E0FEA3E0FFF44E602C8F82B2
:1018DE008E83E0F5AEA2AF9209C2AF75C7AA75C7E7
:1018EE005543A401A20992AF05A69001B9E004F0F8
:1018FE0070D09001B8E004F080C8A2AF9209C2AFD8
:10190E0075C7AA75C75553A5FEA20992AFA2AF928D
:10191E0009C2AF75C7AA75C755539FFEA20992AFEC
:01192E002296
:040003008F828E83D7
:03000700E493FF80
:01000A0022D3
:101DAC00E4FED282D283D284D285D286D287D294D8
:101DBC00D295D296D297EF14603114604614605BC2
:101DCC00146070147003021E5724056003021E7900
:101DDC00C282ED14600F14600E14600D24036003B6
:101DEC00021E7980768078807A807CC283ED1460C4
:101DFC000C14600B14600A24037072805E80608087
:101E0C00628064C284ED14600C14600B14600A24AC
:101E1C0003705A80468048804A804CC285ED14601D
:101E2C000C14600B14600A24037042802E803080E6
:101E3C00328034C286ED14600C14600B14600A24DA
:101E4C0003702A80168018801A801CC287ED1460DB
:101E5C000E14600F14601024037012A297800AA253
:0F1E6C00968006A2958002A294B3E433FEAF06DF
:011E7B002244
:072B2C00E4FDFF121DAC22C5
:082A4D007D01E4FF121DAC2223
:082A55007D02E4FF121DAC221A
:082A5D007D03E4FF121DAC2211
:082A6500E4FD7F01121DAC220B
:082A6D007D017F01121DAC2266
:082A75007D027F01121DAC225D
:082A7D007D037F01121DAC2254
:082A8500E4FD7F02121DAC22EA
:082A8D007D017F02121DAC2245
:082A95007D027F02121DAC223C
:082A9D007D037F02121DAC2233
:082AA500E4FD7F03121DAC22C9
:082AAD007D017F03121DAC2224
:082AB5007D027F03121DAC221B
:082ABD007D037F03121DAC2212
:082AC500E4FD7F04121DAC22A8
:082ACD007D017F04121DAC2203
:082AD5007D027F04121DAC22FA
:082ADD007D037F04121DAC22F1
:082AE500E4FD7F05121DAC2287
:082AED007D017F05121DAC22E2
:082AF5007D027F05121DAC22D9
:082AFD007D037F05121DAC22D0
:062B390012147702265B76
:1028E300900116E0240BF582E43401F583EFF090B8
:0D28F3000116E004F0C3940A4002E4F02254
:10277000900116E0FF900115E0FEB507037F0022EF
:10278000740B2EF582E43401F583E0FF900115E02F
:0927900004F0C3940A4002E4F0D5
:01279900221D
:1027C300900116E0FFA3E0FEB507037F0022740B20
:1027D3002EF582E43401F583E0FF900117E004F065
:0727E300C3940A4002E4F078
:0127EA0022CC
:1029810075F00BEFA4240BF582E5F03400F583E03C
:02299100FF2223
:1026D30075F00BEFA42409F582E5F03400F583ECE3
:1026E300F0A3EDF075F00BEFA4240CF582E5F034C4
:1026F30000F583EBF075F00BEFA4240DF582E5F004
:072703003400F583E4F0222D
:092A3B00900116E0900115F02253
:10265B0053B1FB53B2FB53B1F753B2F753B1EF5333
:10266B00B2EF53B1DF53B2DF53B1BF53B2BF53B16C
:10267B007F53B27F53B3EF53B4EF53B3DF53B4DF96
:0D268B0053B3BF53B4BF53B37F53B47F228A
:10147700E47E017F08FD7B017A007903121067E49F
:10148700900115F0A3F0A3F0FF75F00BEFA424096A
:10149700F582E5F03400F583E4F0A374C8F075F045
:1014A7000BEFA42406F582E5F03400F5837402F00F
:1014B70075F00BEFA4240BF582E5F03400F583E417
:1014C700F075F00BEFA4240CF582E5F03400F583FA
:1014D700E4F075F00BEFA4240DF582E5F03400F588
:1014E70083E4F00FEFB418A1E4FF0F75F00BA42409
:1014F70003F582E5F03400F58374FFF0A3742BF055
:10150700A3742CF00F75F00B7401A42403F582E586
:10151700F03400F58374FFF0A3742AF0A3744DF040
:101527000F75F00B7402A42403F582E5F03400F57F
:101537008374FFF0A3742AF0A37455F00F75F00BB2
:101547007403A42403F582E5F03400F58374FFF0F7
:10155700A3742AF0A3745DF00F75F00B7404A42430
:1015670003F582E5F03400F58374FFF0A3742AF0E5
:10157700A37465F00F75F00B7405A42403F582E5D9
:10158700F03400F58374FFF0A3742AF0A3746DF0B0
:101597000F75F00B7406A42403F582E5F03400F50B
:1015A7008374FFF0A3742AF0A37475F00F75F00B22
:1015B7007407A42403F582E5F03400F58374FFF083
:1015C700A3742AF0A3747DF00F75F00B7408A4249C
:1015D70003F582E5F03400F58374FFF0A3742AF075
:1015E700A37485F00F75F00B7409A42403F582E545
:1015F700F03400F58374FFF0A3742AF0A3748DF020
:101607000F75F00B740AA42403F582E5F03400F596
:101617008374FFF0A3742AF0A37495F00F75F00B91
:10162700740BA42403F582E5F03400F58374FFF00E
:10163700A3742AF0A3749DF00F75F00B740CA42407
:1016470003F582E5F03400F58374FFF0A3742AF004
:10165700A374A5F00F75F00B740DA42403F582E5B0
:10166700F03400F58374FFF0A3742AF0A374ADF08F
:101677000F75F00B740EA42403F582E5F03400F522
:101687008374FFF0A3742AF0A374B5F00F75F00B01
:10169700740FA42403F582E5F03400F58374FFF09A
:1016A700A3742AF0A374BDF00F75F00B7410A42473
:1016B70003F582E5F03400F58374FFF0A3742AF094
:1016C700A374C5F00F75F00B7411A42403F582E51C
:1016D700F03400F58374FFF0A3742AF0A374CDF0FF
:1016E7000F75F00B7412A42403F582E5F03400F5AE
:1016F7008374FFF0A3742AF0A374D5F00F75F00B71
:101707007413A42403F582E5F03400F58374FFF025
:10171700A3742AF0A374DDF00F75F00B7414A424DE
:1017270003F582E5F03400F58374FFF0A3742AF023
:10173700A374E5F00F75F00B7415A42403F582E587
:10174700F03400F58374FFF0A3742AF0A374EDF06E
:101757000F75F00B7416A42403F582E5F03400F539
:101767008374FFF0A3742AF0A374F5F075F00BEF00
:10177700A42403F582E5F03400F58374FFF0A37425
:061787002AF0A374FDF03E
:01178D002239
:10192F0090016BEFF0E075F00BA42403F974003510
:10193F00F0FA7B01900000EBF0A3EAF0A3E9F012BC
:10194F001041121061EF7003021A21900000E0FBAA
:10195F00A3E0FAA3E0F9900003120DE3FFC394058F
:10196F0050089000037405021A85EFC3940A5008BB
:10197F009000037401020E10900008120DE3701412
:10198F0090000804120E4390016BE075F003A4045D
:10199F00FF1228E3900000E0FBA3E0FAA3E0F99028
:1019AF000006120E91FFAEF0D39400EE9400500398
:1019BF00021A88900004120E91C39FE5F09E5023E7
:1019CF00900004E475F001120EC9FCE5F06F70028F
:1019DF00EC6E6003021A8890016BE075F003A4248B
:1019EF0003802B900009120DE3FFD39400500302E4
:1019FF001A8890000A7401120E10C39F407B90004A
:101A0F000AE4120E4390016BE075F003A404FF0289
:101A1F0028E3900000E0FBA3E0FAA3E0F9900003B5
:101A2F00120DE3FFD39405400A9000037405120EC4
:101A3F0043802BEF600A90000374FF120E10801E7C
:101A4F00900008120DE3B40115900008E4120E4344
:101A5F0090016BE075F003A42402FF1228E39000BD
:101A6F0000E0FBA3E0FAA3E0F9900004E4F5F01224
:0A1A7F000F1690000AE4120E432235
:10290000E490016AF090016AE0FFC39418500B1242
:0A291000192F90016AE004F080EB3B
:01291A00229A
:092A440053ACFE43AD01022B422C
:032B3F00D2B022EF
:032B4200C2B022FC
:0A2A3100EF6003022B3F122B42223C
:1026980053B1BF53B2BF53B17F53B27F7598504304
:1026A8008920438780438E1053C4DFAB07AA06A94D
:1026B80005A8047F407E427D0F7C00120F7FEF0447
:0B26C800F404F58DD28ED299D2AC2222
:1020D5009001C812103553B1BF53B2BF53B17F53EE
:1020E500B27F75985043878053C4F843C42090014C
:1020F500C8E0F8A3E0F9A3E0FAA3E0FB7F407E4245
:102105007D0F7C00120F7FC374FF9FFF74FF9EFE3F
:10211500E49DFDE49CFC78081210228FC69001C84E
:10212500E0F8A3E0F9A3E0FAA3E0FB7F407E427D5F
:102135000F7C00120F7FC374FF9FFF8FC543C40838
:05214500D299D2AC228A
:072B05003098FDAF99C29862
:012B0C0022A6
:082B0D00C2998F993099FD2255
:10214A009001CC12103553B1FB53B2FB53B3BF53BA
:10215A00B4BF75F85075C40853C4DF9001CCE0F8D9
:10216A00A3E0F9A3E0FAA3E0FB7F407E427D0F7C67
:10217A0000120F7FC374FF9FFF74FF9EFEE49DFD54
:10218A00E49CFC78081210228FC69001CCE0F8A3D8
:10219A00E0F9A3E0FAA3E0FB7F407E427D0F7C00DA
:0E21AA00120F7FC374FF9FFF8FC543C408222E
:072B150030F8FDAF9AC2F891
:012B1C002296
:082B1D00C2F98F9A30F9FD2284
:1023F2009001D0121035538EF7438901D28CE4FF3D
:10240200FEFDFC9001D0E0F8A3E0F9A3E0FAA3E01E
:10241200FBC3121011602F758A7E758CFF308DFD03
:10242200C28D9001D0E0FCA3E0FDA3E0FEA3E02476
:10243200FFFFEE34FFFEED34FFFDEC34FFFC9001B4
:09244200D012103580B8C28C22C2
:10244B009001D4121035538EF7438901D28CE4FFDF
:10245B00FEFDFC9001D4E0F8A3E0F9A3E0FAA3E0C1
:10246B00FBC3121011602F758ACA758CFA308DFD63
:10247B00C28D9001D4E0FCA3E0FDA3E0FEA3E02419
:10248B00FFFFEE34FFFEED34FFFDEC34FFFC90015B
:09249B00D412103580B8C28C2265
:1024A4009001D8121035538EEF438910D28EE4FF79
:1024B400FEFDFC9001D8E0F8A3E0F9A3E0FAA3E064
:1024C400FBC3121011602F758BEA758DCB308FFD15
:1024D400C28F9001D8E0FCA3E0FDA3E0FEA3E024BA
:1024E400FFFFEE34FFFEED34FFFDEC34FFFC900102
:0924F400D812103580B8C28E2206
:1022E0009001DC12103553C9BF53C9DF43C910D266
:1022F000CAE4FFFEFDFC9001DCE0F8A3E0F9A3E0F6
:10230000FAA3E0FBC3121011602F75CC3075CDF825
:1023100030CFFDC2CF9001DCE0FCA3E0FDA3E0FEE6
:10232000A3E024FFFFEE34FFFEED34FFFDEC34FFAD
:0C233000FC9001DC12103580B8C2CA22FB
:10233C009001E012103575C40743C408E4FFFEFD9C
:10234C00FC9001E0E0F8A3E0F9A3E0FAA3E0FBC302
:10235C00121011603275C52C75C6CFE5C430E4FB84
:10236C0053C4EF9001E0E0FCA3E0FDA3E0FEA3E08A
:10237C0024FFFFEE34FFFEED34FFFDEC34FFFC9048
:0B238C0001E012103580B553C4F722A9
:102397009001E412103575C40743C408E4FFFEFD3D
:1023A700FC9001E4E0F8A3E0F9A3E0FAA3E0FBC3A3
:1023B700121011603275C5D875C6FFE5C430E4FB4D
:1023C70053C4EF9001E4E0FCA3E0FDA3E0FEA3E02B
:1023D70024FFFFEE34FFFEED34FFFDEC34FFFC90ED
:0B23E70001E412103580B553C4F7224A
:101BB7000A3D3D3D3D3D3D3D3D3D3D3D3D3D3D3D81
:101BC7003D3D3D3D3D3D3D3D3D3D3D3D3D3D3D3D3E
:101BD7003D3D3D3D3D3D3D3D3D3D3D3D3D3D3D3D2E
:101BE7003D3D3D3D3D3D3D3D3D3D3D3D3D3D3D3D1E
:101BF7003D3D3D3D3D000A2A2020436F70797269C3
:101C07006768742863292032303135204E75766F26
:101C1700746F6E20546563686E6F6C6F67792043CD
:101C27006F72702E20416C6C207269676874732024
:101C370072657365727665642E2020000A2A20205B
:101C4700436F6E7461637420452D4D61696C3A2052
:101C57004D6963726F432D38626974406E75766F94
:101C6700746F6E2E636F6D2020202020202020208F
:101C7700202020202020202020202020202020205D
:101C870020000A2A202044656D6F2056657273690B
:101C97006F6E20203A202532642E2532642E25329D
:101CA70064000A2A202046696E69736865642044C7
:101CB700617465203A202532642E2532642E253240
:021CC7006400B7
:102281007BFF7A1B79B712117D7BFF7A1B79FD12D7
:10229100117D7BFF7A1C794312117D7BFF7A1C79BA
:1022A10089900144E4F0A304F0E4A3F0A3F0A3F0C7
:1022B100A3F012117D7BFF7A1C79A9900144740768
:1022C100F0A374DFF0A3E4F0A37405F0A3E4F0A39A
:0F22D100741FF012117D7BFF7A1B79B702117D0C
:03000000021F31AB
:101F3100787FE4F6D8FD9000007FFF7E03E4F0A3F4
:0A1F4100DFFCDEFA758121021F8625
:101F4B0002254BE493A3F8E493A34003F68001F23C
:101F5B0008DFF48029E493A3F85407240CC8C33397
:101F6B00C4540F4420C8834004F456800146F6DF66
:101F7B00E4800B01020408102040809024FDE47ED5
:101F8B00019360BCA3FF543F30E509541FFEE4935B
:101F9B00A360010ECF54C025E060A840B8E493A322
:101FAB00FAE493A3F8E493A3C8C582C8CAC583CA4D
:101FBB00F0A3C8C582C8CAC583CADFE9DEE780BE05
:01254A000090
:100CD400E709F608DFFA8046E709F208DFFA803E02
:100CE40088828C83E709F0A3DFFA8032E309F608EF
:100CF400DFFA8078E309F208DFFA807088828C8357
:100D0400E309F0A3DFFA806489828A83E0A3F6080A
:100D1400DFFA805889828A83E0A3F208DFFA804CE4
:100D240080D280FA80C680D4806980F280338010BB
:100D340080A680EA809A80A880DA80E280CA803324
:100D440089828A83ECFAE493A3C8C582C8CCC5839C
:100D5400CCF0A3C8C582C8CCC583CCDFE9DEE7806C
:100D64000D89828A83E493A3F608DFF9ECFAA9F0EB
:100D7400EDFB2289828A83ECFAE0A3C8C582C8CC41
:100D8400C583CCF0A3C8C582C8CCC583CCDFEADE5A
:100D9400E880DB89828A83E493A3F208DFF980CCBC
:100DA40088F0EF60010E4E60C388F0ED2402B404B5
:100DB4000050B9F582EB2402B4040050AF2323455C
:060DC4008223900D247350
:100DCA00BB010689828A83E0225002E722BBFE0227
:090DDA00E32289828A83E493225A
:100DE300BB010CE58229F582E5833AF583E02250C5
:100DF30006E92582F8E622BBFE06E92582F8E2220F
:0D0E0300E58229F582E5833AF583E4932228
:100E1000BB010FF8E58229F582E5833AF583E028E6
:100E2000F0225009C58229F8E58226F622BBFE0988
:100E3000C58229F8E22582F222F8EA2583F583E9C2
:030E4000932822D2
:100E4300F8BB010DE58229F582E5833AF583E8F0E5
:100E5300225006E92582C8F622BBFE05E92582C891
:020E6300F22279
:100E6500C5F0F8A3E028F0C5F0F8E5821582700218
:060E75001583E038F022B5
:100E7B00A3F8E0C5F025F0F0E5821582700215832A
:060E8B00E0C838F0E82287
:100E9100BB0110E58229F582E5833AF583E0F5F09F
:100EA100A3E0225009E92582F886F008E622BBFE7C
:100EB1000AE92582F8E2F5F008E222E5832AF583C2
:080EC100E993F5F0A3E9932287
:100EC900BB010DC58229C582C5833AC583020E655A
:100ED9005011C58229F808E5F026F618F5F0E582E3
:100EE90036F622BBFE11C58229F808E225F0F5F095
:100EF900F218E23582F222F8E58229F582E5832AA1
:0D0F0900F58374019325F0F5F0E493382290
:100F1600F8BB0111E58229F582E5833AF583E8F00D
:100F2600E5F0A3F0225009E92582C8F608A6F022CA
:0D0F3600BBFE09E92582C8F2E5F008F222B1
:100F430075F008758200EF2FFFEE33FECD33CDCC65
:100F530033CCC58233C5829BED9AEC99E5829840E8
:100F63000CF582EE9BFEED9AFDEC99FC0FD5F0D6C5
:100F7300E4CEFBE4CDFAE4CCF9A88222B800C1B9EF
:100F83000059BA002DEC8BF084CFCECDFCE5F0CB2D
:100F9300F97818EF2FFFEE33FEED33FDEC33FCEB66
:100FA30033FB10D703994004EB99FB0FD8E5E4F921
:100FB300FA227818EF2FFFEE33FEED33FDEC33FC0E
:100FC300C933C910D7059BE99A4007EC9BFCE99A02
:100FD300F90FD8E0E4C9FAE4CCFB2275F010EF2F47
:100FE300FFEE33FEED33FDCC33CCC833C810D70747
:100FF3009BEC9AE899400AED9BFDEC9AFCE899F882
:0E1003000FD5F0DAE4CDFBE4CCFAE4C8F92214
:10101100EB9FF5F0EA9E42F0E99D42F0E89C45F035
:0110210022AC
:10102200E8600FECC313FCED13FDEE13FEEF13FFAC
:03103200D8F122D0
:0C103500ECF0A3EDF0A3EEF0A3EFF0222E
:10104100BB010789828A830210AE5005E9F80210BC
:10105100A5BBFE05E9F80210D789828A830210E058
:061061008A838982E4731A
:10111200E5082444F582E43401F583E005082290D1
:101122000141300703900144E475F0011210B70247
:101132000DCA2000E97F2ED2008018EF540F2490B0
:10114200D43440D4FF30040BEF24BFB41A00500350
:101152002461FFE50960021509050CE50C70020522
:101162000B30070E900141E475F0011210B7EF0247
:1011720010930228127403D2078003E4C207F50811
:101182009001411210CEE4F509F50BF50CE509606A
:10119200077F2012115580F5750AFFC201C200C2F5
:1011A20002C203C205C206C208121121FF700D302D
:1011B20007057F00121166AF0CAE0B22B4255FC289
:1011C200D5C204121121FF24D0B40A00501A75F0BE
:1011D2000A780930D50508B6FF0106C6A426F6200E
:1011E200D5047002D20380D924CFB41A00EF500480
:1011F200C2E5D204021367D20180C6D20080C0D2F7
:101202000280BCD2D580BAD20580B47F201211559B
:101212002002077401B5090040F1121112FF1211E8
:101222005502118FD208D2068095121112FB1211AB
:1012320012FA121112F94A4B700679387A147BFFAE
:1012420020022EE509602A7E008E82758300120D2F
:10125200E360060EEE650A70F0C2D5EBC0E0EAC0AC
:10126200E0E9C0E0EE1213AED0E0F9D0E0FAD0E04F
:10127200FB120DCAFF60AAEBC0E0EAC0E0E9C0E0E1
:10128200121155D0E02401F9D0E03400FAD0E0FB8D
:10129200E50A0460DCD50AD980877BFF7A1379AA34
:1012A200D202809C791080027908C206C2088008A6
:1012B200D2D5790A8004790AC2D5E50A047002F50A
:1012C2000AE4FAFDFEFF121112FC7B082001131240
:1012D2001112FD7B1030000A121112FE121112FFC0
:1012E2007B20EC3382D592D55013C3E43000069FA5
:1012F200FFE49EFEE42001039DFDE49CFCE4CBF8A8
:10130200C201EC700CCFCECDCCE824F8F870F3809B
:1013120017C3EF33FFEE33FEED33FDEC33FCEB335B
:10132200FB994002FB0FD8E9EB300105F8D0E0C48D
:1013320048B201C0E00AEC4D4E4F78207B0070C2EB
:10134200EAB50A0040BCC0E01213B0D0F0D0E020F1
:101352000104C4C0E0C4B201C0F012113ED0F0D505
:10136200F0EB02118F1210EC122C5312A65811FD41
:101372004C11F94212AA4F12B24412B2491212434C
:0813820012B855129C46129CA2
:10138A0045129C4714585012012D12052E12282B73
:10139A0012092312262014412A11C14800001220E2
:1013AA003F3F3F00790AA2D5200314300509B9103E
:1013BA00020404B9080104A2D5200602500104203F
:1013CA0002689202B509005034C0E07F2030031948
:1013DA007F30A20272067205500F121407C202C2AF
:1013EA0006C205C2087F30800F300503E9C0E0124B
:1013FA001155300503D0E0F9D0E0B509CC30051716
:10140A007F30B9100C1211557F583004077F78804D
:10141A0003B908031211553002057F2D0211557FB9
:10142A00202008F87F2B2006F322920280CF286E14
:10143A00756C6C2900D2011211123001F8C20178C0
:10144A000930D50108F60211C12D5043495812112D
:10145A00122403B405004001E49014539312114678
:0D146A00743A121146D2037509040212A64D
:10106700EF4E6012EF60010EEDBB010B89828A83A0
:10107700F0A3DFFCDEFA2289F05007F709DFFCA9AD
:0C108700F022BBFEFCF309DFFCA9F02204
:10109300BB010689828A83F0225002F722BBFE013C
:0210A300F32236
:0910A500E6FB08E6FA08E6F92270
:0910AE00E0FBA3E0FAA3E0F92243
:1010B700F8E0FBA3A3E0F925F0F0E58215827002C2
:0710C7001583E0FA38F02266
:0910CE00EBF0A3EAF0A3E9F02223
:0910D700E2FB08E2FA08E2F9224A
:0C10E000E493FB740193FA740293F9226C
:1010EC00D083D082F8E4937012740193700DA3A393
:1010FC0093F8740193F5828883E4737402936860A7
:06110C00EFA3A3A380DFA6
:10281200EFB40A07740D12281D740A309811A89992
:10282200B8130CC2983098FDA899C298B811F63026
:0728320099FDC299F59922FE
:00000001FF
