:091DE6004101D0004201D10000CE
:10195700E4FFFE43B30453B4FBD292000FBF000170
:101967000EEF64C84E70F443B10153B2FEC2804318
:10197700B30153B4FEC29043B30253B4FDC291C244
:1019870082C283C284C285C286C287D294D295D2CC
:1019970096D29743E90143E94043EA1053EBEF43FB
:1019A700E94043EA2053EBDF43E98043EA4053EB46
:1019B700BF43E98043EA8053EB7F439B024387029F
:0319C7000222D425
:0924280053B3FB43B404C2922239
:10153B00E490014BF09001D0F0122428A3F0A3F01B
:10154B0000009001D2E004F070069001D1E004F0AD
:10155B009001D1E0B401E9A3E0B4F4E41222231228
:10156B00253FD2AF90018CE06002E4F090018EE059
:10157B006008E4F0121E3E12229F900190E060057D
:10158B00E4F0121486900192E06002E4F090019571
:10159B00E06023E4F012254390014BE004F0781750
:1015AB00E660047F2D80027F0390014BE0C39F40D8
:1015BB0005E4F01219571220EF90014CEFF060A4E4
:1015CB00E490014BF09001D0E0700904F0E478173F
:0E15DB00F61223DC90014CE0FF120B328086EA
:0C23C400900186EBF0A3EAF0A3E9F02200
:0C23D000900189EBF0A3EAF0A3E9F022F1
:10237900900186A3E0FAA3E0F94A60031203BF22A1
:10238900900189A3E0FAA3E0F94A60031203BF228E
:1020BD00EF4E602D90017CEEF0A3EFF0AF05A3EC99
:1020CD00F0A3EFF0AF03A3EAF0A3EFF0E4A3F0A3C6
:1020DD00F0A3F0A3F090017BF090017A04F01223AD
:0220ED00792256
:10230700E490017AF01223897B007A007900122386
:04231700C40223D009
:1014860090017AE0700302153A90017EE0FEA3E037
:10149600FF4E700302153A90017BE07035D3EF944E
:1014A60000EE9400500302153A900182E475F001B3
:1014B6001201C3FED390017DE095F090017CE09E81
:1014C6005072122389E4900182F0A3F090017B040C
:1014D600F02290017BE06401705A90018275F00160
:1014E6001201C3FED390017FE095F090017EE09E4D
:1014F6005042900180E0FEA3E0FF9400EE9400408D
:1015060025900184E475F0011201C3FCD3EF95F038
:10151600EE9C5005E490017AF090017AE070079015
:10152600017EF0A3F022E4900182F0A3F090017B0B
:05153600F012237922F0
:0A240A0000000000000000000000C8
:101DEF00013200103300000000000000000000006E
:101DFF0000000000001022000000000000000000A2
:101E0F00000000000000004801A2000000000000D8
:021E1F000000C1
:1021B700E47832F6FE7F10FDFB7A0079331203C50F
:1021C7007E007F107D007B007A0079221203C51202
:0521D70010930223A893
:0B1ECE00900153EBF0A3EAF0A3E9F051
:101ED900E4A3F0F0900156E0FFC394055029EF24E4
:101EE90080FFE43447FE122535900153E0FBA3E05F
:101EF900FAA3E0F9A3E0F582758300EF1201A1903E
:071F09000156E004F080CD59
:011F100022AE
:10204E0078987C017D017B017A01799D7E007F0568
:10205E001200DEE47832F6FE7F10FDFB7A00793353
:10206E001203C57E007F107D007B007A007922125C
:08207E0003C512109302219129
:0C23DC007B017A017998121ECE0221B715
:0E1B0900900150EBF0A3EAF0A3E9F0A3EDF099
:101B1700E4A3F0EDD3941050497832760190015048
:101B2700E0FBA3E0FAA3E0F9900022EB7008E96577
:101B3700827003EA6583602A7E007F107D007B0048
:101B47007A0079221203C5900153E0FF7E007822C4
:101B57007C007D00900150E0FBA3E0FAA3E0F912BE
:021B670000DE9E
:011B69002259
:0B0DB50090014DEBF0A3EAF0A3E9F081
:100DC000E4A3F0A3F012010464F86003020F38906A
:100DD000014DE0FBA3E0FAA3E0F99000011201410C
:100DE000D394104003020F38E4900150F090014D6D
:100DF000E0FBA3E0FAA3E0F9900001120141240115
:100E0000FFE433FE900150E0FDC39FEE6480F87470
:100E10008098501DED2401FFE433FE8F828E8312F3
:100E20000141FF900151E02FF0900150E004F0806B
:100E3000BC90014DE0FBA3E0FAA3E0F990000112A1
:100E40000141F582758300A3A3120141FF90015176
:100E5000E06F6003020F3890014DE0FBA3E0FAA3BE
:0F0E6000E0F990000212014124026003020F38F2
:100E6F00E4900152F0780D7C00FD7BFF7A24790A23
:100E7F00FE7F051200DE78127C007D007BFF7A2456
:100E8F00790F7E007F051200DE7E007F057D007BDF
:100E9F00007A00790D1203C57E007F057D007B006F
:100EAF007A0079121203C57B007A00790D121ECEDB
:100EBF0090014DE0FBA3E0FAA3E02403F9E43AFA32
:100ECF0078127C007D007E007F051200DE900152BB
:100EDF007401F0E4900150F0900150E0FF240DF9FF
:100EEF0074122FF8E6676007E4900152F0800A90C1
:100EFF000150E004F0E0B405DF900152E07026FFEE
:100F0F00FE1223F4E4900150F0900150E004F0E061
:100F1F00B4FDF67B007A0079129001587405F0E465
:090F2F00FFFE12231BE47817F603
:010F38002296
:101E3E007832E6602E122414EF24F0601524D06060
:101E4E000F242070131223E812251BE47832F62299
:101E5E0080001223E802251B7B007A0079227D1078
:101E6E00021F547B007A0079337D10122119EF6026
:0B1E7E00097B007A007933120DB522B9
:101AA5009001D3EBF0A3EAF0A3E9F0AE05E49001D1
:101AB500D6F0AF061EEF60469001D6E0FF9001D349
:101AC500E0FBA3E475F0011201D9A9F0FA120104B3
:101AD5006F9001D6F0E4A3F09001D7E0C3940850CD
:101AE500D19001D6E030E007C313648CF0800790F5
:101AF50001D6E0C313F09001D7E004F080DA90013D
:041B0500D6E0FF2205
:1017D8009001AAEBF0A3EAF0A3E9F0AE05E49001CA
:1017E800D6F0AF061EEF606B9001D6E0FF9001AA1D
:1017F800E0FBA3E475F0011201D9A9F0FA12010483
:101808006F9001D6F09001AEE004F0A3E0FF9001E4
:10181800AEE0C39F4012E4F0EFFDE49DFDE49400C8
:101828009001AB8DF01201C3E49001D7F09001D77D
:10183800E0C3940850AC9001D6E030E007C31364CD
:101848008CF080079001D6E0C313F09001D7E00434
:09185800F080DA9001D6E0FF22D5
:01253F002279
:0B23F400EF2480FFEE3447FE021E893C
:0B23FF00EF2480FFEE3447FE021A3886
:10231B00EF2480FFEE3447FE900158E090015EF011
:03232B000215E9AF
:04253500120003226B
:012540002278
:012541002277
:041E21004101D800A3
:061694007B017A01794E92
:0E169A00900150EFF0A3EBF0A3EAF0A3E9F00B
:1016A800E4A3F01223077BFF7A2579391223C47B40
:1016B800FF7A25793C1223D07B017A007D017C00DA
:1016C8007F037E001220BD900151E0FBA3E0FAA346
:1016D800E0F9740112011D2422F876F27401120156
:1016E8001D2422F87601900150E0FF740112011DBB
:1016F8002422F8A607E4900154F07823E62401FF99
:10170800E433FE900154E0FDC39FEE6480F87480DA
:1017180098502274232DF8E6FF900151E0FBA3E0D6
:10172800FAA3E0F91201042422F8EF26F6900154F6
:05173800E004F080C593
:01173D002289
:050B320090014DEFF001
:100B3700E4A3F0A3F090014EF0FE7F10FDFB7A00D6
:100B470079221203C590014DE024FEB44A00400308
:100B5700020DA1900B6875F003A4C58325F0C5832A
:100B670073020C46020C54020C72020C64020C86CF
:100B7700020DA1020C96020CAA020CCE020CBA02BC
:100B87000CE2020DA1020CF2020DA1020DA1020D51
:100B9700A1020DA1020CFD020DA1020DA1020DA1E2
:100BA700020DA1020DA1020DA1020DA1020DA102CC
:100BB7000D08020DA1020DA1020DA1020D13020DD8
:100BC700A1020D1D020DA1020DA1020DA1020DA191
:100BD700020DA1020D27020DA1020DA1020D310286
:100BE7000DA1020DA1020D3B020DA1020DA1020DE7
:100BF700A1020DA1020DA1020D45020DA1020DA139
:100C0700020DA1020DA1020DA1020D4F020DA102BD
:100C17000DA1020DA1020D59020D71020DA1020DC8
:100C270079020DA1020DA1020D83020DA1020DA1F2
:100C3700020D8D020DA1020DA1020DA1020D9A90C8
:100C470001D8E070237F50121694020D6A9001D8E4
:100C57007401F0FB7A01794E7F70020D959001D8EF
:100C6700E070057F51121694020D6A9001D8E0706A
:100C770003020DA17B017A01794E7F71020D9590D8
:100C870001D87401F0FB7A01794E7F71020D9590BE
:100C970001D8E0700B7B017A01794E7F5212169AC8
:100CA700020D6A9001D87401F0FB7A01794E7F72C8
:100CB700020D959001D8E0700B7B017A01794E7F88
:100CC7005312169A020D6A9001D8E07003020DA123
:100CD7007B017A01794E7F73020D959001D87401DB
:100CE700F0FB7A01794E7F73020D957B017A0179CA
:100CF7004E7F54020D957B017A01794E7F55020D87
:100D0700957B017A01794E7F56020D957B017A0119
:100D1700794E7F5780787B017A01794E7F58806EB4
:100D27007B017A01794E7F5980647B017A01794E84
:100D37007F5A805A7B017A01794E7F5B80507B0115
:100D47007A01794E7F5C80467B017A01794E7F5D1F
:100D5700803C9001D8E0700B7B017A01794E7F5E71
:100D670012169AE49001D8F080309001D87401F0FF
:100D770080287B017A01794E7F5F80127B017A019F
:100D8700794E7F6080087B017A01794E7F61121668
:100D97009A80077817760112204E90014EE0600D79
:0D0DA70004F07B007A007922E0FD121B09A8
:010DB400221C
:012542002276
:012543002275
:012544002274
:012545002273
:10222300A2AF9209C2AF75C7AA75C75553A37FA2C0
:102233000992AF12232E12243A12252F122245D2CD
:02224300AF22C8
:081E2500410196004101970004
:102245001223995389F0438901538EF790019674AF
:10225500FAF0A374C4F0758CFAF58AD2A9D28C224F
:0F2399007E007F0A7D007B017A01798C0203C5EB
:03000B0002186177
:10186100C0E0C0F0C083C082C0D075D000C000C04D
:1018710006900196E0F58CA3E0F58A90018C740145
:10188100F0A3E004F0C3940A4005E4F0A304F0904F
:10189100018FE004F0C394644005E4F0A304F090E8
:1018A1000191E004F0C394F4748094814005E4F064
:1018B100A304F0900193E475F0011201C3FEC3E5A6
:1018C100F094E8EE9403400A900193E4F0A3F0A3AE
:1018D10004F0D006D000D0D0D082D083D0F0D0E0B8
:0118E10032D4
:1021DC000A6D679C46F6375D4521EFAC5A50010BF2
:1021EC00DF020A6D679C46F6375D4521EFAC5A500D
:0421FC00E10BDF0212
:101E2D0045019D1262ACB366450198CCCCCCCCCCAF
:10232E0053B3FE43B40153B3FD43B40253B1FE4362
:03233E00B20122C7
:012546002272
:10226500E4FEC290EF30E704D2808002C280EF2501
:0C227500E0FFD290000EEEB408E8C2902A
:01228100223A
:04234100E4FD7FFC3C
:0F234500C29100122265AF0512226500D29122CB
:0A1F11007B019001667405F07F3F2C
:0B1F1B00900163EBF0A3EAF0A3E9F0F3
:101F2600C291E4FD122265900166E0FFEDC39F5069
:101F36001A900163E0FBA3E0FAA3E0F98D827583B2
:0D1F460000120141FF1222650D80DCD291D6
:011F5300226B
:10220000E4FEC290EF30E704D2808002C280EF2566
:10221000E0FFD290000EEEB408E843B10153B2FEE5
:02222000C2906A
:012222002299
:1022EE00E4FFFEC290EF25E0FFD290308003440160
:0822FE00FF0EEEB408EDC290E2
:0123060022B4
:10235400C291001222001222EE53B1FE43B20100D8
:02236400D29114
:012366002254
:0B1F970090014EEBF0A3EAF0A3E9F08C
:101FA200C291122200E4FD900151E0FFEDC39F5067
:101FB2001A1222EE90014EE0FBA3E0FAA3E0F98DA3
:101FC20082758300EF1201A10D80DC53B1FE43B292
:031FD20001D291A8
:011FD50022E9
:0E23A8001223417D8E7F20122345000000226B
:10219100E4FEFD7FFC1223457D8F7F20122345E461
:1021A100FD7FFD122345E4FEFF000FBF00010EBEBF
:0521B10013F7BF88F4E4
:0121B6002206
:0A2414007F07122354EF5470FF22DB
:062529007F091223542279
:07251B007D707F27022345BC
:0C23E800E4FD7FE11223457FE202234563
:0E23B600AC07122341AF04AD077F250223457B
:061F5400122414EF703CA2
:101F5A0090014DF0A3F0900166EDF07FA0121F1BD7
:101F6A00E4FD7FFD122345E490014DF0A3F00090BB
:101F7A00014EE004F0700690014DE004F090014D2E
:0C1F8A00E07004A3E064C870E51223417D
:011F96002228
:10211900AC05122414EF30E61D122341900151EC55
:10212900F07F61121F971223E812251BE4FD7FFD42
:092139001223457F01227F0022E0
:1010930078507C017D017BFF7A2179DC7E007F051E
:1010A3001200DE78557C017D017BFF7A2179E17E98
:1010B300007F031200DE78587C017D017BFF7A21DB
:1010C30079E47E007F061200DE785E7C017D017B81
:1010D300FF7A2179EA7E007F011200DE785F7C01CE
:1010E3007D017BFF7A2179EB7E007F031200DE1204
:1010F30025467D5A7F531223457DA57F53122345F1
:101103007D207F3D1223451223417FE11223457F3A
:10111300E21223457D707F271223457D017F221232
:1011230023457D037F231223457D4E7F25122345CF
:101133007D107F311223457B017A017998900166F6
:101143007405F07F30121F1B7B017A01799890019F
:10115300667405F07F2A121F1B7A017950121F1142
:101163007B017A0179589001667406F07F3A121F69
:101173001B7B017A01795E9001667401F07F39125D
:101183001F1B7B017A0179559001667403F07F3E42
:10119300121F1B7B017A01795F9001667403F07F54
:1011A3003B121F1BE4FD7F3C1223457D3F7F26122C
:0E11B3002345E4FD7F241223457F21022345BE
:0512D300900167EFF03F
:1012D800E478687C017D017BFF7A2179EEFE7F0549
:1012E8001200DE786D7C017D017BFF7A2179F37E27
:1012F800007F031200DE78707C017D017BFF7A217C
:1013080079F67E007F061200DE78767C017D017B0F
:10131800FF7A2179FC7E007F011200DE78777C015C
:101328007D017BFF7A2179FD7E007F031200DE7D3F
:101338005A7F531223457DA57F531223457D207F75
:101348003D122345122341E4FF000000000FEFB4D3
:10135800DCF7900167E0FD7F251223457D3F7F265E
:101368001223457A017968121F117B017A0179707D
:101378009001667406F07F3A121F1B7B017A01798F
:10138800769001667401F07F39121F1B7B017A0188
:10139800796D9001667403F07F3E121F1B7B017A02
:0E13A8000179779001667403F07F3B021F1BF2
:012547002271
:101A3800EFF5A6EEF5A7A2AF9209C2AF75C7AA75D2
:101A4800C755439F01A20992AFA2AF9209C2AF75D1
:101A5800C7AA75C75543A501A20992AF75AF21AFB3
:101A6800058FAEA2AF9209C2AF75C7AA75C7554315
:101A7800A401A20992AFA2AF9209C2AF75C7AA7515
:101A8800C75553A5FEA20992AFA2AF9209C2AF757E
:0D1A9800C7AA75C755539FFEA20992AF2241
:101E89008FA6EEF5A775AEFFA2AF9209C2AF75C7CF
:101E9900AA75C755439F01A20992AFA2AF9209C281
:101EA900AF75C7AA75C75543A501A20992AF75AF0A
:101EB90022A2AF9209C2AF75C7AA75C75543A4013B
:051EC900A20992AF2206
:1015E900900159EEF0A3EFF0A3EBF0A3EAF0A3E921
:0115F900F001
:1015FA00900159E0FEA3E0F5A6EEF5A7A2AF920985
:10160A00C2AF75C7AA75C755439F01A20992AFA277
:10161A00AF9209C2AF75C7AA75C75543A501A209FA
:10162A0092AF75AF21E4FEFF90015EE0FDC3EF9D2E
:10163A00EE9400502E90015BE0FBA3E0FAA3E0F9E0
:10164A008F828E83120141F5AEA2AF9209C2AF75A5
:10165A00C7AA75C75543A401A20992AF0FBF0001DB
:10166A000E80C5A2AF9209C2AF75C7AA75C75553F6
:10167A00A5FEA20992AFA2AF9209C2AF75C7AA7519
:09168A00C755539FFEA20992AF5F
:011693002234
:040003008F828E83D7
:03000700E493FF80
:01000A0022D3
:1013B600E4FED282D283D284D285D286D287D294D8
:1013C600D295D296D297EF14603114604614605BC2
:1013D6001460701470030214612405600302148300
:1013E600C282ED14600F14600E14600D24036003B6
:1013F60002148380768078807A807CC283ED1460C4
:101406000C14600B14600A24037072805E80608086
:10141600628064C284ED14600C14600B14600A24AC
:1014260003705A80468048804A804CC285ED14601D
:101436000C14600B14600A24037042802E803080E6
:10144600328034C286ED14600C14600B14600A24DA
:1014560003702A80168018801A801CC287ED1460DB
:101466000E14600F14601024037012A297800AA253
:0F147600968006A2958002A294B3E433FEAF06DF
:011485002244
:07252200E4FDFF1213B622D5
:082443007D01E4FF1213B62233
:08244B007D02E4FF1213B6222A
:082453007D03E4FF1213B62221
:08245B00E4FD7F011213B6221B
:082463007D017F011213B62276
:08246B007D027F011213B6226D
:082473007D037F011213B62264
:08247B00E4FD7F021213B622FA
:082483007D017F021213B62255
:08248B007D027F021213B6224C
:082493007D037F021213B62243
:08249B00E4FD7F031213B622D9
:0824A3007D017F031213B62234
:0824AB007D027F031213B6222B
:0824B3007D037F031213B62222
:0824BB00E4FD7F041213B622B8
:0824C3007D017F041213B62213
:0824CB007D027F041213B6220A
:0824D3007D037F041213B62201
:0824DB00E4FD7F051213B62297
:0824E3007D017F051213B622F2
:0824EB007D027F051213B622E9
:0824F3007D037F051213B622E0
:1022BA00E4FD7F051213B6EF600D7D037F0512134F
:0A22CA00B6EF60037F01227F0022BF
:06252F001207D5021FD6C1
:10228200900121E02416F582E43401F583EFF09009
:0D2292000121E004F0C3940A4002E4F022B0
:1020EF00900121E0FF900120E0FEB507037F002261
:1020FF0074162EF582E43401F583E0FF900120E0A1
:09210F0004F0C3940A4002E4F05C
:0121180022A4
:10214200900121E0FFA3E0FEB507037F0022741691
:102152002EF582E43401F583E0FF900122E004F0E1
:07216200C3940A4002E4F0FF
:012169002253
:1023670075F00BEFA4240BF582E5F03400F583E05C
:02237700FF2243
:1020860075F00BEFA42409F582E5F03400F583EC36
:10209600F0A3EDF075F00BEFA4240CF582E5F03417
:1020A60000F583EBF075F00BEFA4240DF582E5F057
:0720B6003400F583E4F02281
:09243100900121E0900120F0224D
:101FD60053B1FB53B2FB53B1F753B2F753B1EF53BF
:101FE600B2EF53B1DF53B2DF53B1BF53B2BF53B1F8
:101FF6007F53B27F53B3EF53B4EF53B3DF53B4DF22
:0D20060053B3BF53B4BF53B37F53B47F2215
:1007D500E47E017F13FD7B017A0079031203C5E4F2
:1007E500900120F0A3F0A3F0FF75F00BEFA424090E
:1007F500F582E5F03400F583E4F0A37446F075F076
:100805000BEFA42406F582E5F03400F5837402F0BD
:1008150075F00BEFA4240BF582E5F03400F583E4C5
:10082500F075F00BEFA4240CF582E5F03400F583A8
:10083500E4F075F00BEFA4240DF582E5F03400F536
:1008450083E4F00FEFB419A19000177428F090001D
:100855002DF090004EF09000A6F090006FF0900003
:1008650085F090009BF09000C7F09000B1F09000EB
:10087500DDF0E4FF0F75F00BA42403F582E5F034F9
:1008850000F58374FFF0A37425F0A37422F00F75AF
:10089500F00B7401A42403F582E5F03400F58374AC
:1008A500FFF0A37424F0A37443F00F75F00B7402EA
:1008B500A42403F582E5F03400F58374FFF0A374F6
:1008C50024F0A3744BF00F75F00B7403A42403F507
:1008D50082E5F03400F58374FFF0A37424F0A3746B
:1008E50053F00F75F00B7404A42403F582E5F0347E
:1008F50000F58374FFF0A37424F0A3745BF00F7507
:10090500F00B7405A42403F582E5F03400F5837437
:10091500FFF0A37424F0A37463F00F75F00B740655
:10092500A42403F582E5F03400F58374FFF0A37485
:1009350024F0A3746BF00F75F00B7407A42403F572
:1009450082E5F03400F58374FFF0A37424F0A374FA
:1009550073F00F75F00B7408A42403F582E5F034E9
:1009650000F58374FFF0A37424F0A3747BF00F7576
:10097500F00B7409A42403F582E5F03400F58374C3
:10098500FFF0A37424F0A37483F00F75F00B740AC1
:10099500A42403F582E5F03400F58374FFF0A37415
:1009A50024F0A3748BF00F75F00B740BA42403F5DE
:1009B50082E5F03400F58374FFF0A37424F0A3748A
:1009C50093F00F75F00B740CA42403F582E5F03455
:1009D50000F58374FFF0A37424F0A3749BF00F75E6
:1009E500F00B740DA42403F582E5F03400F583744F
:1009F500FFF0A37424F0A374A3F00F75F00B740E2D
:100A0500A42403F582E5F03400F58374FFF0A374A4
:100A150024F0A374ABF00F75F00B740FA42403F549
:100A250082E5F03400F58374FFF0A37424F0A37419
:100A3500B3F00F75F00B7410A42403F582E5F034C0
:100A450000F58374FFF0A37424F0A374BBF00F7555
:100A5500F00B7411A42403F582E5F03400F58374DA
:100A6500FFF0A37424F0A374C3F00F75F00B741298
:100A7500A42403F582E5F03400F58374FFF0A37434
:100A850024F0A374CBF00F75F00B7413A42403F5B5
:100A950082E5F03400F58374FFF0A37424F0A374A9
:100AA500D3F00F75F00B7414A42403F582E5F0342C
:100AB50000F58374FFF0A37424F0A374DBF00F75C5
:100AC500F00B7415A42403F582E5F03400F5837466
:100AD500FFF0A37424F0A374E3F00F75F00B741604
:100AE500A42403F582E5F03400F58374FFF0A374C4
:100AF50024F0A374EBF00F75F00B7417A42403F521
:100B050082E5F03400F58374FFF0A37424F0A37438
:100B1500F3F075F00BEFA42403F582E5F03400F54E
:0C0B25008374FFF0A37422F0A374BAF0F4
:010B310022A1
:100F390090014EEFF0E075F00BA42403F97400352D
:100F4900F0FA7B01900000EBF0A3EAF0A3E9F012BC
:100F5900039F1203BFEF700302102B900000E0FB08
:100F6900A3E0FAA3E0F9900003120141FFC394053D
:100F79005008900003740502108FEFC3940A5008BB
:100F8900900003740102016E90000812014170146F
:100F9900900008041201A190014EE075F003A40429
:100FA900FF122282900000E0FBA3E0FAA3E0F9908F
:100FB90000061201EFFFAEF0D39400EE9400500347
:100FC9000210929000041201EFC39FE5F09E502396
:100FD900900004E475F001120227FCE5F06F70023D
:100FE900EC6E600302109290014EE075F003A424A8
:100FF90003802B900009120141FFD3940050030292
:10100900109290000A740112016EC39F407B9000F8
:101019000AE41201A190014EE075F003A404FF0255
:101029002282900000E0FBA3E0FAA3E0F99000031C
:10103900120141FFD39405400A900003740512017F
:10104900A1802BEF600A90000374FF12016E801ECD
:10105900900008120141B40115900008E41201A1A1
:1010690090014EE075F003A42402FF122282900041
:1010790000E0FBA3E0FAA3E0F9900004E4F5F01224
:0A108900027490000AE41201A12293
:10229F00E490014DF090014DE0FFC39419500B12E3
:0A22AF000F3990014DE004F080EBC0
:0122B9002202
:09243A0053ACFE43AD0102253C48
:03253900D2B022FB
:03253C00C2B02208
:0A241E00EF600302253912253C226D
:1020130053B1BF53B2BF53B17F53B27F759850438F
:102023008920438780438E1053C4DFAB07AA06A9D8
:1020330005A8047F407E427D0F7C001202DDEF0481
:0B204300F404F58DD28ED299D2AC22AD
:1018E2009001B012039353B1BF53B2BF53B17F53B0
:1018F200B27F75985043878053C4F843C420900147
:10190200B0E0F8A3E0F9A3E0FAA3E0FB7F407E4257
:101912007D0F7C001202DDC374FF9FFF74FF9EFEE9
:10192200E49DFDE49CFC78081203808FC69001B010
:10193200E0F8A3E0F9A3E0FAA3E0FB7F407E427D5A
:101942000F7C001202DDC374FF9FFF8FC543C408E2
:05195200D299D2AC2285
:0724FB003098FDAF99C29873
:0125020022B6
:08250300C2998F993099FD2265
:1019CA009001B412039353B1FB53B2FB53B3BF5309
:1019DA00B4BF75F85075C40853C4DF9001B4E0F879
:1019EA00A3E0F9A3E0FAA3E0FB7F407E427D0F7CEF
:1019FA00001202DDC374FF9FFF74FF9EFEE49DFD8B
:101A0A00E49CFC78081203808FC69001B4E0F8A326
:101A1A00E0F9A3E0FAA3E0FB7F407E427D0F7C0061
:0E1A2A001202DDC374FF9FFF8FC543C4082264
:07250B0030F8FDAF9AC2F8A1
:0125120022A6
:08251300C2F98F9A30F9FD2294
:1022D40075C7AA75C755A2AF9209C2AF75C7AA75CB
:0A22E400C755439F80A20992AF2264
:101CDB009001B8120393538EF7438901D28CE4FF22
:101CEB00FEFDFC9001B8E0F8A3E0F9A3E0FAA3E055
:101CFB00FBC312036F602F758A7E758CFF308DFDD1
:101D0B00C28D9001B8E0FCA3E0FDA3E0FEA3E024AC
:101D1B00FFFFEE34FFFEED34FFFDEC34FFFC9001D2
:091D2B00B812039380B8C28C22A7
:101D34009001BC120393538EF7438901D28CE4FFC4
:101D4400FEFDFC9001BCE0F8A3E0F9A3E0FAA3E0F7
:101D5400FBC312036F602F758ACA758CFA308DFD30
:101D6400C28D9001BCE0FCA3E0FDA3E0FEA3E0244F
:101D7400FFFFEE34FFFEED34FFFDEC34FFFC900179
:091D8400BC12039380B8C28C224A
:101D8D009001C0120393538EEF438910D28EE4FF5E
:101D9D00FEFDFC9001C0E0F8A3E0F9A3E0FAA3E09A
:101DAD00FBC312036F602F758BEA758DCB308FFDE2
:101DBD00C28F9001C0E0FCA3E0FDA3E0FEA3E024F0
:101DCD00FFFFEE34FFFEED34FFFDEC34FFFC900120
:091DDD00C012039380B8C28E22EB
:101BC9009001C412039353C9BF53C9DF43C910D24B
:101BD900CAE4FFFEFDFC9001C4E0F8A3E0F9A3E02C
:101BE900FAA3E0FBC312036F602F75CC3075CDF8F3
:101BF90030CFFDC2CF9001C4E0FCA3E0FDA3E0FE1D
:101C0900A3E024FFFFEE34FFFEED34FFFDEC34FFCB
:0C1C1900FC9001C412039380B8C2CA22E0
:101C25009001C812039375C40743C408E4FFFEFD81
:101C3500FC9001C8E0F8A3E0F9A3E0FAA3E0FBC338
:101C450012036F603275C52C75C6CFE5C430E4FB51
:101C550053C4EF9001C8E0FCA3E0FDA3E0FEA3E0C0
:101C650024FFFFEE34FFFEED34FFFDEC34FFFC9066
:0B1C750001C812039380B553C4F7228E
:101C80009001CC12039375C40743C408E4FFFEFD22
:101C9000FC9001CCE0F8A3E0F9A3E0FAA3E0FBC3D9
:101CA00012036F603275C5D875C6FFE5C430E4FB1A
:101CB00053C4EF9001CCE0FCA3E0FDA3E0FEA3E061
:101CC00024FFFFEE34FFFEED34FFFDEC34FFFC900B
:0B1CD00001CC12039380B553C4F7222F
:1011C1000A3D3D3D3D3D3D3D3D3D3D3D3D3D3D3D81
:1011D1003D3D3D3D3D3D3D3D3D3D3D3D3D3D3D3D3E
:1011E1003D3D3D3D3D3D3D3D3D3D3D3D3D3D3D3D2E
:1011F1003D3D3D3D3D3D3D3D3D3D3D3D3D3D3D3D1E
:101201003D3D3D3D3D000A2A2020436F70797269C2
:101211006768742863292032303135204E75766F26
:10122100746F6E20546563686E6F6C6F67792043CD
:101231006F72702E20416C6C207269676874732024
:1012410072657365727665642E2020000A2A20205B
:10125100436F6E7461637420452D4D61696C3A2052
:101261004D6963726F432D38626974406E75766F94
:10127100746F6E2E636F6D2020202020202020208F
:10128100202020202020202020202020202020205D
:1012910020000A2A202044656D6F2056657273690B
:1012A1006F6E20203A202532642E2532642E25329D
:1012B10064000A2A202046696E69736865642044C7
:1012C100617465203A202532642E2532642E253240
:0212D1006400B7
:101B6A007BFF7A1179C11204DB7BFF7A12790712A3
:101B7A0004DB7BFF7A12794D1204DB7BFF7A127940
:101B8A0093900126E4F0A304F0E4A3F0A3F0A3F0F9
:101B9A00A3F01204DB7BFF7A1279B3900126740753
:101BAA00F0A374DFF0A3E4F0A37405F0A3E4F0A3B8
:0F1BBA00741FF01204DB7BFF7A1179C10204DB88
:0300000002173EA6
:10173E00787FE4F6D8FD9000007FFF7E03E4F0A3EF
:0A174E00DFFCDEFA758142021793FA
:1017580002153BE493A3F8E493A34003F68001F257
:1017680008DFF48029E493A3F85407240CC8C33392
:10177800C4540F4420C8834004F456800146F6DF61
:10178800E4800B0102040810204080901DE6E47EEE
:10179800019360BCA3FF543F30E509541FFEE49356
:1017A800A360010ECF54C025E060A840B8E493A31D
:1017B800FAE493A3F8E493A3C8C582C8CAC583CA48
:1017C800F0A3C8C582C8CAC583CADFE9DEE780BE00
:011E3D0000A4
:10000E00E709F608DFFA8046E709F208DFFA803ED4
:10001E0088828C83E709F0A3DFFA8032E309F608C1
:10002E00DFFA8078E309F208DFFA807088828C8329
:10003E00E309F0A3DFFA806489828A83E0A3F608DD
:10004E00DFFA805889828A83E0A3F208DFFA804CB7
:10005E0080D280FA80C680D4806980F2803380108E
:10006E0080A680EA809A80A880DA80E280CA8033F7
:10007E0089828A83ECFAE493A3C8C582C8CCC5836F
:10008E00CCF0A3C8C582C8CCC583CCDFE9DEE7803F
:10009E000D89828A83E493A3F608DFF9ECFAA9F0BE
:1000AE00EDFB2289828A83ECFAE0A3C8C582C8CC14
:1000BE00C583CCF0A3C8C582C8CCC583CCDFEADE2D
:1000CE00E880DB89828A83E493A3F208DFF980CC8F
:1000DE0088F0EF60010E4E60C388F0ED2402B40488
:1000EE000050B9F582EB2402B4040050AF2323452F
:0600FE00822390005E73F6
:10010400BB010689828A83E0225002E722BBFE02F9
:09011400E32289828A83E493222C
:10011D00BB010B89828A83F8E0C828F0E8225003DE
:10012D0027C722BBFE07F8E3C828F3E8228A838994
:04013D0082E49322A3
:10014100BB010CE58229F582E5833AF583E0225073
:1001510006E92582F8E622BBFE06E92582F8E222BD
:0D016100E58229F582E5833AF583E49322D7
:10016E00BB010FF8E58229F582E5833AF583E02895
:10017E00F0225009C58229F8E58226F622BBFE0937
:10018E00C58229F8E22582F222F8EA2583F583E971
:03019E0093282281
:1001A100F8BB010DE58229F582E5833AF583E8F094
:1001B100225006E92582C8F622BBFE05E92582C840
:0201C100F22228
:1001C300C5F0F8A3E028F0C5F0F8E58215827002C7
:0601D3001583E038F02264
:1001D900A3F8E0C5F025F0F0E582158270021583D9
:0601E900E0C838F0E82236
:1001EF00BB0110E58229F582E5833AF583E0F5F04E
:1001FF00A3E0225009E92582F886F008E622BBFE2B
:10020F000AE92582F8E2F5F008E222E5832AF58370
:08021F00E993F5F0A3E9932235
:10022700BB010DC58229C582C5833AC5830201C3B7
:100237005011C58229F808E5F026F618F5F0E58291
:1002470036F622BBFE11C58229F808E225F0F5F043
:10025700F218E23582F222F8E58229F582E5832A4F
:0D026700F58374019325F0F5F0E49338223F
:10027400F8BB0111E58229F582E5833AF583E8F0BC
:10028400E5F0A3F0225009E92582C8F608A6F02279
:0D029400BBFE09E92582C8F2E5F008F22260
:1002A10075F008758200EF2FFFEE33FECD33CDCC14
:1002B10033CCC58233C5829BED9AEC99E582984097
:1002C1000CF582EE9BFEED9AFDEC99FC0FD5F0D674
:1002D100E4CEFBE4CDFAE4CCF9A88222B800C1B99E
:1002E1000059BA002DEC8BF084CFCECDFCE5F0CBDC
:1002F100F97818EF2FFFEE33FEED33FDEC33FCEB15
:1003010033FB10D703994004EB99FB0FD8E5E4F9CF
:10031100FA227818EF2FFFEE33FEED33FDEC33FCBC
:10032100C933C910D7059BE99A4007EC9BFCE99AB0
:10033100F90FD8E0E4C9FAE4CCFB2275F010EF2FF5
:10034100FFEE33FEED33FDCC33CCC833C810D707F5
:100351009BEC9AE899400AED9BFDEC9AFCE899F830
:0E0361000FD5F0DAE4CDFBE4CCFAE4C8F922C3
:10036F00EB9FF5F0EA9E42F0E99D42F0E89C45F0E4
:01037F00225B
:10038000E8600FECC313FCED13FDEE13FEEF13FF5B
:03039000D8F1227F
:0C039300ECF0A3EDF0A3EEF0A3EFF022DD
:10039F00BB010789828A8302040C5005E9F8020425
:1003AF0003BBFE05E9F802043589828A8302043E05
:0603BF008A838982E473C9
:10047000E5082426F582E43401F583E0050822909E
:100480000123300703900126E475F00112041502E0
:1004900001042000E97F2ED2008018EF540F249031
:1004A000D43440D4FF30040BEF24BFB41A005003FF
:1004B0002461FFE50960021509050CE50C700205D1
:1004C0000B30070E900123E475F001120415EF02C2
:1004D00003F102216A7403D2078003E4C207F5081E
:1004E00090012312042CE4F509F50BF50CE50960E5
:1004F000077F201204B380F5750AFFC201C200C253
:1005000002C203C205C206C20812047FFF700D308A
:1005100007057F001204C4AF0CAE0B22B4255FC2E6
:10052000D5C20412047FFF24D0B40A00501A75F01B
:100530000A780930D50508B6FF0106C6A426F620BC
:10054000D5047002D20380D924CFB41A00EF50042E
:10055000C2E5D2040206C5D20180C6D20080C0D254
:100560000280BCD2D580BAD20580B47F201204B3F9
:100570002002077401B5090040F1120470FF120453
:10058000B30204EDD208D2068095120470FB120467
:1005900070FA120470F94A4B700679967A077BFF5D
:1005A00020022EE509602A7E008E827583001201EA
:1005B0004160060EEE650A70F0C2D5EBC0E0EAC0FD
:1005C000E0E9C0E0EE12070CD0E0F9D0E0FAD0E0AC
:1005D000FB120104FF60AAEBC0E0EAC0E0E9C0E062
:1005E0001204B3D0E02401F9D0E03400FAD0E0FBEB
:1005F000E50A0460DCD50AD980877BFF7A07790891
:10060000D202809C791080027908C206C208800854
:10061000D2D5790A8004790AC2D5E50A047002F5B8
:100620000AE4FAFDFEFF120470FC7B08200113129D
:100630000470FD7B1030000A120470FE120470FF7B
:100640007B20EC3382D592D55013C3E43000069F53
:10065000FFE49EFEE42001039DFDE49CFCE4CBF856
:10066000C201EC700CCFCECDCCE824F8F870F3804A
:1006700017C3EF33FFEE33FEED33FDEC33FCEB330A
:10068000FB994002FB0FD8E9EB300105F8D0E0C43C
:1006900048B201C0E00AEC4D4E4F78207B0070C29A
:1006A000EAB50A0040BCC0E012070ED0F0D0E0204E
:1006B0000104C4C0E0C4B201C0F012049CD0F0D563
:1006C000F0EB0204ED12044A058A53060458055B58
:1006D0004C05574206084F06104406104905704362
:0806E00006165505FA4605FA5D
:1006E8004505FA4707B650055F2D05632E05862B8D
:1006F800056723058420079F2A051F480000057EFB
:100708003F3F3F00790AA2D5200314300509B910EC
:10071800020404B9080104A2D520060250010420ED
:1007280002689202B509005034C0E07F20300319F6
:100738007F30A20272067205500F120765C202C20C
:1007480006C205C2087F30800F300503E9C0E012F9
:1007580004B3300503D0E0F9D0E0B509CC30051773
:100768007F30B9100C1204B37F583004077F7880AB
:1007780003B908031204B33002057F2D0204B37FC6
:10078800202008F87F2B2006F322920280CF286EC3
:10079800756C6C2900D2011204703001F8C201781E
:1007A8000930D50108F602051F2D50434958120497
:1007B800702403B405004001E49007B1931204A427
:0D07C800743A1204A4D20375090402060459
:1003C500EF4E6012EF60010EEDBB010B89828A834F
:1003D500F0A3DFFCDEFA2289F05007F709DFFCA95C
:0C03E500F022BBFEFCF309DFFCA9F022B3
:1003F100BB010689828A83F0225002F722BBFE01EB
:02040100F322E4
:09040300E6FB08E6FA08E6F9221E
:09040C00E0FBA3E0FAA3E0F922F1
:10041500F8E0FBA3A3E0F925F0F0E5821582700270
:070425001583E0FA38F02214
:09042C00EBF0A3EAF0A3E9F022D1
:09043500E2FB08E2FA08E2F922F8
:0C043E00E493FB740193FA740293F9221A
:10044A00D083D082F8E4937012740193700DA3A341
:10045A0093F8740193F5828883E473740293686055
:06046A00EFA3A3A380DF55
:10216A00EFB40A07740D122175740A309811A899F0
:10217A00B8130CC2983098FDA899C298B811F630D5
:07218A0099FDC299F59922AD
:00000001FF
