:091E26004101D7004201D800007F
:10199700E4FFFE43B30453B4FBD292000FBF000130
:1019A7000EEF64C84E70F443B10153B2FEC28043D8
:1019B700B30153B4FEC29043B30253B4FDC291C204
:1019C70082C283C284C285C286C287D294D295D28C
:1019D70096D29743E90143E94043EA1053EBEF43BB
:1019E700E94043EA2053EBDF43E98043EA4053EB06
:1019F700BF43E98043EA8053EB7F439B024387025F
:031A070002236A4D
:0924AB0053B3FB43B404C29222B6
:10156D00E490014BF09001D7F01224ABA3F0A3F05F
:10157D0000009001D9E004F070069001D8E004F06D
:10158D009001D8E0B401E9A3E0B4F4E41222B91259
:10159D0025C2D2AF90018CE06002E4F090018EE0A4
:1015AD006008E4F0121ED4122335900190E060051E
:1015BD00E4F01214B8900193E06002E4F09001960B
:1015CD00E06026E4F01225C690014BE004F0781798
:1015DD00E660047F1E80027F0390014BE0C39F40B5
:1015ED0008E4F012239D12199712218590014CEFFA
:1015FD00F060A1E490014BF09001D7E0700904F088
:10160D00E47817F612245F90014CE0FF120B328044
:01161D008349
:0C244700900186EBF0A3EAF0A3E9F0227C
:0C245300900189EBF0A3EAF0A3E9F0226D
:1023FC00900186A3E0FAA3E0F94A60031203BF221E
:10240C00900189A3E0FAA3E0F94A60031203BF220A
:10215300EF4E602D90017CEEF0A3EFF0AF05A3EC02
:10216300F0A3EFF0AF03A3EAF0A3EFF0E4A3F0A32F
:10217300F0A3F0A3F090017BF090017A04F0122316
:02218300FC223C
:10239D00E490017AF012240C7B007A00790012246B
:0423AD00470224536C
:1014B80090017AE0700302156C90017EE0FEA3E0D3
:1014C800FF4E700302156C90017BE07035D3EF94EA
:1014D80000EE9400500302156C900182E475F0014F
:1014E8001201C3FED390017DE095F090017CE09E4F
:1014F800507212240CE4900182F0A3F090017B0456
:10150800F02290017BE06401705A90018275F0012D
:101518001201C3FED390017FE095F090017EE09E1A
:101528005042900180E0FEA3E0FF9400EE9400405A
:1015380025900184E475F0011201C3FCD3EF95F006
:10154800EE9C5005E490017AF090017AE0700790E3
:10155800017EF0A3F022E4900182F0A3F090017BD9
:05156800F01223FC223B
:0A248D000000000000000000000045
:101E2F00013200103300000000000000000000002D
:101E3F000000000000102200000000000000000061
:101E4F00000000000000004801A300000000000097
:021E5F00000081
:10224D00E47832F6FE7F10FDFB7A0079331203C578
:10225D007E007F107D007B007A0079221203C5126B
:05226D0010C502242B46
:0B1F6400900153EBF0A3EAF0A3E9F0BA
:101F6F00E4A3F0F0900156E0FFC394055029EF244D
:101F7F0080FFE43447FE1225B8900153E0FBA3E045
:101F8F00FAA3E0F9A3E0F582758300EF1201A190A7
:071F9F000156E004F080CDC3
:011FA6002218
:1020E40078997C017D017B017A01799E7E007F05D0
:1020F4001200DEE47832F6FE7F10FDFB7A007933BD
:102104001203C57E007F107D007B007A00792212C5
:0821140003C51210C5022227C9
:0C245F007B017A017999121F6402224D62
:0E1B4900900150EBF0A3EAF0A3E9F0A3EDF059
:101B5700E4A3F0EDD3941050497832760190015008
:101B6700E0FBA3E0FAA3E0F9900022EB7008E96537
:101B7700827003EA6583602A7E007F107D007B0008
:101B87007A0079221203C5900153E0FF7E00782284
:101B97007C007D00900150E0FBA3E0FAA3E0F9127E
:021BA70000DE5E
:011BA9002219
:0B0DE40090014DEBF0A3EAF0A3E9F052
:100DEF00E4A3F0A3F012010464F86003020F6A9009
:100DFF00014DE0FBA3E0FAA3E0F9900001120141DD
:100E0F00D394104003020F6AE4900150F090014D0B
:100E1F00E0FBA3E0FAA3E0F99000011201412401E5
:100E2F00FFE433FE900150E0FDC39FEE6480F87441
:100E3F008098501DED2401FFE433FE8F828E8312C4
:100E4F000141FF900151E02FF0900150E004F0803C
:100E5F00BC90014DE0FBA3E0FAA3E0F99000011272
:100E6F000141F582758300A3A3120141FF90015147
:100E7F00E06F6003020F6A90014DE0FBA3E0FAA35D
:0F0E8F00E0F990000212014124026003020F6A91
:100E9E00E4900152F0780D7C00FD7BFF7A24798D71
:100EAE00FE7F051200DE78127C007D007BFF7A2427
:100EBE0079927E007F051200DE7E007F057D007B2D
:100ECE00007A00790D1203C57E007F057D007B0040
:100EDE007A0079121203C57B007A00790D121F6415
:100EEE0090014DE0FBA3E0FAA3E02403F9E43AFA03
:100EFE0078127C007D007E007F051200DE9001528C
:100F0E007401F0E4900150F0900150E0FF240DF9CF
:100F1E0074122FF8E6676007E4900152F0800A9091
:100F2E000150E004F0E0B405DF900152E07026FFBE
:100F3E00FE122477E4900150F0900150E004F0E0AE
:100F4E00B4FDF67B007A0079129001587405F0E436
:0C0F5E00FFFE121E7EE47817F612239DA1
:010F6A002264
:101ED4007832E6602E122497EF24F0601524D06047
:101EE4000F2420701312246B12259EE47832F622FC
:101EF400800012246B02259E7B007A0079227D10DB
:101F0400021FEA7B007A0079337D101221AFEF6063
:0B1F1400097B007A007933120DE422F3
:101AE5009001DAEBF0A3EAF0A3E9F0AE05E490018A
:101AF500DDF0AF061EEF60469001DDE0FF9001DAF4
:101B0500E0FBA3E475F0011201D9A9F0FA12010472
:101B15006F9001DDF0E4A3F09001DEE0C39408507E
:101B2500D19001DDE030E007C313648CF0800790AD
:101B350001DDE0C313F09001DEE004F080DA9001EE
:041B4500DDE0FF22BE
:101899009001ABEBF0A3EAF0A3E9F0AE05E4900107
:1018A900DDF0AF061EEF606B9001DDE0FF9001AB4C
:1018B900E0FBA3E475F0011201D9A9F0FA120104C1
:1018C9006F9001DDF09001AFE004F0A3E0FF90011B
:1018D900AFE0C39F4012E4F0EFFDE49DFDE4940006
:1018E9009001AC8DF01201C3E49001DEF09001DEAD
:1018F900E0C3940850AC9001DDE030E007C3136405
:101909008CF080079001DDE0C313F09001DEE00464
:09191900F080DA9001DDE0FF220C
:0125C20022F6
:0B247700EF2480FFEE3447FE021F1F21
:0B248200EF2480FFEE3447FE021A78C2
:101E7E00900153EEF0A3EFF0A3EBF0A3EAF0A3E989
:011E8E00F063
:101E8F00E4900159F0F0900158E0FFA3E0FEC39FEA
:101E9F005032EEFF900154E02FFF900153E03400D9
:101EAF00FE900155E0FBA3E0FAA3E0F9900159E0A1
:101EBF00F582758300120141FD122482900159E0D1
:041ECF0004F080C2D9
:011ED30022EC
:0425B80012000322E8
:0125C30022F5
:0125C40022F4
:041E61004101DF005C
:0616C9007B017A01794E5D
:0E16CF00900150EFF0A3EBF0A3EAF0A3E9F0D6
:1016DD00E4A3F012239D7BFF7A2579BC1224477B6E
:1016ED00FF7A2579BF1224537B017A007D017C009E
:1016FD007F037E00122153900151E0FBA3E0FAA37A
:10170D00E0F9740112011D2422F876F27401120120
:10171D001D2422F87601900150E0FF740112011D85
:10172D002422F8A607E4900154F07823E62401FF63
:10173D00E433FE900154E0FDC39FEE6480F87480A5
:10174D0098502274232DF8E6FF900151E0FBA3E0A1
:10175D00FAA3E0F91201042422F8EF26F6900154C1
:05176D00E004F080C55E
:011772002254
:050B320090014DEFF001
:100B3700E4A3F0A3F07817E66003020DE3E4900165
:100B47004EF0FE7F10FDFB7A0079221203C590015B
:100B57004DE024FEB44A004003020DD0900B71759E
:100B6700F003A4C58325F0C58373020C4F020C5D07
:100B7700020C7B020C6D020C8F020DD0020C9F023F
:100B87000CB3020CD7020CC3020CEB020DD0020C03
:100B9700FB020DD0020DD0020DD0020DD0020D06C2
:100BA700020DD0020DD0020DD0020DD0020DD002E1
:100BB7000DD0020DD0020DD0020D11020DD0020D85
:100BC700D0020DD0020D1C020DD0020D26020DD051
:100BD700020DD0020DD0020DD0020DD0020D300251
:100BE7000DD0020DD0020D3A020DD0020DD0020D2C
:100BF70044020DD0020DD0020DD0020DD0020DD04F
:100C0700020D4E020DD0020DD0020DD0020DD00202
:100C17000DD0020D58020DD0020DD0020DD0020DDD
:100C270062020D7A020DD0020D82020DD0020DD0A4
:100C3700020D8C020DD0020DD0020D96020DD002CE
:100C47000DD0020DD0020DA39001DFE070237F507D
:100C57001216C9020D739001DF7401F0FB7A017956
:100C67004E7F70020D9E9001DFE070057F511216D6
:100C7700C9020D739001DFE07003020DD07B017A8A
:100C870001794E7F71020D9E9001DF7401F0FB7AAE
:100C970001794E7F71020D9E9001DFE0700B7B01A1
:100CA7007A01794E7F521216CF020D739001DF74CD
:100CB70001F0FB7A01794E7F72020D9E9001DFE011
:100CC700700B7B017A01794E7F531216CF020D7399
:100CD7009001DFE07003020DD07B017A01794E7F2E
:100CE70073020D9E9001DF7401F0FB7A01794E7F4C
:100CF70073020D9E7B017A01794E7F54020D9E7B14
:100D0700017A01794E7F55020D9E7B017A01794E5A
:100D17007F56020D9E7B017A01794E7F5780787B43
:100D2700017A01794E7F58806E7B017A01794E7F77
:100D37005980647B017A01794E7F5A805A7B017A08
:100D470001794E7F5B80507B017A01794E7F5C8011
:100D5700467B017A01794E7F5D803C9001DFE07030
:100D67000B7B017A01794E7F5E1216CFE49001DF8B
:100D7700F080569001DF7401F0804E7B017A017993
:100D87004E7F5F80127B017A01794E7F6080087BFE
:100D9700017A01794E7F611216CF802D781776017F
:100DA7001220E412239D7BFF7A2579BC1224477B0E
:100DB700FF7A2579BF122453E4FBFA7D04FC7F01F7
:100DC700FE122153E490014EF090014EE0600D04B5
:0C0DD700F07B007A007922E0FD121B493D
:010DE30022ED
:0125C50022F3
:0125C60022F2
:0125C70022F1
:0125C80022F0
:1022B900A2AF9209C2AF75C7AA75C75553A37FA22A
:1022C9000992AF1223B11224BD1225B21222DBD218
:0222D900AF2232
:081E65004101970041019800C2
:1022DB0012241C5389F0438901538EF79001977494
:1022EB00FAF0A374C4F0758CFAF58AD2A9D28C22B9
:0F241C007E007F0B7D007B017A01798C0203C566
:03000B0002180DCB
:10180D00C0E0C0F0C083C082C0D075D000C000C0A1
:10181D0006900197E0F58CA3E0F58A90018C740198
:10182D00F0A3E004F0C3940A4005E4F0A304F090A3
:10183D00018FE004F0C394644005E4F0A304F0903C
:10184D000191E475F0011201C3FEC3E5F094F4EECD
:10185D009401400A900191E4F0A3F0A304F09001EB
:10186D0094E475F0011201C3FEC3E5F094E8EE9423
:10187D0003400A900194E4F0A3F0A304F0D006D045
:0C188D0000D0D0D082D083D0F0D0E03268
:102272000A6D679C46F6375D4521EFAC5A50010B5B
:10228200DF020A6D679C46F6375D4521EFAC5A5076
:04229200E10BDF027B
:101E6D0045019E1262ACB366450199CCCCCCCCCC6D
:1023B10053B3FE43B40153B3FD43B40253B1FE43DF
:0323C100B2012244
:0125C90022EF
:1022FB00E4FEC290EF30E704D2808002C280EF256B
:0C230B00E0FFD290000EEEB408E8C29093
:0123170022A3
:0423C400E4FD7FFCB9
:0F23C800C291001222FBAF051222FB00D291221C
:0A1FA7007B019001667405F07F3F96
:0B1FB100900163EBF0A3EAF0A3E9F05D
:101FBC00C291E4FD1222FB900166E0FFEDC39F503D
:101FCC001A900163E0FBA3E0FAA3E0F98D8275831C
:0D1FDC0000120141FF1222FB0D80DCD291AA
:011FE90022D5
:10229600E4FEC290EF30E704D2808002C280EF25D0
:1022A600E0FFD290000EEEB408E843B10153B2FE4F
:0222B600C290D4
:0122B8002203
:10238400E4FFFEC290EF25E0FFD2903080034401C9
:08239400FF0EEEB408EDC2904B
:01239C00221E
:1023D700C2910012229612238453B1FE43B2010028
:0223E700D29191
:0123E90022D1
:0B202D0090014EEBF0A3EAF0A3E9F0F5
:10203800C291122296E4FD900151E0FFEDC39F503A
:102048001A12238490014EE0FBA3E0FAA3E0F98D75
:1020580082758300EF1201A10D80DC53B1FE43B2FB
:0320680001D29111
:01206B002252
:0E242B001223C47D8E7F201223C800000022E1
:10222700E4FEFD7FFC1223C87D8F7F201223C8E4C4
:10223700FD7FFD1223C8E4FEFF000FBF00010EBEA5
:0522470013F7BF88F44D
:01224C00226F
:0A2497007F071223D7EF5470FF22D5
:0625AC007F091223D72273
:07259E007D707F270223C8B6
:0C246B00E4FD7FE11223C87FE20223C8D9
:0E243900AC071223C4AF04AD077F250223C8F1
:061FEA00122497EF703C89
:101FF00090014DF0A3F0900166EDF07FA0121FB1AB
:10200000E4FD7FFD1223C8E490014DF0A3F00090A1
:10201000014EE004F0700690014DE004F090014D97
:0C202000E07004A3E064C870E51223C463
:01202C002291
:1021AF00AC05122497EF30E61D1223C4900151ECB9
:1021BF00F07F6112202D12246B12259EE4FD7FFD0E
:0921CF001223C87F01227F0022C7
:1010C50078507C017D017BFF7A2279727E007F0555
:1010D5001200DE78557C017D017BFF7A2279777ECF
:1010E500007F031200DE78587C017D017BFF7A22A8
:1010F500797A7E007F061200DE785E7C017D017BB9
:10110500FF7A2279807E007F011200DE785F7C0104
:101115007D017BFF7A2279817E007F031200DE123A
:1011250025C97D5A7F531223C87DA57F531223C835
:101135007D207F3D1223C81223C47FE11223C87F7F
:10114500E21223C87D707F271223C87D017F2212FA
:1011550023C87D037F231223C87D4E7F251223C814
:101165007D107F311223C87B017A01799990016640
:101175007405F07F30121FB17B017A0179999001D6
:10118500667405F07F2A121FB17A017950121FA7E4
:101195007B017A0179589001667406F07F3A121F37
:1011A500B17B017A01795E9001667401F07F391295
:1011B5001FB17B017A0179559001667403F07F3E7A
:1011C500121FB17B017A01795F9001667403F07F8C
:1011D5003B121FB1E4FD7F3C1223C87D3F7F2612E1
:0E11E50023C8E4FD7F241223C87F210223C803
:05130500900167EFF00C
:10130A00E478687C017D017BFF7A227984FE7F057F
:10131A001200DE786D7C017D017BFF7A2279897E5D
:10132A00007F031200DE78707C017D017BFF7A2248
:10133A00798C7E007F061200DE78767C017D017B47
:10134A00FF7A2279927E007F011200DE78777C0193
:10135A007D017BFF7A2279937E007F031200DE7D76
:10136A005A7F531223C87DA57F531223C87D207F3D
:10137A003D1223C81223C4E4FF000000000FEFB49B
:10138A00DCF7900167E0FD7F251223C87D3F7F26A9
:10139A001223C87A017968121FA77B017A01797032
:1013AA009001667406F07F3A121FB17B017A0179C7
:1013BA00769001667401F07F39121FB17B017A01C0
:1013CA00796D9001667403F07F3E121FB17B017A3A
:0E13DA000179779001667403F07F3B021FB12A
:0125CA0022EE
:101A7800EFF5A6EEF5A7A2AF9209C2AF75C7AA7592
:101A8800C755439F01A20992AFA2AF9209C2AF7591
:101A9800C7AA75C75543A501A20992AF75AF21AF73
:101AA800058FAEA2AF9209C2AF75C7AA75C75543D5
:101AB800A401A20992AFA2AF9209C2AF75C7AA75D5
:101AC800C75553A5FEA20992AFA2AF9209C2AF753E
:0D1AD800C7AA75C755539FFEA20992AF2201
:101F1F008FA6EEF5A775AEFFA2AF9209C2AF75C738
:101F2F00AA75C755439F01A20992AFA2AF9209C2EA
:101F3F00AF75C7AA75C75543A501A20992AF75AF73
:101F4F0022A2AF9209C2AF75C7AA75C75543A401A4
:051F5F00A20992AF226F
:10161E009001B1EEF0A3EFF0A3EBF0A3EAF0A3E993
:01162E00F0CB
:10162F009001B1E0FEA3E0F5A6EEF5A7A2AF9209F7
:10163F00C2AF75C7AA75C755439F01A20992AFA242
:10164F00AF9209C2AF75C7AA75C75543A501A209C5
:10165F0092AF75AF21E4FEFF9001B6E0FDC3EF9DA1
:10166F00EE9400502E9001B3E0FBA3E0FAA3E0F953
:10167F008F828E83120141F5AEA2AF9209C2AF7570
:10168F00C7AA75C75543A401A20992AF0FBF0001A6
:10169F000E80C5A2AF9209C2AF75C7AA75C75553C1
:1016AF00A5FEA20992AFA2AF9209C2AF75C7AA75E4
:0916BF00C755539FFEA20992AF2A
:0116C80022FF
:040003008F828E83D7
:03000700E493FF80
:01000A0022D3
:1013E800E4FED282D283D284D285D286D287D294A6
:1013F800D295D296D297EF14603114604614605B90
:10140800146070147003021493240560030214B569
:10141800C282ED14600F14600E14600D2403600383
:101428000214B580768078807A807CC283ED14605F
:101438000C14600B14600A24037072805E80608054
:10144800628064C284ED14600C14600B14600A247A
:1014580003705A80468048804A804CC285ED1460EB
:101468000C14600B14600A24037042802E803080B4
:10147800328034C286ED14600C14600B14600A24A8
:1014880003702A80168018801A801CC287ED1460A9
:101498000E14600F14601024037012A297800AA221
:0F14A800968006A2958002A294B3E433FEAF06AD
:0114B7002212
:0725A500E4FDFF1213E82220
:0824C6007D01E4FF1213E8227E
:0824CE007D02E4FF1213E82275
:0824D6007D03E4FF1213E8226C
:0824DE00E4FD7F011213E82266
:0824E6007D017F011213E822C1
:0824EE007D027F011213E822B8
:0824F6007D037F011213E822AF
:0824FE00E4FD7F021213E82245
:082506007D017F021213E8229F
:08250E007D027F021213E82296
:082516007D037F021213E8228D
:08251E00E4FD7F031213E82223
:082526007D017F031213E8227E
:08252E007D027F031213E82275
:082536007D037F031213E8226C
:08253E00E4FD7F041213E82202
:082546007D017F041213E8225D
:08254E007D027F041213E82254
:082556007D037F041213E8224B
:08255E00E4FD7F051213E822E1
:082566007D017F051213E8223C
:08256E007D027F051213E82233
:082576007D037F051213E8222A
:10235000E4FD7F051213E8EF600D7D037F05121386
:0A236000E8EF60037F01227F0022F6
:0625B2001207D502206CA7
:10231800900121E02416F582E43401F583EFF09072
:0D2328000121E004F0C3940A4002E4F02219
:10218500900121E0FF900120E0FEB507037F0022CA
:1021950074162EF582E43401F583E0FF900120E00A
:0921A50004F0C3940A4002E4F0C6
:0121AE00220E
:1021D800900121E0FFA3E0FEB507037F00227416FB
:1021E8002EF582E43401F583E0FF900122E004F04B
:0721F800C3940A4002E4F069
:0121FF0022BD
:1023EA0075F00BEFA4240BF582E5F03400F583E0D9
:0223FA00FF22C0
:10211C0075F00BEFA42409F582E5F03400F583EC9F
:10212C00F0A3EDF075F00BEFA4240CF582E5F03480
:10213C0000F583EBF075F00BEFA4240DF582E5F0C0
:07214C003400F583E4F022EA
:0924B400900121E0900120F022CA
:10206C0053B1FB53B2FB53B1F753B2F753B1EF5328
:10207C00B2EF53B1DF53B2DF53B1BF53B2BF53B161
:10208C007F53B27F53B3EF53B4EF53B3DF53B4DF8B
:0D209C0053B3BF53B4BF53B37F53B47F227F
:1007D500E47E017F13FD7B017A0079031203C5E4F2
:1007E500900120F0A3F0A3F0FF75F00BEFA424090E
:1007F500F582E5F03400F583E4F0A37446F075F076
:100805000BEFA42406F582E5F03400F5837402F0BD
:1008150075F00BEFA4240BF582E5F03400F583E4C5
:10082500F075F00BEFA4240CF582E5F03400F583A8
:10083500E4F075F00BEFA4240DF582E5F03400F536
:1008450083E4F00FEFB419A19000177428F090001D
:100855002DF090004EF09000A6F090006FF0900003
:1008650085F090009BF09000C7F09000B1F09000EB
:10087500DDF0E4FF0F75F00BA42403F582E5F034F9
:1008850000F58374FFF0A37425F0A374A5F00F752C
:10089500F00B7401A42403F582E5F03400F58374AC
:1008A500FFF0A37424F0A374C6F00F75F00B740267
:1008B500A42403F582E5F03400F58374FFF0A374F6
:1008C50024F0A374CEF00F75F00B7403A42403F584
:1008D50082E5F03400F58374FFF0A37424F0A3746B
:1008E500D6F00F75F00B7404A42403F582E5F034FB
:1008F50000F58374FFF0A37424F0A374DEF00F7584
:10090500F00B7405A42403F582E5F03400F5837437
:10091500FFF0A37424F0A374E6F00F75F00B7406D2
:10092500A42403F582E5F03400F58374FFF0A37485
:1009350024F0A374EEF00F75F00B7407A42403F5EF
:1009450082E5F03400F58374FFF0A37424F0A374FA
:10095500F6F00F75F00B7408A42403F582E5F03466
:1009650000F58374FFF0A37424F0A374FEF00F75F3
:10097500F00B7409A42403F582E5F03400F58374C3
:10098500FFF0A37425F0A37406F00F75F00B740A3D
:10099500A42403F582E5F03400F58374FFF0A37415
:1009A50025F0A3740EF00F75F00B740BA42403F55A
:1009B50082E5F03400F58374FFF0A37425F0A37489
:1009C50016F00F75F00B740CA42403F582E5F034D2
:1009D50000F58374FFF0A37425F0A3741EF00F7562
:1009E500F00B740DA42403F582E5F03400F583744F
:1009F500FFF0A37425F0A37426F00F75F00B740EA9
:100A0500A42403F582E5F03400F58374FFF0A374A4
:100A150025F0A3742EF00F75F00B740FA42403F5C5
:100A250082E5F03400F58374FFF0A37425F0A37418
:100A350036F00F75F00B7410A42403F582E5F0343D
:100A450000F58374FFF0A37425F0A3743EF00F75D1
:100A5500F00B7411A42403F582E5F03400F58374DA
:100A6500FFF0A37425F0A37446F00F75F00B741214
:100A7500A42403F582E5F03400F58374FFF0A37434
:100A850025F0A3744EF00F75F00B7413A42403F531
:100A950082E5F03400F58374FFF0A37425F0A374A8
:100AA50056F00F75F00B7414A42403F582E5F034A9
:100AB50000F58374FFF0A37425F0A3745EF00F7541
:100AC500F00B7415A42403F582E5F03400F5837466
:100AD500FFF0A37425F0A37466F00F75F00B741680
:100AE500A42403F582E5F03400F58374FFF0A374C4
:100AF50025F0A3746EF00F75F00B7417A42403F59D
:100B050082E5F03400F58374FFF0A37425F0A37437
:100B150076F075F00BEFA42403F582E5F03400F5CB
:0C0B25008374FFF0A37423F0A37450F05D
:010B310022A1
:100F6B0090014EEFF0E075F00BA42403F9740035FB
:100F7B00F0FA7B01900000EBF0A3EAF0A3E9F0128A
:100F8B00039F1203BFEF700302105D900000E0FBA4
:100F9B00A3E0FAA3E0F9900003120141FFC394050B
:100FAB00500890000374050210C1EFC3940A500857
:100FBB00900003740102016E90000812014170143D
:100FCB00900008041201A190014EE075F003A404F7
:100FDB00FF122318900000E0FBA3E0FAA3E0F990C6
:100FEB0000061201EFFFAEF0D39400EE9400500315
:100FFB000210C49000041201EFC39FE5F09E502332
:10100B00900004E475F001120227FCE5F06F70020A
:10101B00EC6E60030210C490014EE075F003A42443
:10102B0003802B900009120141FFD394005003025F
:10103B0010C490000A740112016EC39F407B900094
:10104B000AE41201A190014EE075F003A404FF0223
:10105B002318900000E0FBA3E0FAA3E0F990000353
:10106B00120141FFD39405400A900003740512014D
:10107B00A1802BEF600A90000374FF12016E801E9B
:10108B00900008120141B40115900008E41201A16F
:10109B0090014EE075F003A42402FF122318900078
:1010AB0000E0FBA3E0FAA3E0F9900004E4F5F012F2
:0A10BB00027490000AE41201A12261
:10233500E490014DF090014DE0FFC39419500B124C
:0A2345000F6B90014DE004F080EBF7
:01234F00226B
:0924BD0053ACFE43AD010225BF42
:0325BC00D2B02278
:0325BF00C2B02285
:0A24A100EF60030225BC1225BF22E4
:1020A90053B1BF53B2BF53B17F53B27F75985043F9
:1020B9008920438780438E1053C4DFAB07AA06A942
:1020C90005A8047F407E427D0F7C001202DDEF04EB
:0B20D900F404F58DD28ED299D2AC2217
:101922009001B712039353B1BF53B2BF53B17F5368
:10193200B27F75985043878053C4F843C420900106
:10194200B7E0F8A3E0F9A3E0FAA3E0FB7F407E4210
:101952007D0F7C001202DDC374FF9FFF74FF9EFEA9
:10196200E49DFDE49CFC78081203808FC69001B7C9
:10197200E0F8A3E0F9A3E0FAA3E0FB7F407E427D1A
:101982000F7C001202DDC374FF9FFF8FC543C408A2
:05199200D299D2AC2245
:07257E003098FDAF99C298EF
:012585002233
:08258600C2998F993099FD22E2
:101A0A009001BB12039353B1FB53B2FB53B3BF53C1
:101A1A00B4BF75F85075C40853C4DF9001BBE0F831
:101A2A00A3E0F9A3E0FAA3E0FB7F407E427D0F7CAE
:101A3A00001202DDC374FF9FFF74FF9EFEE49DFD4A
:101A4A00E49CFC78081203808FC69001BBE0F8A3DF
:101A5A00E0F9A3E0FAA3E0FB7F407E427D0F7C0021
:0E1A6A001202DDC374FF9FFF8FC543C4082224
:07258E0030F8FDAF9AC2F81E
:012595002223
:08259600C2F98F9A30F9FD2211
:10236A0075C7AA75C755A2AF9209C2AF75C7AA7534
:0A237A00C755439F80A20992AF22CD
:101D1B009001BF120393538EF7438901D28CE4FFDA
:101D2B00FEFDFC9001BFE0F8A3E0F9A3E0FAA3E00D
:101D3B00FBC312036F602F758A7E758CFF308DFD90
:101D4B00C28D9001BFE0FCA3E0FDA3E0FEA3E02465
:101D5B00FFFFEE34FFFEED34FFFDEC34FFFC900192
:091D6B00BF12039380B8C28C2260
:101D74009001C3120393538EF7438901D28CE4FF7D
:101D8400FEFDFC9001C3E0F8A3E0F9A3E0FAA3E0B0
:101D9400FBC312036F602F758ACA758CFA308DFDF0
:101DA400C28D9001C3E0FCA3E0FDA3E0FEA3E02408
:101DB400FFFFEE34FFFEED34FFFDEC34FFFC900139
:091DC400C312039380B8C28C2203
:101DCD009001C7120393538EEF438910D28EE4FF17
:101DDD00FEFDFC9001C7E0F8A3E0F9A3E0FAA3E053
:101DED00FBC312036F602F758BEA758DCB308FFDA2
:101DFD00C28F9001C7E0FCA3E0FDA3E0FEA3E024A9
:101E0D00FFFFEE34FFFEED34FFFDEC34FFFC9001DF
:091E1D00C712039380B8C28E22A3
:101C09009001CB12039353C9BF53C9DF43C910D203
:101C1900CAE4FFFEFDFC9001CBE0F8A3E0F9A3E0E4
:101C2900FAA3E0FBC312036F602F75CC3075CDF8B2
:101C390030CFFDC2CF9001CBE0FCA3E0FDA3E0FED5
:101C4900A3E024FFFFEE34FFFEED34FFFDEC34FF8B
:0C1C5900FC9001CB12039380B8C2CA2299
:101C65009001CF12039375C40743C408E4FFFEFD3A
:101C7500FC9001CFE0F8A3E0F9A3E0FAA3E0FBC3F1
:101C850012036F603275C52C75C6CFE5C430E4FB11
:101C950053C4EF9001CFE0FCA3E0FDA3E0FEA3E079
:101CA50024FFFFEE34FFFEED34FFFDEC34FFFC9026
:0B1CB50001CF12039380B553C4F72247
:101CC0009001D312039375C40743C408E4FFFEFDDB
:101CD000FC9001D3E0F8A3E0F9A3E0FAA3E0FBC392
:101CE00012036F603275C5D875C6FFE5C430E4FBDA
:101CF00053C4EF9001D3E0FCA3E0FDA3E0FEA3E01A
:101D000024FFFFEE34FFFEED34FFFDEC34FFFC90CA
:0B1D100001D312039380B553C4F722E7
:1011F3000A3D3D3D3D3D3D3D3D3D3D3D3D3D3D3D4F
:101203003D3D3D3D3D3D3D3D3D3D3D3D3D3D3D3D0B
:101213003D3D3D3D3D3D3D3D3D3D3D3D3D3D3D3DFB
:101223003D3D3D3D3D3D3D3D3D3D3D3D3D3D3D3DEB
:101233003D3D3D3D3D000A2A2020436F7079726990
:101243006768742863292032303135204E75766FF4
:10125300746F6E20546563686E6F6C6F677920439B
:101263006F72702E20416C6C2072696768747320F2
:1012730072657365727665642E2020000A2A202029
:10128300436F6E7461637420452D4D61696C3A2020
:101293004D6963726F432D38626974406E75766F62
:1012A300746F6E2E636F6D2020202020202020205D
:1012B300202020202020202020202020202020202B
:1012C30020000A2A202044656D6F205665727369D9
:1012D3006F6E20203A202532642E2532642E25326B
:1012E30064000A2A202046696E6973686564204495
:1012F300617465203A202532642E2532642E25320E
:02130300640084
:101BAA007BFF7A1179F31204DB7BFF7A12793912FF
:101BBA0004DB7BFF7A12797F1204DB7BFF7A1279CE
:101BCA00C5900126E4F0A304F0E4A3F0A3F0A3F087
:101BDA00A3F01204DB7BFF7A1279E59001267407E1
:101BEA00F0A374DFF0A3E4F0A37405F0A3E4F0A378
:0F1BFA00741FF01204DB7BFF7A1179F30204DB16
:0300000002177371
:10177300787FE4F6D8FD9000007FFF7E03E4F0A3BA
:0A178300DFFCDEFA7581420217C890
:10178D0002156DE493A3F8E493A34003F68001F2F0
:10179D0008DFF48029E493A3F85407240CC8C3335D
:1017AD00C4540F4420C8834004F456800146F6DF2C
:1017BD00E4800B0102040810204080901E26E47E78
:1017CD00019360BCA3FF543F30E509541FFEE49321
:1017DD00A360010ECF54C025E060A840B8E493A3E8
:1017ED00FAE493A3F8E493A3C8C582C8CAC583CA13
:1017FD00F0A3C8C582C8CAC583CADFE9DEE780BECB
:011E7D000064
:10000E00E709F608DFFA8046E709F208DFFA803ED4
:10001E0088828C83E709F0A3DFFA8032E309F608C1
:10002E00DFFA8078E309F208DFFA807088828C8329
:10003E00E309F0A3DFFA806489828A83E0A3F608DD
:10004E00DFFA805889828A83E0A3F208DFFA804CB7
:10005E0080D280FA80C680D4806980F2803380108E
:10006E0080A680EA809A80A880DA80E280CA8033F7
:10007E0089828A83ECFAE493A3C8C582C8CCC5836F
:10008E00CCF0A3C8C582C8CCC583CCDFE9DEE7803F
:10009E000D89828A83E493A3F608DFF9ECFAA9F0BE
:1000AE00EDFB2289828A83ECFAE0A3C8C582C8CC14
:1000BE00C583CCF0A3C8C582C8CCC583CCDFEADE2D
:1000CE00E880DB89828A83E493A3F208DFF980CC8F
:1000DE0088F0EF60010E4E60C388F0ED2402B40488
:1000EE000050B9F582EB2402B4040050AF2323452F
:0600FE00822390005E73F6
:10010400BB010689828A83E0225002E722BBFE02F9
:09011400E32289828A83E493222C
:10011D00BB010B89828A83F8E0C828F0E8225003DE
:10012D0027C722BBFE07F8E3C828F3E8228A838994
:04013D0082E49322A3
:10014100BB010CE58229F582E5833AF583E0225073
:1001510006E92582F8E622BBFE06E92582F8E222BD
:0D016100E58229F582E5833AF583E49322D7
:10016E00BB010FF8E58229F582E5833AF583E02895
:10017E00F0225009C58229F8E58226F622BBFE0937
:10018E00C58229F8E22582F222F8EA2583F583E971
:03019E0093282281
:1001A100F8BB010DE58229F582E5833AF583E8F094
:1001B100225006E92582C8F622BBFE05E92582C840
:0201C100F22228
:1001C300C5F0F8A3E028F0C5F0F8E58215827002C7
:0601D3001583E038F02264
:1001D900A3F8E0C5F025F0F0E582158270021583D9
:0601E900E0C838F0E82236
:1001EF00BB0110E58229F582E5833AF583E0F5F04E
:1001FF00A3E0225009E92582F886F008E622BBFE2B
:10020F000AE92582F8E2F5F008E222E5832AF58370
:08021F00E993F5F0A3E9932235
:10022700BB010DC58229C582C5833AC5830201C3B7
:100237005011C58229F808E5F026F618F5F0E58291
:1002470036F622BBFE11C58229F808E225F0F5F043
:10025700F218E23582F222F8E58229F582E5832A4F
:0D026700F58374019325F0F5F0E49338223F
:10027400F8BB0111E58229F582E5833AF583E8F0BC
:10028400E5F0A3F0225009E92582C8F608A6F02279
:0D029400BBFE09E92582C8F2E5F008F22260
:1002A10075F008758200EF2FFFEE33FECD33CDCC14
:1002B10033CCC58233C5829BED9AEC99E582984097
:1002C1000CF582EE9BFEED9AFDEC99FC0FD5F0D674
:1002D100E4CEFBE4CDFAE4CCF9A88222B800C1B99E
:1002E1000059BA002DEC8BF084CFCECDFCE5F0CBDC
:1002F100F97818EF2FFFEE33FEED33FDEC33FCEB15
:1003010033FB10D703994004EB99FB0FD8E5E4F9CF
:10031100FA227818EF2FFFEE33FEED33FDEC33FCBC
:10032100C933C910D7059BE99A4007EC9BFCE99AB0
:10033100F90FD8E0E4C9FAE4CCFB2275F010EF2FF5
:10034100FFEE33FEED33FDCC33CCC833C810D707F5
:100351009BEC9AE899400AED9BFDEC9AFCE899F830
:0E0361000FD5F0DAE4CDFBE4CCFAE4C8F922C3
:10036F00EB9FF5F0EA9E42F0E99D42F0E89C45F0E4
:01037F00225B
:10038000E8600FECC313FCED13FDEE13FEEF13FF5B
:03039000D8F1227F
:0C039300ECF0A3EDF0A3EEF0A3EFF022DD
:10039F00BB010789828A8302040C5005E9F8020425
:1003AF0003BBFE05E9F802043589828A8302043E05
:0603BF008A838982E473C9
:10047000E5082426F582E43401F583E0050822909E
:100480000123300703900126E475F00112041502E0
:1004900001042000E97F2ED2008018EF540F249031
:1004A000D43440D4FF30040BEF24BFB41A005003FF
:1004B0002461FFE50960021509050CE50C700205D1
:1004C0000B30070E900123E475F001120415EF02C2
:1004D00003F10222007403D2078003E4C207F50887
:1004E00090012312042CE4F509F50BF50CE50960E5
:1004F000077F201204B380F5750AFFC201C200C253
:1005000002C203C205C206C20812047FFF700D308A
:1005100007057F001204C4AF0CAE0B22B4255FC2E6
:10052000D5C20412047FFF24D0B40A00501A75F01B
:100530000A780930D50508B6FF0106C6A426F620BC
:10054000D5047002D20380D924CFB41A00EF50042E
:10055000C2E5D2040206C5D20180C6D20080C0D254
:100560000280BCD2D580BAD20580B47F201204B3F9
:100570002002077401B5090040F1120470FF120453
:10058000B30204EDD208D2068095120470FB120467
:1005900070FA120470F94A4B700679967A077BFF5D
:1005A00020022EE509602A7E008E827583001201EA
:1005B0004160060EEE650A70F0C2D5EBC0E0EAC0FD
:1005C000E0E9C0E0EE12070CD0E0F9D0E0FAD0E0AC
:1005D000FB120104FF60AAEBC0E0EAC0E0E9C0E062
:1005E0001204B3D0E02401F9D0E03400FAD0E0FBEB
:1005F000E50A0460DCD50AD980877BFF7A07790891
:10060000D202809C791080027908C206C208800854
:10061000D2D5790A8004790AC2D5E50A047002F5B8
:100620000AE4FAFDFEFF120470FC7B08200113129D
:100630000470FD7B1030000A120470FE120470FF7B
:100640007B20EC3382D592D55013C3E43000069F53
:10065000FFE49EFEE42001039DFDE49CFCE4CBF856
:10066000C201EC700CCFCECDCCE824F8F870F3804A
:1006700017C3EF33FFEE33FEED33FDEC33FCEB330A
:10068000FB994002FB0FD8E9EB300105F8D0E0C43C
:1006900048B201C0E00AEC4D4E4F78207B0070C29A
:1006A000EAB50A0040BCC0E012070ED0F0D0E0204E
:1006B0000104C4C0E0C4B201C0F012049CD0F0D563
:1006C000F0EB0204ED12044A058A53060458055B58
:1006D0004C05574206084F06104406104905704362
:0806E00006165505FA4605FA5D
:1006E8004505FA4707B650055F2D05632E05862B8D
:1006F800056723058420079F2A051F480000057EFB
:100708003F3F3F00790AA2D5200314300509B910EC
:10071800020404B9080104A2D520060250010420ED
:1007280002689202B509005034C0E07F20300319F6
:100738007F30A20272067205500F120765C202C20C
:1007480006C205C2087F30800F300503E9C0E012F9
:1007580004B3300503D0E0F9D0E0B509CC30051773
:100768007F30B9100C1204B37F583004077F7880AB
:1007780003B908031204B33002057F2D0204B37FC6
:10078800202008F87F2B2006F322920280CF286EC3
:10079800756C6C2900D2011204703001F8C201781E
:1007A8000930D50108F602051F2D50434958120497
:1007B800702403B405004001E49007B1931204A427
:0D07C800743A1204A4D20375090402060459
:1003C500EF4E6012EF60010EEDBB010B89828A834F
:1003D500F0A3DFFCDEFA2289F05007F709DFFCA95C
:0C03E500F022BBFEFCF309DFFCA9F022B3
:1003F100BB010689828A83F0225002F722BBFE01EB
:02040100F322E4
:09040300E6FB08E6FA08E6F9221E
:09040C00E0FBA3E0FAA3E0F922F1
:10041500F8E0FBA3A3E0F925F0F0E5821582700270
:070425001583E0FA38F02214
:09042C00EBF0A3EAF0A3E9F022D1
:09043500E2FB08E2FA08E2F922F8
:0C043E00E493FB740193FA740293F9221A
:10044A00D083D082F8E4937012740193700DA3A341
:10045A0093F8740193F5828883E473740293686055
:06046A00EFA3A3A380DF55
:10220000EFB40A07740D12220B740A309811A899C2
:10221000B8130CC2983098FDA899C298B811F6303E
:0722200099FDC299F5992216
:00000001FF
