:041B57004101F00058
:101BA9001220111221A3121E499001A6E06002E43D
:101BB900F09001A8E06005E4F0121F5E9001AAE030
:101BC9006008E4F0121D681214D69001ACE06002BE
:101BD900E4F09001AFE06002E4F0121DCE900169DB
:0B1BE900EFF060C5E0FF120AEC80BEC8
:0C204B009001A0EBF0A3EAF0A3E9F02262
:0C2057009001A3EBF0A3EAF0A3E9F02253
:101FF1009001A0A3E0FAA3E0F94A60031203BF2213
:102001009001A3A3E0FAA3E0F94A60031203BF22FF
:101D9C00EF4E602D900196EEF0A3EFF0AF05A3ECA3
:101DAC00F0A3EFF0AF03A3EAF0A3EFF0E4A3F0A3EA
:101DBC00F0A3F0A3F0900195F090019404F0121FA1
:021DCC00F12202
:101F9200E4900194F01220017B007A007900122073
:041FA2004B02205777
:1014D600900194E0700302158A900198E0FEA3E063
:1014E600FF4E700302158A900195E07035D3EF9494
:1014F60000EE9400500302158A90019CE475F001F9
:101506001201C3FED3900197E095F0900196E09EFC
:101516005072122001E490019CF0A3F09001950412
:10152600F022900195E06401705A90019C75F001DB
:101536001201C3FED3900199E095F0900198E09EC8
:10154600504290019AE0FEA3E0FF9400EE94004022
:101556002590019EE475F0011201C3FCD3EF95F0CE
:10156600EE9C5005E4900194F0900194E070079091
:101576000198F0A3F022E490019CF0A3F09001956D
:05158600F0121FF1222C
:101B5B004101280050012900000000000000000096
:101B6B000000000000000050011800000000000001
:101B7B0000000000000000000000480139000000D8
:051B8B00000000000055
:101E4900E4900128F0FE7F10FD7B017A01792912C7
:101E590003C57E007F107D007B017A01791812038A
:071E6900C512101802202F22
:0E18120090016DEBF0A3EAF0A3E9F0A3EDF076
:10182000E4A3F0EDD39410504D9001287401F09092
:10183000016DE0FBA3E0FAA3E0F974019001186BDD
:101840007008E965827003EA6583602A7E007F1074
:101850007D007B017A0179181203C5900170E0FFC9
:101860007E0078187C017D0190016DE0FBA3E0FA19
:06187000A3E0F91200DE06
:01187600224F
:0C2063009001E8EBF0A3EAF0A3E9F02202
:101D6800900128E0602D122085EF24F0601424D023
:101D780060102420701212206F122183E490012831
:101D8800F02212206F0221837B017A0179187D10DD
:041D9800121C3722C0
:101877009001EBEBF0A3EAF0A3E9F0AE05E49001E9
:10188700EEF0AF061EEF60469001EEE0FF9001EB31
:10189700E0FBA3E475F0011201D9A9F0FA120104E3
:1018A7006F9001EEF0E4A3F09001EFE0C3940850CD
:1018B700D19001EEE030E007C313648CF08007900D
:1018C70001EEE0C313F09001EFE004F080DA90013D
:0418D700EEE0FF221E
:101625009001B2EBF0A3EAF0A3E9F0AE05E4900176
:10163500EEF0AF061EEF606B9001EEE0FF9001B299
:10164500E0FBA3E475F0011201D9A9F0FA12010437
:101655006F9001EEF09001B6E004F0A3E0FF900179
:10166500B6E0C39F4012E4F0EFFDE49DFDE4940075
:101675009001B38DF01201C3E49001EFF09001EFFA
:10168500E0C3940850AC9001EEE030E007C313646A
:101695008CF080079001EEE0C313F09001EFE004B9
:0916A500F080DA9001EEE0FF2272
:0121A3002219
:0A207B00E42FFFEE343CFE020D1DC1
:0121A4002218
:0121A5002217
:041B90004101F1001E
:06140B007B017A01796B00
:0E14110090016DEFF0A3EBF0A3EAF0A3E9F079
:10141F00E4A3F0121F927BFF7A21799D12204B7B60
:10142F00FF7A2179A01220577B017A007D017C0081
:10143F007F057E00121D9C90016EE0FBA3E0FAA3D6
:10144F00E0F9740112011D2418F582E43401F583CB
:10145F0074F2F0740112011D2418F582E43401F5C1
:10146F00837401F090016DE0FF740112011D2418C7
:10147F00F582E43401F583EFF0E4900171F090010F
:10148F0019E02401FFE433FE900171E0FDC39FEEEC
:10149F006480F8748098502E74192DF582E434010D
:1014AF00F583E0FF90016EE0FBA3E0FAA3E0F912F1
:1014BF0001042418F582E43401F583E02FF0900144
:0614CF0071E004F080B89A
:0114D50022F4
:050AEC0090016AEFF02B
:100AF100E4A3F0A3F090016BF0FE7F10FD7B017A7F
:100B01000179181203C590016AE024FEB446004041
:100B110003020D09900B2375F003A4C58325F0C5CD
:100B21008373020BF5020C02020D09020C12020C76
:100B31001F020D09020C2F020C42020D09020C5278
:100B4100020C6B020D09020C7B020D09020D090258
:100B51000D09020D09020D09020C86020D09020D93
:100B610009020D09020D09020D09020D09020D0903
:100B7100020D09020C90020D09020D09020C9A02E4
:100B81000D09020D09020CA4020D09020D09020D45
:100B910009020D09020D09020CAE020D09020D092F
:100BA100020CB8020D09020D09020CC2020D090264
:100BB1000D09020D09020D09020D09020CCC020DED
:100BC10009020D09020D09020D09020D09020CD6D7
:100BD100020D09020CE0020D09020D09020D0902C4
:100BE1000CEA020D09020D09020CF4020D09020DB5
:100BF10009020CFE9001F1E070687F5012140B8025
:100C0100619001F17401F0FB7A01796B7F70020D43
:100C1100069001F1E070057F5112140B80449001A0
:100C2100F17401F0FB7A01796B7F71020D0690017D
:100C3100F1E0700B7B017A01796B7F521214118004
:100C4100219001F17401F0FB7A01796B7F72020D41
:100C5100069001F1E0700B7B017A01796B7F5312F1
:100C61001411E49001F1F0020D099001F17401F009
:100C7100FB7A01796B7F73020D067B017A01796B37
:100C81007F54020D067B017A01796B7F5580767B5B
:100C9100017A01796B7F56806C7B017A01796B7FD8
:100CA1005780627B017A01796B7F5880587B017A8A
:100CB10001796B7F59804E7B017A01796B7F5A8074
:100CC100447B017A01796B7F5B803A7B017A017900
:100CD1006B7F5C80307B017A01796B7F5D80267B45
:100CE100017A01796B7F5E801C7B017A01796B7FD0
:100CF1005F80127B017A01796B7F6080087B017ACA
:100D010001796B7F6112141190016BE0600D04F0A9
:0B0D11007B017A017918E0FD12181236
:010D1C0022B4
:0F201100121FA61220A2122197121F04D2AF2273
:081B94004101B0004101B10064
:101F04001220205389F0438901538EF79001B07455
:101F1400FAF0A374C4F0758CFAF58AD2A9D28C2293
:0F2020007E007F0A7D007B017A0179A60203C54D
:03000B000216AE2C
:1016AE00C0E0C0F0C083C082C0D075D000C000C002
:1016BE00069001B0E0F58CA3E0F58A9001A67401C6
:1016CE00F0A3E004F0C3940A4005E4F0A304F09004
:1016DE0001A9E004F0C394644005E4F0A304F09083
:1016EE0001ABE004F0C394F4748094814005E4F0FF
:1016FE00A304F09001ADE475F0011201C3FEC3E541
:10170E00F094E8EE9403400A9001ADE4F0A3F0A348
:10171E0004F0D006D000D0D0D082D083D0F0D0E06C
:01172E003288
:101EBD000A6D679C46F6375D4521EFAC5A50010B14
:101ECD00DF020A6D679C46F6375D4521EFAC5A502F
:041EDD00E10BDF0234
:081B9C004501C3CCCCCCCCCC3C
:101FA60053B3FE43B40153B3FD43B40253B1FE43EE
:031FB600B2012253
:0121A6002216
:101F2400E4FEC290EF30E704D2808002C280EF2545
:0C1F3400E0FFD290000EEEB408E8C2906E
:011F4000227E
:041FB900E4FD7FFCC8
:0F1FBD00C29100121F24AF05121F2400D29122DF
:0A1BF4007B019001807405F07F3F33
:0B1BFE0090017DEBF0A3EAF0A3E9F0FA
:101C0900C291E4FD121F24900180E0FFEDC39F50B3
:101C19001A90017DE0FBA3E0FAA3E0F98D827583B8
:0D1C290000120141FF121F240D80DCD2913A
:011C3600228B
:101EE100E4FEC290EF30E704D2808002C280EF2589
:101EF100E0FFD290000EEEB408E843B10153B2FE08
:021F0100C2908C
:011F030022BB
:101F7900E4FFFEC290EF25E0FFD2903080034401D8
:081F8900FF0EEEB408EDC2905A
:011F9100222D
:101FCC00C29100121EE1121F7953B1FE43B20100FF
:021FDC00D291A0
:011FDE0022E0
:0B1C7A009001BFEBF0A3EAF0A3E9F03B
:101C8500C291121EE1E4FD9001C2E0FFEDC39F5039
:101C95001A121F799001BFE0FBA3E0FAA3E0F98DCA
:101CA50082758300EF1201A10D80DC53B1FE43B2B2
:031CB50001D291C8
:011CB8002209
:0E202F00121FB97D8E7F20121FBD00000022FF
:101E9700E4FEFD7FFC121FBD7D8F7F20121FBDE476
:101EA700FD7FFD121FBDE4FEFF000FBF00010EBE48
:051EB70013F7BF88F4E1
:011EBC002203
:0A2085007F07121FCCEF5470FF22FA
:062191007F09121FCC22A1
:072183007D707F27021FBDE4
:0C206F00E4FD7FE1121FBD7FE2021FBDF7
:0E203D00AC07121FB9AF04AD077F25021FBD0F
:061C3700122085EF703C55
:101C3D0090016AF0A3F0900180EDF07FA0121BFEE1
:101C4D00E4FD7FFD121FBDE490016AF0A3F000904A
:101C5D00016BE004F0700690016AE004F090016AF7
:0C1C6D00E07004A3E064C870E5121FB929
:011C79002248
:101DF800AC05122085EF30E61D121FB99001C2EC28
:101E0800F07F61121C7A12206F122183E4FD7FFD9E
:091E1800121FBD7F01227F002290
:10101800786A7C017D017BFF7A1E79BD7E007F05A1
:101028001200DE786F7C017D017BFF7A1E79C27E1B
:10103800007F031200DE78727C017D017BFF7A1E3F
:1010480079C57E007F061200DE78787C017D017B01
:10105800FF7A1E79CB7E007F011200DE78797C0151
:101068007D017BFF7A1E79CC7E007F031200DE12A1
:1010780021A67D5A7F53121FBD7DA57F53121FBD28
:101088007D207F3D121FBD121FB97FE1121FBD7F5A
:10109800E2121FBD7D707F27121FBD7D017F2212C6
:1010A8001FBD7D037F23121FBD7D4E7F25121FBDEF
:1010B8007D107F31121FBD7B017A0179C3900180B9
:1010C8007405F07F30121BFE7B017A0179C3900111
:1010D800807405F07F2A121BFE7A01796A121BF4CC
:1010E8007B017A0179729001807406F07F3A121BB5
:1010F800FE7B017A0179789001807401F07F3912C2
:101108001BFE7B017A01796F9001807403F07F3EAA
:10111800121BFE7B017A0179799001807403F07FBC
:101128003B121BFEE4FD7F3C121FBD7D3F7F261254
:0E1138001FBDE4FD7F24121FBD7F21021FBDDD
:05125800900181EFF0A0
:10125D00E478827C017D017BFF7A1E79CFFE7F05CC
:10126D001200DE78877C017D017BFF7A1E79D47EAA
:10127D00007F031200DE788A7C017D017BFF7A1EE0
:10128D0079D77E007F061200DE78907C017D017B90
:10129D00FF7A1E79DD7E007F011200DE78917C01E0
:1012AD007D017BFF7A1E79DE7E007F031200DE7DDD
:1012BD005A7F53121FBD7DA57F53121FBD7D207F09
:1012CD003D121FBD121FB9E4FF000000000FEFB467
:1012DD00DCF7900181E0FD7F25121FBD7D3F7F264C
:1012ED00121FBD7A017982121BF47B017A01798A72
:1012FD009001807406F07F3A121BFE7B017A017912
:10130D00909001807401F07F39121BFE7B017A01F0
:10131D0079879001807403F07F3E121BFE7B017A6A
:0E132D000179919001807403F07F3B021BFE5A
:041BA4004101BA0041
:0121A7002215
:100D1D00AB07AA06A9059001BBEFF0C39480500460
:100D2D00E4F080069001BB7480F09001B8E4F0A36C
:100D3D007480F09001BBE07C002400FEEC3AA3F03F
:100D4D00A3CEF09001B8E0FEA3E0FF7003EE6401C6
:100D5D0060369001BCE0FCA3E0F5828C83E4938FB8
:100D6D00828E83F09001BAE004F09001B9E004F0B6
:100D7D0070069001B8E004F09001BDE004F070C37E
:100D8D009001BCE004F080BBAF039001BBEFF0C35A
:100D9D009480500FE02480FEE4339001B8F0A3CE90
:100DAD00F0800D9001BBE0FF9001B8E4F0A3EFF0EF
:100DBD009001B8E0FCA3E0F5828C83E9F0AD038DE2
:100DCD00A6EAFFF5A775AEFFA2AF9209C2AF75C730
:100DDD00AA75C755439F01A20992AFA2AF9209C24E
:100DED00AF75C7AA75C75543A501A20992AF75AFD7
:100DFD0022A2AF9209C2AF75C7AA75C75543A40108
:100E0D00A20992AF9001BBEDF0C394805004E4F0C1
:100E1D0080069001BB7480F09001B8E4F0A374805B
:100E2D00F09001BBE0F5A68FA7A2AF9209C2AF75F6
:100E3D00C7AA75C755439F01A20992AFA2AF9209E8
:100E4D00C2AF75C7AA75C75543A501A20992AF7563
:100E5D00AF219001B8E0FEA3E0FFF44E602C8F822D
:100E6D008E83E0F5AEA2AF9209C2AF75C7AA75C762
:100E7D005543A401A20992AF05A69001B9E004F073
:100E8D0070D09001B8E004F080C8A2AF9209C2AF53
:100E9D0075C7AA75C75553A5FEA20992AFA2AF9209
:100EAD0009C2AF75C7AA75C755539FFEA20992AF68
:010EBD002212
:040003008F828E83D7
:03000700E493FF80
:01000A0022D3
:10133B00E4FED282D283D284D285D286D287D29453
:10134B00D295D296D297EF14603114604614605B3D
:10135B001460701470030213E62405600302140872
:10136B00C282ED14600F14600E14600D2403600331
:10137B0002140880768078807A807CC283ED1460BA
:10138B000C14600B14600A24037072805E80608002
:10139B00628064C284ED14600C14600B14600A2428
:1013AB0003705A80468048804A804CC285ED146099
:1013BB000C14600B14600A24037042802E80308062
:1013CB00328034C286ED14600C14600B14600A2456
:1013DB0003702A80168018801A801CC287ED146057
:1013EB000E14600F14601024037012A297800AA2CF
:0F13FB00968006A2958002A294B3E433FEAF065B
:01140A0022BF
:07218A00E4FDFF12133B22EC
:0820AB007D01E4FF12133B224A
:0820B3007D02E4FF12133B2241
:0820BB007D03E4FF12133B2238
:0820C300E4FD7F0112133B2232
:0820CB007D017F0112133B228D
:0820D3007D027F0112133B2284
:0820DB007D037F0112133B227B
:0820E300E4FD7F0212133B2211
:0820EB007D017F0212133B226C
:0820F3007D027F0212133B2263
:0820FB007D037F0212133B225A
:08210300E4FD7F0312133B22EF
:08210B007D017F0312133B224A
:082113007D027F0312133B2241
:08211B007D037F0312133B2238
:08212300E4FD7F0412133B22CE
:08212B007D017F0412133B2229
:082133007D027F0412133B2220
:08213B007D037F0412133B2217
:08214300E4FD7F0512133B22AD
:08214B007D017F0512133B2208
:082153007D027F0512133B22FF
:08215B007D037F0512133B22F6
:062197001207D5021CB97D
:101F4100900116E0240BF582E43401F583EFF09063
:0D1F51000116E004F0C3940A4002E4F022FF
:101DCE00900116E0FF900115E0FEB507037F00229B
:101DDE00740B2EF582E43401F583E0FF900115E0DB
:091DEE0004F0C3940A4002E4F081
:011DF70022C9
:101E2100900116E0FFA3E0FEB507037F0022740BCB
:101E31002EF582E43401F583E0FF900117E004F010
:071E4100C3940A4002E4F023
:011E48002277
:101FDF0075F00BEFA4240BF582E5F03400F583E0E8
:021FEF00FF22CF
:101D310075F00BEFA42409F582E5F03400F583EC8E
:101D4100F0A3EDF075F00BEFA4240CF582E5F0346F
:101D510000F583EBF075F00BEFA4240DF582E5F0AF
:071D61003400F583E4F022D9
:09209900900116E0900115F022FF
:101CB90053B1FB53B2FB53B1F753B2F753B1EF53DF
:101CC900B2EF53B1DF53B2DF53B1BF53B2BF53B118
:101CD9007F53B27F53B3EF53B4EF53B3DF53B4DF42
:0D1CE90053B3BF53B4BF53B37F53B47F2236
:1007D500E47E017F08FD7B017A0079031203C5E4FD
:1007E500900115F0A3F0A3F0FF75F00BEFA4240919
:1007F500F582E5F03400F583E4F0A374C8F075F0F4
:100805000BEFA42406F582E5F03400F5837402F0BD
:1008150075F00BEFA4240BF582E5F03400F583E4C5
:10082500F075F00BEFA4240CF582E5F03400F583A8
:10083500E4F075F00BEFA4240DF582E5F03400F536
:1008450083E4F00FEFB418A1E4FF0F75F00BA424B7
:1008550003F582E5F03400F58374FFF0A37421F00D
:10086500A3748AF00F75F00B7401A42403F582E5D7
:10087500F03400F58374FFF0A37420F0A374ABF09B
:100885000F75F00B7402A42403F582E5F03400F52E
:100895008374FFF0A37420F0A374B3F00F75F00B0D
:1008A5007403A42403F582E5F03400F58374FFF0A6
:1008B500A37420F0A374BBF00F75F00B7404A4248B
:1008C50003F582E5F03400F58374FFF0A37420F09E
:1008D500A374C3F00F75F00B7405A42403F582E52A
:1008E500F03400F58374FFF0A37420F0A374CBF00B
:1008F5000F75F00B7406A42403F582E5F03400F5BA
:100905008374FFF0A37420F0A374D3F00F75F00B7C
:100915007407A42403F582E5F03400F58374FFF031
:10092500A37420F0A374DBF00F75F00B7408A424F6
:1009350003F582E5F03400F58374FFF0A37420F02D
:10094500A374E3F00F75F00B7409A42403F582E595
:10095500F03400F58374FFF0A37420F0A374EBF07A
:100965000F75F00B740AA42403F582E5F03400F545
:100975008374FFF0A37420F0A374F3F00F75F00BEC
:10098500740BA42403F582E5F03400F58374FFF0BD
:10099500A37420F0A374FBF00F75F00B740CA42462
:1009A50003F582E5F03400F58374FFF0A37421F0BC
:1009B500A37403F00F75F00B740DA42403F582E501
:1009C500F03400F58374FFF0A37421F0A3740BF0E9
:1009D5000F75F00B740EA42403F582E5F03400F5D1
:1009E5008374FFF0A37421F0A37413F00F75F00B5B
:1009F500740FA42403F582E5F03400F58374FFF049
:100A0500A37421F0A3741BF00F75F00B7410A424CC
:100A150003F582E5F03400F58374FFF0A37421F04B
:100A2500A37423F00F75F00B7411A42403F582E56C
:100A3500F03400F58374FFF0A37421F0A3742BF058
:100A45000F75F00B7412A42403F582E5F03400F55C
:100A55008374FFF0A37421F0A37433F00F75F00BCA
:100A65007413A42403F582E5F03400F58374FFF0D4
:100A7500A37421F0A3743BF00F75F00B7414A42438
:100A850003F582E5F03400F58374FFF0A37421F0DB
:100A9500A37443F00F75F00B7415A42403F582E5D8
:100AA500F03400F58374FFF0A37421F0A3744BF0C8
:100AB5000F75F00B7416A42403F582E5F03400F5E8
:100AC5008374FFF0A37421F0A37453F075F00BEF5A
:100AD500A42403F582E5F03400F58374FFF0A374D4
:060AE50021F0A3745BF098
:010AEB0022E8
:100EBE0090016BEFF0E075F00BA42403F97400358C
:100ECE00F0FA7B01900000EBF0A3EAF0A3E9F01238
:100EDE00039F1203BFEF7003020FB0900000E0FB00
:100EEE00A3E0FAA3E0F9900003120141FFC39405B9
:100EFE0050089000037405021014EFC3940A5008B2
:100F0E00900003740102016E9000081201417014EA
:100F1E00900008041201A190016BE075F003A40487
:100F2E00FF121F41900000E0FBA3E0FAA3E0F9904E
:100F3E0000061201EFFFAEF0D39400EE94005003C2
:100F4E000210179000041201EFC39FE5F09E50238C
:100F5E00900004E475F001120227FCE5F06F7002B8
:100F6E00EC6E600302101790016BE075F003A42481
:100F7E0003802B900009120141FFD394005003020D
:100F8E00101790000A740112016EC39F407B9000EF
:100F9E000AE41201A190016BE075F003A404FF02B4
:100FAE001F41900000E0FBA3E0FAA3E0F9900003DC
:100FBE00120141FFD39405400A90000374051201FB
:100FCE00A1802BEF600A90000374FF12016E801E49
:100FDE00900008120141B40115900008E41201A11D
:100FEE0090016BE075F003A42402FF121F419000E4
:100FFE0000E0FBA3E0FAA3E0F9900004E4F5F012A0
:0A100E00027490000AE41201A1220E
:101F5E00E490016AF090016AE0FFC39418500B12EE
:0A1F6E000EBE90016AE004F080EB63
:011F78002246
:0920A20053ACFE43AD010221A084
:03219D00D2B0229B
:0321A000C2B022A8
:0A208F00EF600302219D1221A02240
:101CF60053B1BF53B2BF53B17F53B27F75985043B0
:101D06008920438780438E1053C4DFAB07AA06A9F8
:101D160005A8047F407E427D0F7C001202DDEF04A1
:0B1D2600F404F58DD28ED299D2AC22CD
:10172F009001C812039353B1BF53B2BF53B17F534C
:10173F00B27F75985043878053C4F843C4209001FB
:10174F00C8E0F8A3E0F9A3E0FAA3E0FB7F407E42F4
:10175F007D0F7C001202DDC374FF9FFF74FF9EFE9E
:10176F00E49DFDE49CFC78081203808FC69001C8AD
:10177F00E0F8A3E0F9A3E0FAA3E0FB7F407E427D0F
:10178F000F7C001202DDC374FF9FFF8FC543C40897
:05179F00D299D2AC223A
:072163003098FDAF99C2980E
:01216A002252
:08216B00C2998F993099FD2201
:1017A4009001CC12039353B1FB53B2FB53B3BF5319
:1017B400B4BF75F85075C40853C4DF9001CCE0F889
:1017C400A3E0F9A3E0FAA3E0FB7F407E427D0F7C17
:1017D400001202DDC374FF9FFF74FF9EFEE49DFDB3
:1017E400E49CFC78081203808FC69001CCE0F8A337
:1017F400E0F9A3E0FAA3E0FB7F407E427D0F7C008A
:0E1804001202DDC374FF9FFF8FC543C408228C
:0721730030F8FDAF9AC2F83D
:01217A002242
:08217B00C2F98F9A30F9FD2230
:101A4C009001D0120393538EF7438901D28CE4FF9B
:101A5C00FEFDFC9001D0E0F8A3E0F9A3E0FAA3E0CE
:101A6C00FBC312036F602F758A7E758CFF308DFD62
:101A7C00C28D9001D0E0FCA3E0FDA3E0FEA3E02426
:101A8C00FFFFEE34FFFEED34FFFDEC34FFFC900164
:091A9C00D012039380B8C28C2221
:101AA5009001D4120393538EF7438901D28CE4FF3E
:101AB500FEFDFC9001D4E0F8A3E0F9A3E0FAA3E071
:101AC500FBC312036F602F758ACA758CFA308DFDC2
:101AD500C28D9001D4E0FCA3E0FDA3E0FEA3E024C9
:101AE500FFFFEE34FFFEED34FFFDEC34FFFC90010B
:091AF500D412039380B8C28C22C4
:101AFE009001D8120393538EEF438910D28EE4FFD8
:101B0E00FEFDFC9001D8E0F8A3E0F9A3E0FAA3E013
:101B1E00FBC312036F602F758BEA758DCB308FFD73
:101B2E00C28F9001D8E0FCA3E0FDA3E0FEA3E02469
:101B3E00FFFFEE34FFFEED34FFFDEC34FFFC9001B1
:091B4E00D812039380B8C28E2264
:10193A009001DC12039353C9BF53C9DF43C910D2C4
:10194A00CAE4FFFEFDFC9001DCE0F8A3E0F9A3E0A5
:10195A00FAA3E0FBC312036F602F75CC3075CDF884
:10196A0030CFFDC2CF9001DCE0FCA3E0FDA3E0FE96
:10197A00A3E024FFFFEE34FFFEED34FFFDEC34FF5D
:0C198A00FC9001DC12039380B8C2CA225A
:101996009001E012039375C40743C408E4FFFEFDFB
:1019A600FC9001E0E0F8A3E0F9A3E0FAA3E0FBC3B2
:1019B60012036F603275C52C75C6CFE5C430E4FBE3
:1019C60053C4EF9001E0E0FCA3E0FDA3E0FEA3E03A
:1019D60024FFFFEE34FFFEED34FFFDEC34FFFC90F8
:0B19E60001E012039380B553C4F72208
:1019F1009001E412039375C40743C408E4FFFEFD9C
:101A0100FC9001E4E0F8A3E0F9A3E0FAA3E0FBC352
:101A110012036F603275C5D875C6FFE5C430E4FBAB
:101A210053C4EF9001E4E0FCA3E0FDA3E0FEA3E0DA
:101A310024FFFFEE34FFFEED34FFFDEC34FFFC909C
:0B1A410001E412039380B553C4F722A8
:101146000A3D3D3D3D3D3D3D3D3D3D3D3D3D3D3DFC
:101156003D3D3D3D3D3D3D3D3D3D3D3D3D3D3D3DB9
:101166003D3D3D3D3D3D3D3D3D3D3D3D3D3D3D3DA9
:101176003D3D3D3D3D3D3D3D3D3D3D3D3D3D3D3D99
:101186003D3D3D3D3D000A2A2020436F707972693E
:101196006768742863292032303135204E75766FA2
:1011A600746F6E20546563686E6F6C6F6779204349
:1011B6006F72702E20416C6C2072696768747320A0
:1011C60072657365727665642E2020000A2A2020D7
:1011D600436F6E7461637420452D4D61696C3A20CE
:1011E6004D6963726F432D38626974406E75766F10
:1011F600746F6E2E636F6D2020202020202020200B
:1012060020202020202020202020202020202020D8
:1012160020000A2A202044656D6F20566572736986
:101226006F6E20203A202532642E2532642E253218
:1012360064000A2A202046696E6973686564204442
:10124600617465203A202532642E2532642E2532BB
:02125600640032
:1018DB007BFF7A1179461204DB7BFF7A11798C122C
:1018EB0004DB7BFF7A1179D21204DB7BFF7A12794E
:1018FB0018900144E4F0A304F0E4A3F0A3F0A3F0E8
:10190B00A3F01204DB7BFF7A127938900144740741
:10191B00F0A374DFF0A3E4F0A37405F0A3E4F0A349
:0F192B00741FF01204DB7BFF7A1179460204DB94
:0300000002158B5B
:10158B00787FE4F6D8FD9000007FFF7E03E4F0A3A4
:0A159B00DFFCDEFA7581210215E085
:1015A500021BA9E493A3F8E493A34003F68001F298
:1015B50008DFF48029E493A3F85407240CC8C33347
:1015C500C4540F4420C8834004F456800146F6DF16
:1015D500E4800B0102040810204080901B57E47E34
:1015E500019360BCA3FF543F30E509541FFEE4930B
:1015F500A360010ECF54C025E060A840B8E493A3D2
:10160500FAE493A3F8E493A3C8C582C8CAC583CAFC
:10161500F0A3C8C582C8CAC583CADFE9DEE780BEB4
:011BA800003C
:10000E00E709F608DFFA8046E709F208DFFA803ED4
:10001E0088828C83E709F0A3DFFA8032E309F608C1
:10002E00DFFA8078E309F208DFFA807088828C8329
:10003E00E309F0A3DFFA806489828A83E0A3F608DD
:10004E00DFFA805889828A83E0A3F208DFFA804CB7
:10005E0080D280FA80C680D4806980F2803380108E
:10006E0080A680EA809A80A880DA80E280CA8033F7
:10007E0089828A83ECFAE493A3C8C582C8CCC5836F
:10008E00CCF0A3C8C582C8CCC583CCDFE9DEE7803F
:10009E000D89828A83E493A3F608DFF9ECFAA9F0BE
:1000AE00EDFB2289828A83ECFAE0A3C8C582C8CC14
:1000BE00C583CCF0A3C8C582C8CCC583CCDFEADE2D
:1000CE00E880DB89828A83E493A3F208DFF980CC8F
:1000DE0088F0EF60010E4E60C388F0ED2402B40488
:1000EE000050B9F582EB2402B4040050AF2323452F
:0600FE00822390005E73F6
:10010400BB010689828A83E0225002E722BBFE02F9
:09011400E32289828A83E493222C
:10011D00BB010B89828A83F8E0C828F0E8225003DE
:10012D0027C722BBFE07F8E3C828F3E8228A838994
:04013D0082E49322A3
:10014100BB010CE58229F582E5833AF583E0225073
:1001510006E92582F8E622BBFE06E92582F8E222BD
:0D016100E58229F582E5833AF583E49322D7
:10016E00BB010FF8E58229F582E5833AF583E02895
:10017E00F0225009C58229F8E58226F622BBFE0937
:10018E00C58229F8E22582F222F8EA2583F583E971
:03019E0093282281
:1001A100F8BB010DE58229F582E5833AF583E8F094
:1001B100225006E92582C8F622BBFE05E92582C840
:0201C100F22228
:1001C300C5F0F8A3E028F0C5F0F8E58215827002C7
:0601D3001583E038F02264
:1001D900A3F8E0C5F025F0F0E582158270021583D9
:0601E900E0C838F0E82236
:1001EF00BB0110E58229F582E5833AF583E0F5F04E
:1001FF00A3E0225009E92582F886F008E622BBFE2B
:10020F000AE92582F8E2F5F008E222E5832AF58370
:08021F00E993F5F0A3E9932235
:10022700BB010DC58229C582C5833AC5830201C3B7
:100237005011C58229F808E5F026F618F5F0E58291
:1002470036F622BBFE11C58229F808E225F0F5F043
:10025700F218E23582F222F8E58229F582E5832A4F
:0D026700F58374019325F0F5F0E49338223F
:10027400F8BB0111E58229F582E5833AF583E8F0BC
:10028400E5F0A3F0225009E92582C8F608A6F02279
:0D029400BBFE09E92582C8F2E5F008F22260
:1002A10075F008758200EF2FFFEE33FECD33CDCC14
:1002B10033CCC58233C5829BED9AEC99E582984097
:1002C1000CF582EE9BFEED9AFDEC99FC0FD5F0D674
:1002D100E4CEFBE4CDFAE4CCF9A88222B800C1B99E
:1002E1000059BA002DEC8BF084CFCECDFCE5F0CBDC
:1002F100F97818EF2FFFEE33FEED33FDEC33FCEB15
:1003010033FB10D703994004EB99FB0FD8E5E4F9CF
:10031100FA227818EF2FFFEE33FEED33FDEC33FCBC
:10032100C933C910D7059BE99A4007EC9BFCE99AB0
:10033100F90FD8E0E4C9FAE4CCFB2275F010EF2FF5
:10034100FFEE33FEED33FDCC33CCC833C810D707F5
:100351009BEC9AE899400AED9BFDEC9AFCE899F830
:0E0361000FD5F0DAE4CDFBE4CCFAE4C8F922C3
:10036F00EB9FF5F0EA9E42F0E99D42F0E89C45F0E4
:01037F00225B
:10038000E8600FECC313FCED13FDEE13FEEF13FF5B
:03039000D8F1227F
:0C039300ECF0A3EDF0A3EEF0A3EFF022DD
:10039F00BB010789828A8302040C5005E9F8020425
:1003AF0003BBFE05E9F802043589828A8302043E05
:0603BF008A838982E473C9
:10047000E5082444F582E43401F583E00508229080
:100480000141300703900144E475F00112041502A4
:1004900001042000E97F2ED2008018EF540F249031
:1004A000D43440D4FF30040BEF24BFB41A005003FF
:1004B0002461FFE50960021509050CE50C700205D1
:1004C0000B30070E900141E475F001120415EF02A4
:1004D00003F1021E707403D2078003E4C207F5081B
:1004E00090014112042CE4F509F50BF50CE50960C7
:1004F000077F201204B380F5750AFFC201C200C253
:1005000002C203C205C206C20812047FFF700D308A
:1005100007057F001204C4AF0CAE0B22B4255FC2E6
:10052000D5C20412047FFF24D0B40A00501A75F01B
:100530000A780930D50508B6FF0106C6A426F620BC
:10054000D5047002D20380D924CFB41A00EF50042E
:10055000C2E5D2040206C5D20180C6D20080C0D254
:100560000280BCD2D580BAD20580B47F201204B3F9
:100570002002077401B5090040F1120470FF120453
:10058000B30204EDD208D2068095120470FB120467
:1005900070FA120470F94A4B700679967A077BFF5D
:1005A00020022EE509602A7E008E827583001201EA
:1005B0004160060EEE650A70F0C2D5EBC0E0EAC0FD
:1005C000E0E9C0E0EE12070CD0E0F9D0E0FAD0E0AC
:1005D000FB120104FF60AAEBC0E0EAC0E0E9C0E062
:1005E0001204B3D0E02401F9D0E03400FAD0E0FBEB
:1005F000E50A0460DCD50AD980877BFF7A07790891
:10060000D202809C791080027908C206C208800854
:10061000D2D5790A8004790AC2D5E50A047002F5B8
:100620000AE4FAFDFEFF120470FC7B08200113129D
:100630000470FD7B1030000A120470FE120470FF7B
:100640007B20EC3382D592D55013C3E43000069F53
:10065000FFE49EFEE42001039DFDE49CFCE4CBF856
:10066000C201EC700CCFCECDCCE824F8F870F3804A
:1006700017C3EF33FFEE33FEED33FDEC33FCEB330A
:10068000FB994002FB0FD8E9EB300105F8D0E0C43C
:1006900048B201C0E00AEC4D4E4F78207B0070C29A
:1006A000EAB50A0040BCC0E012070ED0F0D0E0204E
:1006B0000104C4C0E0C4B201C0F012049CD0F0D563
:1006C000F0EB0204ED12044A058A53060458055B58
:1006D0004C05574206084F06104406104905704362
:0806E00006165505FA4605FA5D
:1006E8004505FA4707B650055F2D05632E05862B8D
:1006F800056723058420079F2A051F480000057EFB
:100708003F3F3F00790AA2D5200314300509B910EC
:10071800020404B9080104A2D520060250010420ED
:1007280002689202B509005034C0E07F20300319F6
:100738007F30A20272067205500F120765C202C20C
:1007480006C205C2087F30800F300503E9C0E012F9
:1007580004B3300503D0E0F9D0E0B509CC30051773
:100768007F30B9100C1204B37F583004077F7880AB
:1007780003B908031204B33002057F2D0204B37FC6
:10078800202008F87F2B2006F322920280CF286EC3
:10079800756C6C2900D2011204703001F8C201781E
:1007A8000930D50108F602051F2D50434958120497
:1007B800702403B405004001E49007B1931204A427
:0D07C800743A1204A4D20375090402060459
:1003C500EF4E6012EF60010EEDBB010B89828A834F
:1003D500F0A3DFFCDEFA2289F05007F709DFFCA95C
:0C03E500F022BBFEFCF309DFFCA9F022B3
:1003F100BB010689828A83F0225002F722BBFE01EB
:02040100F322E4
:09040300E6FB08E6FA08E6F9221E
:09040C00E0FBA3E0FAA3E0F922F1
:10041500F8E0FBA3A3E0F925F0F0E5821582700270
:070425001583E0FA38F02214
:09042C00EBF0A3EAF0A3E9F022D1
:09043500E2FB08E2FA08E2F922F8
:0C043E00E493FB740193FA740293F9221A
:10044A00D083D082F8E4937012740193700DA3A341
:10045A0093F8740193F5828883E473740293686055
:06046A00EFA3A3A380DF55
:101E7000EFB40A07740D121E7B740A309811A899EA
:101E8000B8130CC2983098FDA899C298B811F630D2
:071E900099FDC299F59922AA
:00000001FF
