:051CC2004201EC0000EE
:10190100E4FFFE43B30453B4FBD292000FBF0001C6
:101911000EEF64C84E70F443B10153B2FEC280436E
:10192100B30153B4FEC29043B30253B4FDC291C29A
:1019310082C283C284C285C286C287D294D295D222
:1019410096D29743E90143E94043EA1053EBEF4351
:10195100E94043EA2053EBDF43E98043EA4053EB9C
:10196100BF43E98043EA8053EB7F439B02438702F5
:031971000220BC95
:0921EB0053B3FB43B404C2922279
:10167700E4900169F01221EB9001ECF0A3F0000077
:101687009001EDE004F070069001ECE004F09001A9
:10169700ECE0B427E9A3E0B410E41220251222FEFF
:1016A700121F6AD2AF9001A7E06002E4F09001A98F
:1016B700E06008E4F01220A1121E899001ABE060FF
:1016C70005E4F01215289001ADE06002E4F0900106
:1016D700B0E06013E4F0900169E004F0E0C3940324
:1016E7004005E4F0121901121EEF90016AEFF06055
:0E16F700B4E4900169F0A3E0FF120B1680A787
:0C21A9009001A1EBF0A3EAF0A3E9F02202
:0C21B5009001A4EBF0A3EAF0A3E9F022F3
:10214E009001A1A3E0FAA3E0F94A60031203BF22B3
:10215E009001A4A3E0FAA3E0F94A60031203BF22A0
:101EBD00EF4E602D900197EEF0A3EFF0AF05A3EC80
:101ECD00F0A3EFF0AF03A3EAF0A3EFF0E4A3F0A3C8
:101EDD00F0A3F0A3F0900196F090019504F012217B
:021EED004E2283
:1020EF00E4900195F012215E7B007A0079001221B5
:0420FF00A90221B55C
:10152800900195E070030215DC900199E0FEA3E0BC
:10153800FF4E70030215DC900196E07035D3EF94EE
:1015480000EE940050030215DC90019DE475F00153
:101558001201C3FED3900198E095F0900197E09EA8
:10156800507212215EE490019DF0A3F09001960460
:10157800F022900196E06401705A90019D75F00187
:101588001201C3FED390019AE095F0900199E09E74
:10159800504290019BE0FEA3E0FF9400EE940040CF
:1015A8002590019FE475F0011201C3FCD3EF95F07B
:1015B800EE9C5005E4900195F0900195E07007903D
:1015C8000199F0A3F022E490019DF0A3F090019618
:0515D800F012214E227B
:10216E000000000000000000000000000000000061
:101CC7004101280050012900000000000000000029
:101CD7000000000000000050011800000000000094
:101CE700000000000000000000004801390000006B
:051CF7000000000000E8
:101F6A00E4900128F0FE7F10FD7B017A01792912A5
:101F7A0003C57E007F107D007B017A017918120368
:071F8A00C512106A02218D4F
:0E180F0090016EEBF0A3EAF0A3E9F0A3EDF078
:10181D00780D7C007D007BFF7A21796E7E007F1034
:10182D001200DEE4900172F0900171E0D39410503B
:10183D004D9001287401F090016EE0FBA3E0FAA336
:10184D00E0F974019001186B7008E965827003EA84
:10185D006583602A7E007F107D007B017A017918F7
:10186D001203C5900171E0FF7E0078187C017D01A7
:0E187D0090016EE0FBA3E0FAA3E0F91200DE9A
:01188B00223A
:101E8900900128E0602D1221D7EF24F0601424D0AE
:101E99006010242070121221C11222DEE490012860
:101EA900F0221221C10222DE7B017A0179187D100C
:041EB900121D58227C
:1019E2009001E9EBF0A3EAF0A3E9F0AE05E490017F
:1019F200EEF0AF061EEF60469001EEE0FF9001E9C7
:101A0200E0FBA3E475F0011201D9A9F0FA12010476
:101A12006F9001EEF0E4A3F09001EFE0C394085060
:101A2200D19001EEE030E007C313648CF0800790A0
:101A320001EEE0C313F09001EFE004F080DA9001D0
:041A4200EEE0FF22B1
:101705009001B3EBF0A3EAF0A3E9F0AE05E4900194
:10171500EEF0AF061EEF606B9001EEE0FF9001B3B7
:10172500E0FBA3E475F0011201D9A9F0FA12010456
:101735006F9001EEF09001B7E004F0A3E0FF900197
:10174500B7E0C39F4012E4F0EFFDE49DFDE4940093
:101755009001B48DF01201C3E49001EFF09001EF18
:10176500E0C3940850AC9001EEE030E007C3136489
:101775008CF080079001EEE0C313F09001EFE004D8
:09178500F080DA9001EEE0FF2291
:0122FE0022BD
:0A21CD00E42FFFEE343CFE020D6F1C
:0122FF0022BC
:0123000022BA
:041CFC004101F000B2
:06145D007B017A01796CAD
:0E14630090016EEFF0A3EBF0A3EAF0A3E9F026
:10147100E4A3F01220EF7BFF7A2279F81221A97BF5
:10148100FF7A2279FB1221B57B017A007D017C0074
:101491007F037E00121EBD90016FE0FBA3E0FAA363
:1014A100E0F9740112011D2418F582E43401F58379
:1014B10074F2F0740112011D2418F582E43401F56F
:1014C100837401F090016EE0FF740112011D241874
:1014D100F582E43401F583EFF0E4900172F09001BC
:1014E10019E02401FFE433FE900172E0FDC39FEE99
:1014F1006480F8748098502E74192DF582E43401BB
:10150100F583E0FF90016FE0FBA3E0FAA3E0F9129D
:1015110001042418F582E43401F583E02FF09001F1
:0615210072E004F080B846
:0115270022A1
:050B160090016BEFF0FF
:100B1B00E4A3F0A3F090016CF0FE7F10FD7B017A53
:100B2B000179181203C590016BE024FEB446004016
:100B3B0003020D5B900B4D75F003A4C58325F0C527
:100B4B008373020C1F020C2C020C49020C3C020C8E
:100B5B005D020D5B020C6D020C80020CA9020C9065
:100B6B00020CBD020D5B020CCD020D5B020D5B0294
:100B7B000D5B020D5B020CD8020D5B020D5B020DCF
:100B8B005B020D5B020D5B020D5B020D5B020D5BED
:100B9B00020CE2020D5B020D5B020D5B020CEC0220
:100BAB000D5B020CF6020D5B020D5B020D5B020D81
:100BBB005B020D5B020D00020D5B020D5B020D0A69
:100BCB00020D5B020D5B020D14020D5B020D5B024D
:100BDB000D5B020D5B020D5B020D1E020D5B020D28
:100BEB005B020D5B020D5B020D5B020D28020D5BC0
:100BFB00020D5B020D32020D5B020D5B020D5B02FF
:100C0B000D3C020D5B020D5B020D46020D5B020DEE
:100C1B005B020D509001F0E070227F5012145D804A
:100C2B00759001F07401F0FB7A01796C7F70020D05
:100C3B00589001F0E070057F5112145D80589001BF
:100C4B00F0E07003020D5B7B017A01796C7F71021E
:100C5B000D589001F07401F0FB7A01796C7F7102F1
:100C6B000D589001F0E0700B7B017A01796C7F528B
:100C7B0012146380219001F07401F0FB7A01796CFE
:100C8B007F72020D589001F0E0700B7B017A0179B5
:100C9B006C7F53121463E49001F0F0020D5B900132
:100CAB00F0E07003020D5B7B017A01796C7F7302BC
:100CBB000D589001F07401F0FB7A01796C7F73028F
:100CCB000D587B017A01796C7F54020D587B017AA8
:100CDB0001796C7F5580767B017A01796C7F568028
:100CEB006C7B017A01796C7F5780627B017A017989
:100CFB006C7F5880587B017A01796C7F59804E7BD1
:100D0B00017A01796C7F5A80447B017A01796C7F7F
:100D1B005B803A7B017A01796C7F5C80307B017A56
:100D2B0001796C7F5D80267B017A01796C7F5E8017
:100D3B001C7B017A01796C7F5F80127B017A0179D0
:100D4B006C7F6080087B017A01796C7F6112146380
:100D5B0090016CE0600D04F07B017A017918E0FDE5
:030D6B0012180F4C
:010D6E002262
:10202500A2AF9209C2AF75C7AA75C75553A37FA2C0
:102035000992AF1221031221FD1222F2122047D27A
:02204500AF22C8
:081D00004101B1004101B200F4
:1020470012217E5389F0438901538EF79001B174B1
:10205700FAF0A374C4F0758CFAF58AD2A9D28C224F
:0F217E007E007F0A7D007B017A0179A70203C5ED
:03000B0002178E4B
:10178E00C0E0C0F0C083C082C0D075D000C000C021
:10179E00069001B1E0F58CA3E0F58A9001A77401E3
:1017AE00F0A3E004F0C3940A4005E4F0A304F09023
:1017BE0001AAE004F0C394644005E4F0A304F090A1
:1017CE0001ACE004F0C394F4748094814005E4F01D
:1017DE00A304F09001AEE475F0011201C3FEC3E55F
:1017EE00F094E8EE9403400A9001AEE4F0A3F0A367
:1017FE0004F0D006D000D0D0D082D083D0F0D0E08C
:01180E0032A7
:101FDE000A6D679C46F6375D4521EFAC5A50010BF2
:101FEE00DF020A6D679C46F6375D4521EFAC5A500D
:041FFE00E10BDF0212
:081D08004501C4CCCCCCCCCCCD
:1021030053B3FE43B40153B3FD43B40253B1FE438F
:03211300B20122F4
:0123010022B9
:10206700E4FEC290EF30E704D2808002C280EF2501
:0C207700E0FFD290000EEEB408E8C2902A
:01208300223A
:04211600E4FD7FFC69
:0F211A00C29100122067AF0512206700D29122F8
:0A1D15007B019001817405F07F3F0F
:0B1D1F0090017EEBF0A3EAF0A3E9F0D6
:101D2A00C291E4FD122067900181E0FFEDC39F504C
:101D3A001A90017EE0FBA3E0FAA3E0F98D82758395
:0D1D4A0000120141FF1220670D80DCD291D4
:011D57002269
:10200200E4FEC290EF30E704D2808002C280EF2566
:10201200E0FFD290000EEEB408E843B10153B2FEE5
:02202200C2906A
:012024002299
:1020D600E4FFFEC290EF25E0FFD29030800344017A
:0820E600FF0EEEB408EDC290FC
:0120EE0022CF
:10212900C291001220021220D653B1FE43B201001F
:02213900D29141
:01213B002281
:0B1D9B009001C0EBF0A3EAF0A3E9F018
:101DA600C291122002E4FD9001C3E0FFEDC39F50F3
:101DB6001A1220D69001C0E0FBA3E0FAA3E0F98D49
:101DC60082758300EF1201A10D80DC53B1FE43B290
:031DD60001D291A6
:011DD90022E7
:0E218D001221167D8E7F2012211A00000022E2
:101FB800E4FEFD7FFC12211A7D8F7F2012211AE496
:101FC800FD7FFD12211AE4FEFF000FBF00010EBEC7
:051FD80013F7BF88F4BF
:011FDD0022E1
:0A21D7007F07122129EF5470FF2248
:0622EC007F0912212922E6
:0722DE007D707F2702211A29
:0C21C100E4FD7FE112211A7FE202211AE6
:0E219B00AC07122116AF04AD077F2502211AF2
:061D58001221D7EF703CE0
:101D5E0090016BF0A3F0900181EDF07FA0121D1F9A
:101D6E00E4FD7FFD12211AE490016BF0A3F00090C8
:101D7E00016CE004F0700690016BE004F090016BD2
:0C1D8E00E07004A3E064C870E5122116A8
:011D9A002226
:101F1900AC051221D7EF30E61D1221169001C3EC52
:101F2900F07F61121D9B1221C11222DEE4FD7FFDAB
:091F390012211A7F01227F00220F
:10106A00786B7C017D017BFF7A1F79DE7E007F052C
:10107A001200DE78707C017D017BFF7A1F79E37EA6
:10108A00007F031200DE78737C017D017BFF7A1FEB
:10109A0079E67E007F061200DE78797C017D017B8D
:1010AA00FF7A1F79EC7E007F011200DE787A7C01DC
:1010BA007D017BFF7A1F79ED7E007F031200DE122D
:1010CA0023017D5A7F5312211A7DA57F5312211ABB
:1010DA007D207F3D12211A1221167FE112211A7FEB
:1010EA00E212211A7D707F2712211A7D017F2212B6
:1010FA00211A7D037F2312211A7D4E7F2512211A80
:10110A007D107F3112211A7B017A0179C490018105
:10111A007405F07F30121D1F7B017A0179C490019A
:10112A00817405F07F2A121D1F7A01796B121D1531
:10113A007B017A0179739001817406F07F3A121D5E
:10114A001F7B017A0179799001817401F07F39124C
:10115A001D1F7B017A0179709001817403F07F3E33
:10116A00121D1F7B017A01797A9001817403F07F45
:10117A003B121D1FE4FD7F3C12211A7D3F7F261280
:0E118A00211AE4FD7F2412211A7F2102211A6E
:0512AA00900182EFF04D
:1012AF00E478837C017D017BFF7A1F79F0FE7F0557
:1012BF001200DE78887C017D017BFF7A1F79F57E35
:1012CF00007F031200DE788B7C017D017BFF7A1F8C
:1012DF0079F87E007F061200DE78917C017D017B1C
:1012EF00FF7A1F79FE7E007F011200DE78927C016B
:1012FF007D017BFF7A1F79FF7E007F031200DE7D69
:10130F005A7F5312211A7DA57F5312211A7D207FF8
:10131F003D12211A122116E4FF000000000FEFB456
:10132F00DCF7900182E0FD7F2512211A7D3F7F2699
:10133F0012211A7A017983121D157B017A01798B9B
:10134F009001817406F07F3A121D1F7B017A01799B
:10135F00919001817401F07F39121D1F7B017A0179
:10136F0079889001817403F07F3E121D1F7B017AF3
:0E137F000179929001817403F07F3B021D1FE3
:041D10004101BB00D2
:0123020022B8
:100D6F00AB07AA06A9059001BCEFF0C3948050040D
:100D7F00E4F080069001BC7480F09001B9E4F0A318
:100D8F007480F09001BCE07C002400FEEC3AA3F0EC
:100D9F00A3CEF09001B9E0FEA3E0FF7003EE640173
:100DAF0060369001BDE0FCA3E0F5828C83E4938F65
:100DBF00828E83F09001BBE004F09001BAE004F062
:100DCF0070069001B9E004F09001BEE004F070C32A
:100DDF009001BDE004F080BBAF039001BCEFF0C306
:100DEF009480500FE02480FEE4339001B9F0A3CE3D
:100DFF00F0800D9001BCE0FF9001B9E4F0A3EFF09B
:100E0F009001B9E0FCA3E0F5828C83E9F0AD038D8E
:100E1F00A6EAFFF5A775AEFFA2AF9209C2AF75C7DD
:100E2F00AA75C755439F01A20992AFA2AF9209C2FB
:100E3F00AF75C7AA75C75543A501A20992AF75AF84
:100E4F0022A2AF9209C2AF75C7AA75C75543A401B5
:100E5F00A20992AF9001BCEDF0C394805004E4F06E
:100E6F0080069001BC7480F09001B9E4F0A3748007
:100E7F00F09001BCE0F5A68FA7A2AF9209C2AF75A3
:100E8F00C7AA75C755439F01A20992AFA2AF920996
:100E9F00C2AF75C7AA75C75543A501A20992AF7511
:100EAF00AF219001B9E0FEA3E0FFF44E602C8F82DA
:100EBF008E83E0F5AEA2AF9209C2AF75C7AA75C710
:100ECF005543A401A20992AF05A69001BAE004F020
:100EDF0070D09001B9E004F080C8A2AF9209C2AF00
:100EEF0075C7AA75C75553A5FEA20992AFA2AF92B7
:100EFF0009C2AF75C7AA75C755539FFEA20992AF16
:010F0F0022BF
:040003008F828E83D7
:03000700E493FF80
:01000A0022D3
:10138D00E4FED282D283D284D285D286D287D29401
:10139D00D295D296D297EF14603114604614605BEB
:1013AD001460701470030214382405600302145A7B
:1013BD00C282ED14600F14600E14600D24036003DF
:1013CD0002145A80768078807A807CC283ED146016
:1013DD000C14600B14600A24037072805E806080B0
:1013ED00628064C284ED14600C14600B14600A24D6
:1013FD0003705A80468048804A804CC285ED146047
:10140D000C14600B14600A24037042802E8030800F
:10141D00328034C286ED14600C14600B14600A2403
:10142D0003702A80168018801A801CC287ED146004
:10143D000E14600F14601024037012A297800AA27C
:0F144D00968006A2958002A294B3E433FEAF0608
:01145C00226D
:0722E500E4FDFF12138D223E
:082206007D01E4FF12138D229B
:08220E007D02E4FF12138D2292
:082216007D03E4FF12138D2289
:08221E00E4FD7F0112138D2283
:082226007D017F0112138D22DE
:08222E007D027F0112138D22D5
:082236007D037F0112138D22CC
:08223E00E4FD7F0212138D2262
:082246007D017F0212138D22BD
:08224E007D027F0212138D22B4
:082256007D037F0212138D22AB
:08225E00E4FD7F0312138D2241
:082266007D017F0312138D229C
:08226E007D027F0312138D2293
:082276007D037F0312138D228A
:08227E00E4FD7F0412138D2220
:082286007D017F0412138D227B
:08228E007D027F0412138D2272
:082296007D037F0412138D2269
:08229E00E4FD7F0512138D22FF
:0822A6007D017F0512138D225A
:0822AE007D027F0512138D2251
:0822B6007D037F0512138D2248
:0622F2001207D5021DDAFF
:10208400900116E0240BF582E43401F583EFF0901F
:0D2094000116E004F0C3940A4002E4F022BB
:101EEF00900116E0FF900115E0FEB507037F002279
:101EFF00740B2EF582E43401F583E0FF900115E0B9
:091F0F0004F0C3940A4002E4F05E
:011F180022A6
:101F4200900116E0FFA3E0FEB507037F0022740BA9
:101F52002EF582E43401F583E0FF900117E004F0EE
:071F6200C3940A4002E4F001
:011F69002255
:10213C0075F00BEFA4240BF582E5F03400F583E089
:02214C00FF2270
:101E520075F00BEFA42409F582E5F03400F583EC6C
:101E6200F0A3EDF075F00BEFA4240CF582E5F0344D
:101E720000F583EBF075F00BEFA4240DF582E5F08D
:071E82003400F583E4F022B7
:0921F400900116E0900115F022A3
:101DDA0053B1FB53B2FB53B1F753B2F753B1EF53BD
:101DEA00B2EF53B1DF53B2DF53B1BF53B2BF53B1F6
:101DFA007F53B27F53B3EF53B4EF53B3DF53B4DF20
:0D1E0A0053B3BF53B4BF53B37F53B47F2213
:1007D500E47E017F08FD7B017A0079031203C5E4FD
:1007E500900115F0A3F0A3F0FF75F00BEFA4240919
:1007F500F582E5F03400F583E4F0A37446F075F076
:100805000BEFA42406F582E5F03400F5837402F0BD
:1008150075F00BEFA4240BF582E5F03400F583E4C5
:10082500F075F00BEFA4240CF582E5F03400F583A8
:10083500E4F075F00BEFA4240DF582E5F03400F536
:1008450083E4F00FEFB418A19000177428F090001E
:100855002DF090004EF09000A6F090006FF0900003
:1008650085F090009BF09000C7F09000B1F09000EB
:10087500DDF0E4FF0F75F00BA42403F582E5F034F9
:1008850000F58374FFF0A37422F0A374E5F00F75EF
:10089500F00B7401A42403F582E5F03400F58374AC
:1008A500FFF0A37422F0A37406F00F75F00B740229
:1008B500A42403F582E5F03400F58374FFF0A374F6
:1008C50022F0A3740EF00F75F00B7403A42403F546
:1008D50082E5F03400F58374FFF0A37422F0A3746D
:1008E50016F00F75F00B7404A42403F582E5F034BB
:1008F50000F58374FFF0A37422F0A3741EF00F7546
:10090500F00B7405A42403F582E5F03400F5837437
:10091500FFF0A37422F0A37426F00F75F00B740694
:10092500A42403F582E5F03400F58374FFF0A37485
:1009350022F0A3742EF00F75F00B7407A42403F5B1
:1009450082E5F03400F58374FFF0A37422F0A374FC
:1009550036F00F75F00B7408A42403F582E5F03426
:1009650000F58374FFF0A37422F0A3743EF00F75B5
:10097500F00B7409A42403F582E5F03400F58374C3
:10098500FFF0A37422F0A37446F00F75F00B740A00
:10099500A42403F582E5F03400F58374FFF0A37415
:1009A50022F0A3744EF00F75F00B740BA42403F51D
:1009B50082E5F03400F58374FFF0A37422F0A3748C
:1009C50056F00F75F00B740CA42403F582E5F03492
:1009D50000F58374FFF0A37422F0A3745EF00F7525
:1009E500F00B740DA42403F582E5F03400F583744F
:1009F500FFF0A37422F0A37466F00F75F00B740E6C
:100A0500A42403F582E5F03400F58374FFF0A374A4
:100A150022F0A3746EF00F75F00B740FA42403F588
:100A250082E5F03400F58374FFF0A37422F0A3741B
:100A350076F00F75F00B7410A42403F582E5F034FD
:100A450000F58374FFF0A37422F0A3747EF00F7594
:100A5500F00B7411A42403F582E5F03400F58374DA
:100A6500FFF0A37422F0A37486F00F75F00B7412D7
:100A7500A42403F582E5F03400F58374FFF0A37434
:100A850022F0A3748EF00F75F00B7413A42403F5F4
:100A950082E5F03400F58374FFF0A37422F0A374AB
:100AA50096F00F75F00B7414A42403F582E5F03469
:100AB50000F58374FFF0A37422F0A3749EF00F7504
:100AC500F00B7415A42403F582E5F03400F5837466
:100AD500FFF0A37422F0A374A6F00F75F00B741643
:100AE500A42403F582E5F03400F58374FFF0A374C4
:100AF50022F0A374AEF075F00BEFA42403F582E5A4
:100B0500F03400F58374FFF0A37422F0A374B6F0FB
:010B150022BD
:100F100090016CEFF0E075F00BA42403F974003538
:100F2000F0FA7B01900000EBF0A3EAF0A3E9F012E5
:100F3000039F1203BFEF7003021002900000E0FB5A
:100F4000A3E0FAA3E0F9900003120141FFC3940566
:100F500050089000037405021066EFC3940A50080D
:100F6000900003740102016E900008120141701498
:100F7000900008041201A190016CE075F003A40434
:100F8000FF122084900000E0FBA3E0FAA3E0F990B8
:100F900000061201EFFFAEF0D39400EE9400500370
:100FA0000210699000041201EFC39FE5F09E5023E8
:100FB000900004E475F001120227FCE5F06F700266
:100FC000EC6E600302106990016CE075F003A424DC
:100FD00003802B900009120141FFD39400500302BB
:100FE000106990000A740112016EC39F407B90004B
:100FF0000AE41201A190016CE075F003A404FF0261
:101000002084900000E0FBA3E0FAA3E0F990000345
:10101000120141FFD39405400A90000374051201A8
:10102000A1802BEF600A90000374FF12016E801EF6
:10103000900008120141B40115900008E41201A1CA
:1010400090016CE075F003A42402FF12208490004C
:1010500000E0FBA3E0FAA3E0F9900004E4F5F0124D
:0A106000027490000AE41201A122BC
:1020A100E490016BF090016BE0FFC39418500B12A8
:0A20B1000F1090016BE004F080EBCB
:0120BB002202
:0921FD0053ACFE43AD010222FBCC
:0322F800D2B0223F
:0322FB00C2B0224C
:0A21E100EF60030222F81222FB2235
:101E170053B1BF53B2BF53B17F53B27F759850438D
:101E27008920438780438E1053C4DFAB07AA06A9D6
:101E370005A8047F407E427D0F7C001202DDEF047F
:0B1E4700F404F58DD28ED299D2AC22AB
:10188C009001C912039353B1BF53B2BF53B17F53ED
:10189C00B27F75985043878053C4F843C42090019D
:1018AC00C9E0F8A3E0F9A3E0FAA3E0FB7F407E4295
:1018BC007D0F7C001202DDC374FF9FFF74FF9EFE40
:1018CC00E49DFDE49CFC78081203808FC69001C94E
:1018DC00E0F8A3E0F9A3E0FAA3E0FB7F407E427DB1
:1018EC000F7C001202DDC374FF9FFF8FC543C40839
:0518FC00D299D2AC22DC
:0722BE003098FDAF99C298B2
:0122C50022F6
:0822C600C2998F993099FD22A5
:101974009001CD12039353B1FB53B2FB53B3BF5346
:10198400B4BF75F85075C40853C4DF9001CDE0F8B6
:10199400A3E0F9A3E0FAA3E0FB7F407E427D0F7C45
:1019A400001202DDC374FF9FFF74FF9EFEE49DFDE1
:1019B400E49CFC78081203808FC69001CDE0F8A364
:1019C400E0F9A3E0FAA3E0FB7F407E427D0F7C00B8
:0E19D4001202DDC374FF9FFF8FC543C40822BB
:0722CE0030F8FDAF9AC2F8E1
:0122D50022E6
:0822D600C2F98F9A30F9FD22D4
:1020BC0075C7AA75C755A2AF9209C2AF75C7AA75E5
:0A20CC00C755439F80A20992AF227E
:101BB7009001D1120393538EF7438901D28CE4FF2E
:101BC700FEFDFC9001D1E0F8A3E0F9A3E0FAA3E061
:101BD700FBC312036F602F758A7E758CFF308DFDF6
:101BE700C28D9001D1E0FCA3E0FDA3E0FEA3E024B9
:101BF700FFFFEE34FFFEED34FFFDEC34FFFC9001F8
:091C0700D112039380B8C28C22B3
:101C10009001D5120393538EF7438901D28CE4FFD0
:101C2000FEFDFC9001D5E0F8A3E0F9A3E0FAA3E003
:101C3000FBC312036F602F758ACA758CFA308DFD55
:101C4000C28D9001D5E0FCA3E0FDA3E0FEA3E0245B
:101C5000FFFFEE34FFFEED34FFFDEC34FFFC90019E
:091C6000D512039380B8C28C2256
:101C69009001D9120393538EEF438910D28EE4FF6A
:101C7900FEFDFC9001D9E0F8A3E0F9A3E0FAA3E0A6
:101C8900FBC312036F602F758BEA758DCB308FFD07
:101C9900C28F9001D9E0FCA3E0FDA3E0FEA3E024FC
:101CA900FFFFEE34FFFEED34FFFDEC34FFFC900145
:091CB900D912039380B8C28E22F7
:101AA5009001DD12039353C9BF53C9DF43C910D257
:101AB500CAE4FFFEFDFC9001DDE0F8A3E0F9A3E038
:101AC500FAA3E0FBC312036F602F75CC3075CDF818
:101AD50030CFFDC2CF9001DDE0FCA3E0FDA3E0FE29
:101AE500A3E024FFFFEE34FFFEED34FFFDEC34FFF1
:0C1AF500FC9001DD12039380B8C2CA22ED
:101B01009001E112039375C40743C408E4FFFEFD8D
:101B1100FC9001E1E0F8A3E0F9A3E0FAA3E0FBC344
:101B210012036F603275C52C75C6CFE5C430E4FB76
:101B310053C4EF9001E1E0FCA3E0FDA3E0FEA3E0CC
:101B410024FFFFEE34FFFEED34FFFDEC34FFFC908B
:0B1B510001E112039380B553C4F7229A
:101B5C009001E512039375C40743C408E4FFFEFD2E
:101B6C00FC9001E5E0F8A3E0F9A3E0FAA3E0FBC3E5
:101B7C0012036F603275C5D875C6FFE5C430E4FB3F
:101B8C0053C4EF9001E5E0FCA3E0FDA3E0FEA3E06D
:101B9C0024FFFFEE34FFFEED34FFFDEC34FFFC9030
:0B1BAC0001E512039380B553C4F7223B
:101198000A3D3D3D3D3D3D3D3D3D3D3D3D3D3D3DAA
:1011A8003D3D3D3D3D3D3D3D3D3D3D3D3D3D3D3D67
:1011B8003D3D3D3D3D3D3D3D3D3D3D3D3D3D3D3D57
:1011C8003D3D3D3D3D3D3D3D3D3D3D3D3D3D3D3D47
:1011D8003D3D3D3D3D000A2A2020436F70797269EC
:1011E8006768742863292032303135204E75766F50
:1011F800746F6E20546563686E6F6C6F67792043F7
:101208006F72702E20416C6C20726967687473204D
:1012180072657365727665642E2020000A2A202084
:10122800436F6E7461637420452D4D61696C3A207B
:101238004D6963726F432D38626974406E75766FBD
:10124800746F6E2E636F6D202020202020202020B8
:101258002020202020202020202020202020202086
:1012680020000A2A202044656D6F20566572736934
:101278006F6E20203A202532642E2532642E2532C6
:1012880064000A2A202046696E69736865642044F0
:10129800617465203A202532642E2532642E253269
:0212A8006400E0
:101A46007BFF7A1179981204DB7BFF7A1179DE121B
:101A560004DB7BFF7A1279241204DB7BFF7A12798E
:101A66006A900144E4F0A304F0E4A3F0A3F0A3F029
:101A7600A3F01204DB7BFF7A12798A900144740783
:101A8600F0A374DFF0A3E4F0A37405F0A3E4F0A3DD
:0F1A9600741FF01204DB7BFF7A1179980204DBD6
:030000000215DD09
:1015DD00787FE4F6D8FD9000007FFF7E03E4F0A352
:0A15ED00DFFCDEFA758121021632E0
:1015F700021677E493A3F8E493A34003F68001F27D
:1016070008DFF48029E493A3F85407240CC8C333F4
:10161700C4540F4420C8834004F456800146F6DFC3
:10162700E4800B0102040810204080901CC2E47E75
:10163700019360BCA3FF543F30E509541FFEE493B8
:10164700A360010ECF54C025E060A840B8E493A37F
:10165700FAE493A3F8E493A3C8C582C8CAC583CAAA
:10166700F0A3C8C582C8CAC583CADFE9DEE780BE62
:011D140000CE
:10000E00E709F608DFFA8046E709F208DFFA803ED4
:10001E0088828C83E709F0A3DFFA8032E309F608C1
:10002E00DFFA8078E309F208DFFA807088828C8329
:10003E00E309F0A3DFFA806489828A83E0A3F608DD
:10004E00DFFA805889828A83E0A3F208DFFA804CB7
:10005E0080D280FA80C680D4806980F2803380108E
:10006E0080A680EA809A80A880DA80E280CA8033F7
:10007E0089828A83ECFAE493A3C8C582C8CCC5836F
:10008E00CCF0A3C8C582C8CCC583CCDFE9DEE7803F
:10009E000D89828A83E493A3F608DFF9ECFAA9F0BE
:1000AE00EDFB2289828A83ECFAE0A3C8C582C8CC14
:1000BE00C583CCF0A3C8C582C8CCC583CCDFEADE2D
:1000CE00E880DB89828A83E493A3F208DFF980CC8F
:1000DE0088F0EF60010E4E60C388F0ED2402B40488
:1000EE000050B9F582EB2402B4040050AF2323452F
:0600FE00822390005E73F6
:10010400BB010689828A83E0225002E722BBFE02F9
:09011400E32289828A83E493222C
:10011D00BB010B89828A83F8E0C828F0E8225003DE
:10012D0027C722BBFE07F8E3C828F3E8228A838994
:04013D0082E49322A3
:10014100BB010CE58229F582E5833AF583E0225073
:1001510006E92582F8E622BBFE06E92582F8E222BD
:0D016100E58229F582E5833AF583E49322D7
:10016E00BB010FF8E58229F582E5833AF583E02895
:10017E00F0225009C58229F8E58226F622BBFE0937
:10018E00C58229F8E22582F222F8EA2583F583E971
:03019E0093282281
:1001A100F8BB010DE58229F582E5833AF583E8F094
:1001B100225006E92582C8F622BBFE05E92582C840
:0201C100F22228
:1001C300C5F0F8A3E028F0C5F0F8E58215827002C7
:0601D3001583E038F02264
:1001D900A3F8E0C5F025F0F0E582158270021583D9
:0601E900E0C838F0E82236
:1001EF00BB0110E58229F582E5833AF583E0F5F04E
:1001FF00A3E0225009E92582F886F008E622BBFE2B
:10020F000AE92582F8E2F5F008E222E5832AF58370
:08021F00E993F5F0A3E9932235
:10022700BB010DC58229C582C5833AC5830201C3B7
:100237005011C58229F808E5F026F618F5F0E58291
:1002470036F622BBFE11C58229F808E225F0F5F043
:10025700F218E23582F222F8E58229F582E5832A4F
:0D026700F58374019325F0F5F0E49338223F
:10027400F8BB0111E58229F582E5833AF583E8F0BC
:10028400E5F0A3F0225009E92582C8F608A6F02279
:0D029400BBFE09E92582C8F2E5F008F22260
:1002A10075F008758200EF2FFFEE33FECD33CDCC14
:1002B10033CCC58233C5829BED9AEC99E582984097
:1002C1000CF582EE9BFEED9AFDEC99FC0FD5F0D674
:1002D100E4CEFBE4CDFAE4CCF9A88222B800C1B99E
:1002E1000059BA002DEC8BF084CFCECDFCE5F0CBDC
:1002F100F97818EF2FFFEE33FEED33FDEC33FCEB15
:1003010033FB10D703994004EB99FB0FD8E5E4F9CF
:10031100FA227818EF2FFFEE33FEED33FDEC33FCBC
:10032100C933C910D7059BE99A4007EC9BFCE99AB0
:10033100F90FD8E0E4C9FAE4CCFB2275F010EF2FF5
:10034100FFEE33FEED33FDCC33CCC833C810D707F5
:100351009BEC9AE899400AED9BFDEC9AFCE899F830
:0E0361000FD5F0DAE4CDFBE4CCFAE4C8F922C3
:10036F00EB9FF5F0EA9E42F0E99D42F0E89C45F0E4
:01037F00225B
:10038000E8600FECC313FCED13FDEE13FEEF13FF5B
:03039000D8F1227F
:0C039300ECF0A3EDF0A3EEF0A3EFF022DD
:10039F00BB010789828A8302040C5005E9F8020425
:1003AF0003BBFE05E9F802043589828A8302043E05
:0603BF008A838982E473C9
:10047000E5082444F582E43401F583E00508229080
:100480000141300703900144E475F00112041502A4
:1004900001042000E97F2ED2008018EF540F249031
:1004A000D43440D4FF30040BEF24BFB41A005003FF
:1004B0002461FFE50960021509050CE50C700205D1
:1004C0000B30070E900141E475F001120415EF02A4
:1004D00003F1021F917403D2078003E4C207F508F9
:1004E00090014112042CE4F509F50BF50CE50960C7
:1004F000077F201204B380F5750AFFC201C200C253
:1005000002C203C205C206C20812047FFF700D308A
:1005100007057F001204C4AF0CAE0B22B4255FC2E6
:10052000D5C20412047FFF24D0B40A00501A75F01B
:100530000A780930D50508B6FF0106C6A426F620BC
:10054000D5047002D20380D924CFB41A00EF50042E
:10055000C2E5D2040206C5D20180C6D20080C0D254
:100560000280BCD2D580BAD20580B47F201204B3F9
:100570002002077401B5090040F1120470FF120453
:10058000B30204EDD208D2068095120470FB120467
:1005900070FA120470F94A4B700679967A077BFF5D
:1005A00020022EE509602A7E008E827583001201EA
:1005B0004160060EEE650A70F0C2D5EBC0E0EAC0FD
:1005C000E0E9C0E0EE12070CD0E0F9D0E0FAD0E0AC
:1005D000FB120104FF60AAEBC0E0EAC0E0E9C0E062
:1005E0001204B3D0E02401F9D0E03400FAD0E0FBEB
:1005F000E50A0460DCD50AD980877BFF7A07790891
:10060000D202809C791080027908C206C208800854
:10061000D2D5790A8004790AC2D5E50A047002F5B8
:100620000AE4FAFDFEFF120470FC7B08200113129D
:100630000470FD7B1030000A120470FE120470FF7B
:100640007B20EC3382D592D55013C3E43000069F53
:10065000FFE49EFEE42001039DFDE49CFCE4CBF856
:10066000C201EC700CCFCECDCCE824F8F870F3804A
:1006700017C3EF33FFEE33FEED33FDEC33FCEB330A
:10068000FB994002FB0FD8E9EB300105F8D0E0C43C
:1006900048B201C0E00AEC4D4E4F78207B0070C29A
:1006A000EAB50A0040BCC0E012070ED0F0D0E0204E
:1006B0000104C4C0E0C4B201C0F012049CD0F0D563
:1006C000F0EB0204ED12044A058A53060458055B58
:1006D0004C05574206084F06104406104905704362
:0806E00006165505FA4605FA5D
:1006E8004505FA4707B650055F2D05632E05862B8D
:1006F800056723058420079F2A051F480000057EFB
:100708003F3F3F00790AA2D5200314300509B910EC
:10071800020404B9080104A2D520060250010420ED
:1007280002689202B509005034C0E07F20300319F6
:100738007F30A20272067205500F120765C202C20C
:1007480006C205C2087F30800F300503E9C0E012F9
:1007580004B3300503D0E0F9D0E0B509CC30051773
:100768007F30B9100C1204B37F583004077F7880AB
:1007780003B908031204B33002057F2D0204B37FC6
:10078800202008F87F2B2006F322920280CF286EC3
:10079800756C6C2900D2011204703001F8C201781E
:1007A8000930D50108F602051F2D50434958120497
:1007B800702403B405004001E49007B1931204A427
:0D07C800743A1204A4D20375090402060459
:1003C500EF4E6012EF60010EEDBB010B89828A834F
:1003D500F0A3DFFCDEFA2289F05007F709DFFCA95C
:0C03E500F022BBFEFCF309DFFCA9F022B3
:1003F100BB010689828A83F0225002F722BBFE01EB
:02040100F322E4
:09040300E6FB08E6FA08E6F9221E
:09040C00E0FBA3E0FAA3E0F922F1
:10041500F8E0FBA3A3E0F925F0F0E5821582700270
:070425001583E0FA38F02214
:09042C00EBF0A3EAF0A3E9F022D1
:09043500E2FB08E2FA08E2F922F8
:0C043E00E493FB740193FA740293F9221A
:10044A00D083D082F8E4937012740193700DA3A341
:10045A0093F8740193F5828883E473740293686055
:06046A00EFA3A3A380DF55
:101F9100EFB40A07740D121F9C740A309811A899A6
:101FA100B8130CC2983098FDA899C298B811F630B0
:071FB10099FDC299F5992288
:00000001FF
