:041E41004101F1006A
:1020440012233E1224651221279001A5E06002E4C8
:10205400F09001A7E06002E4F09001A9E06005E4DB
:10206400F0121F159001ABE06002E4F09001AEE0C5
:0620740060D7E4F080D308
:0C231A0090019FEBF0A3EAF0A3E9F02291
:0C2326009001A2EBF0A3EAF0A3E9F02282
:1022CF0090019FA3E0FAA3E0F94A600312094522A7
:1022DF009001A2A3E0FAA3E0F94A60031209452294
:10207A00EF4E602D900195EEF0A3EFF0AF05A3ECC3
:10208A00F0A3EFF0AF03A3EAF0A3EFF0E4A3F0A309
:10209A00F0A3F0A3F0900194F090019304F01222BF
:0220AA00CF2243
:10227000E4900193F01222DF7B007A0079001223B0
:042280001A022326F5
:1017B600900193E0700302186A900197E0FEA3E09F
:1017C600FF4E700302186A900194E07035D3EF94CF
:1017D60000EE9400500302186A90019BE475F00134
:1017E600120749FED3900196E095F0900195E09E90
:1017F60050721222DFE490019BF0A3F09001940452
:10180600F022900194E06401705A90019B75F001FA
:10181600120749FED3900198E095F0900197E09E5B
:101826005042900199E0FEA3E0FF9400EE94004040
:101836002590019DE475F001120749FCD3EF95F060
:10184600EE9C5005E4900193F0900193E0700790B0
:101856000197F0A3F022E490019BF0A3F09001948D
:05186600F01222CF2268
:101E450041012800500129000000000000000000A9
:101E55000000000000000050011800000000000014
:101E650000000000000000000000480139000000EB
:051E7500000000000068
:10212700E4900128F0FE7F10FD7B017A01792912E6
:10213700094B7E007F107D007B017A017918120917
:072147004B12136D0221751C
:0E1A84009001C2EBF0A3EAF0A3E9F0A3EDF0AD
:101A9200E4FF000FEFB40AFA1222FE90012874014B
:101AA200F0E4FF000FEFB40AFA9001C2E0FBA3E0FA
:101AB200FAA3E0F974019001186B7008E96582706D
:101AC20003EA6583602A7E007F107D007B017A0134
:101AD200791812094B9001C5E0FF7E0078187C014D
:101AE2007D019001C2E0FBA3E0FAA3E0F9120688AF
:011AF20022D1
:0C2332009001E6EBF0A3EAF0A3E9F02232
:101F1500900128E0602F122360EF24F0601624D092
:101F250060102420701412234A12244BE4900128D7
:101F3500F022800012234A02244B7B017A01791892
:101F45007D10021ED27B017A0179297D101220D6DF
:011F55002269
:101B61009001E9EBF0A3EAF0A3E9F0AE05E49001FE
:101B7100EFF0AF061EEF60469001EFE0FF9001E944
:101B8100E0FBA3E475F00112075FA9F0FA1206AEBB
:101B91006F9001EFF0E4A3F09001F0E0C3940850DE
:101BA100D19001EFE030E007C313648CF08007901F
:101BB10001EFE0C313F09001F0E004F080DA90014E
:041BC100EFE0FF2230
:101905009001B1EBF0A3EAF0A3E9F0AE05E4900194
:10191500EFF0AF061EEF606B9001EFE0FF9001B1B5
:10192500E0FBA3E475F00112075FA9F0FA1206AE19
:101935006F9001EFF09001B5E004F0A3E0FF900196
:10194500B5E0C39F4012E4F0EFFDE49DFDE4940093
:101955009001B28DF0120749E49001F0F09001F08A
:10196500E0C3940850AC9001EFE030E007C3136486
:101975008CF080079001EFE0C313F09001F0E004D4
:09198500F080DA9001EFE0FF228E
:012465002254
:0A235600E42FFFEE343CFE0210728B
:012466002253
:012467002252
:05000E009001ECEFF091
:10001300E4A3F0A3F09001EDF0FE7F10FD7B017AE5
:1000230001791812094B9001ECE024FEB419004049
:10003300030205A490004575F003A4C58325F0C50C
:1000430083730200900205A40205A40201100201B9
:10005300900205A40202100205A40205A402029064
:100063000205A40205A40203100205A40205A402CA
:1000730003900205A40205A40204250205A40205B7
:10008300A40204A50205A40205A40205279001ED1C
:10009300E0FF04F074182FF582E43401F58374F261
:1000A300F09001EDE0FF04F074182FF582E43401C1
:1000B300F5837401F09001EDE0FF04F074182FF55F
:1000C30082E43401F583E4F09001EEF0900119E04D
:1000D3002401FFE433FE9001EEE0FDC39FEE648054
:1000E300F874809840030205A474192DF582E43452
:1000F30001F583E0FF9001EDE02418F582E434017B
:10010300F583E02FF09001EEE004F080BF9001ED65
:10011300E0FF04F074182FF582E43401F58374F2E0
:10012300F09001EDE0FF04F074182FF582E4340140
:10013300F5837401F09001EDE0FF04F074182FF5DE
:1001430082E43401F583E4F09001EEF0900119E0CC
:100153002401FFE433FE9001EEE0FDC39FEE6480D3
:10016300F874809840030205A474192DF582E434D1
:1001730001F583E0FF9001EDE02418F582E43401FA
:10018300F583E02FF09001EEE004F080BF9001EDE5
:10019300E0FF04F074182FF582E43401F58374F260
:1001A300F09001EDE0FF04F074182FF582E43401C0
:1001B300F5837401F09001EDE0FF04F074182FF55E
:1001C30082E43401F583E4F09001EEF0900119E04C
:1001D3002401FFE433FE9001EEE0FDC39FEE648053
:1001E300F874809840030205A474192DF582E43451
:1001F30001F583E0FF9001EDE02418F582E434017A
:10020300F583E02FF09001EEE004F080BF9001ED64
:10021300E0FF04F074182FF582E43401F58374F2DF
:10022300F09001EDE0FF04F074182FF582E434013F
:10023300F5837401F09001EDE0FF04F074182FF5DD
:1002430082E43401F583E4F09001EEF0900119E0CB
:100253002401FFE433FE9001EEE0FDC39FEE6480D2
:10026300F874809840030205A474192DF582E434D0
:1002730001F583E0FF9001EDE02418F582E43401F9
:10028300F583E02FF09001EEE004F080BF9001EDE4
:10029300E0FF04F074182FF582E43401F58374F25F
:1002A300F09001EDE0FF04F074182FF582E43401BF
:1002B300F5837401F09001EDE0FF04F074182FF55D
:1002C30082E43401F583E4F09001EEF0900119E04B
:1002D3002401FFE433FE9001EEE0FDC39FEE648052
:1002E300F874809840030205A474192DF582E43450
:1002F30001F583E0FF9001EDE02418F582E4340179
:10030300F583E02FF09001EEE004F080BF9001ED63
:10031300E0FF04F074182FF582E43401F58374F2DE
:10032300F09001EDE0FF04F074182FF582E434013E
:10033300F5837401F09001EDE0FF04F074182FF5DC
:1003430082E43401F583E4F09001EEF0900119E0CA
:100353002401FFE433FE9001EEE0FDC39FEE6480D1
:10036300F874809840030205A474192DF582E434CF
:1003730001F583E0FF9001EDE02418F582E43401F8
:10038300F583E02FF09001EEE004F080BF9001EDE3
:10039300E0FF04F074182FF582E43401F58374F25E
:1003A300F09001EDE0FF04F074182FF582E43401BE
:1003B300F5837402F09001EDE0FF04F074182FF55B
:1003C30082E43401F583E4F09001EDE0FF04F0747E
:1003D300182FF582E43401F5837403F0E49001EE01
:1003E300F0900119E02401FFE433FE9001EEE0FDFB
:1003F300C39FEE6480F874809840030205A47419C7
:100403002DF582E43401F583E0FF9001EDE024183B
:10041300F582E43401F583E02FF09001EEE004F07F
:1004230080BF9001EDE0FF04F074182FF582E434EF
:1004330001F58374F2F09001EDE0FF04F074182FDE
:10044300F582E43401F5837401F09001EDE0FF04DB
:10045300F074182FF582E43401F583E4F09001EE93
:10046300F0900119E02401FFE433FE9001EEE0FD7A
:10047300C39FEE6480F874809840030205A4741946
:100483002DF582E43401F583E0FF9001EDE02418BB
:10049300F582E43401F583E02FF09001EEE004F0FF
:1004A30080BF9001EDE0FF04F074182FF582E4346F
:1004B30001F58374F2F09001EDE0FF04F074182F5E
:1004C300F582E43401F5837401F09001EDE0FF045B
:1004D300F074182FF582E43401F583745AF0E49034
:1004E30001EEF0900119E02401FFE433FE9001EEE8
:1004F300E0FDC39FEE6480F874809840030205A476
:1005030074192DF582E43401F583E0FF9001EDE0E9
:100513002418F582E43401F583E02FF09001EEE036
:1005230004F080BF9001EDE0FF04F074182FF58212
:10053300E43401F58374F2F09001EDE0FF04F0740C
:10054300182FF582E43401F5837401F09001EDE096
:10055300FF04F074182FF582E43401F583E4F0907E
:1005630001EEF0900119E02401FFE433FE9001EE67
:10057300E0FDC39FEE6480F8748098502474192DB5
:10058300F582E43401F583E0FF9001EDE02418F5F2
:1005930082E43401F583E02FF09001EEE004F08073
:1005A300C29001EDE0600D04F07B017A017918E05F
:0405B300FD121A8497
:0105B7002221
:0C233E0012228412245F1221E2D2AF228E
:081E7A004101AF004101B0007D
:1021E2001222EF5389F0438901538EF79001AF74A5
:1021F200FAF0A374C4F0758CFAF58AD2A9D28C22B3
:0F22EF007E007F0A7D007B017A0179A502094BF1
:03000B0002198E49
:10198E00C0E0C0F0C083C082C0D075D000C000C01F
:10199E00069001AFE0F58CA3E0F58A9001A57401E5
:1019AE00F0A3E004F0C3940A4005E4F0A304F09021
:1019BE0001A8E004F0C394644005E4F0A304F090A1
:1019CE0001AAE004F0C394F4748094814005E4F01D
:1019DE00A304F09001ACE475F001120749FEC3E5D3
:1019EE00F094E8EE9403400A9001ACE4F0A3F0A367
:1019FE0004F0D006D000D0D0D082D083D0F0D0E08A
:011A0E0032A5
:10219B000A6D679C46F6375D4521EFAC5A50010B33
:1021AB00DF020A6D679C46F6375D4521EFAC5A504E
:0421BB00E10BDF0253
:081E82004501BDCCCCCCCCCC59
:1022840053B3FE43B40153B3FD43B40253B1FE430D
:03229400B2012272
:012468002251
:10220200E4FEC290EF30E704D2808002C280EF2564
:0C221200E0FFD290000EEEB408E8C2908D
:01221E00229D
:04229700E4FD7FFCE7
:0F229B00C29100122202AF0512220200D291223C
:0A1E8F007B0190017F7405F07F3F96
:0B1E990090017CEBF0A3EAF0A3E9F05D
:101EA400C291E4FD12220290017FE0FFEDC39F5036
:101EB4001A90017CE0FBA3E0FAA3E0F98D8275831C
:0D1EC400001206C7FF1222020D80DCD29131
:011ED10022EE
:1021BF00E4FEC290EF30E704D2808002C280EF25A8
:1021CF00E0FFD290000EEEB408E843B10153B2FE27
:0221DF00C290AC
:0121E10022DB
:10225700E4FFFEC290EF25E0FFD2903080034401F7
:08226700FF0EEEB408EDC29079
:01226F00224C
:1022AA00C291001221BF12225753B1FE43B201005C
:0222BA00D291BF
:0122BC0022FF
:0B1F560090016AEBF0A3EAF0A3E9F0B1
:101F6100C2911221BFE4FD90016DE0FFEDC39F50CE
:101F71001A12225790016AE0FBA3E0FAA3E0F98D5F
:101F810082758300EF1207270D80DC53B1FE43B247
:031F910001D291E9
:011F9400222A
:0E22FE001222977D8E7F2012229B000000226C
:10217500E4FEFD7FFC12229B7D8F7F2012229BE4D3
:10218500FD7FFD12229BE4FEFF000FBF00010EBE86
:0521950013F7BF88F400
:01219A002222
:0A2360007F071222AAEF5470FF223B
:062459007F091222AA22F5
:07244B007D707F2702229B38
:0C234A00E4FD7FE112229B7FE202229B57
:0E230C00AC07122297AF04AD077F2502229B7B
:061ED200122360EF703CDA
:101ED800900169F0A3F090017FEDF07FA0121E99A8
:101EE800E4FD7FFD12229BE4900169F0A3F00090CD
:101EF800016AE004F07006900169E004F09001695D
:0C1F0800E07004A3E064C870E5122297AA
:011F140022AA
:1020D600AC05122360EF30E61D12229790016DECDD
:1020E600F07F61121F5612234A12244BE4FD7FFD36
:0920F60012229B7F01227F0022CF
:10136D0078697C017D017BFF7A21799B7E007F0569
:10137D00120688786E7C017D017BFF7A2179A07E33
:10138D00007F0312068878717C017D017BFF7A2135
:10139D0079A37E007F0612068878777C017D017B1C
:1013AD00FF7A2179A97E007F0112068878787C0169
:1013BD007D017BFF7A2179AA7E007F0312068812B8
:1013CD0024687D5A7F5312229B7DA57F5312229B49
:1013DD007D207F3D12229B1222977FE112229B7F5F
:1013ED00E212229B7D707F2712229B7D017F2212AC
:1013FD00229B7D037F2312229B7D4E7F2512229BF4
:10140D007D107F3112229B7B017A0179BD90017F86
:10141D007405F07F30121E997B017A0179BD900120
:10142D007F7405F07F2A121E997A017969121E8F39
:10143D007B017A01797190017F7406F07F3A121E5B
:10144D00997B017A01797790017F7401F07F3912D0
:10145D001E997B017A01796E90017F7403F07F3EB6
:10146D00121E997B017A01797890017F7403F07FC8
:10147D003B121E99E4FD7F3C12229B7D3F7F26127D
:0E148D00229BE4FD7F2412229B7F2102229BE2
:0516D300900180EFF022
:1016D800E478817C017D017BFF7A2179ADFE7F056D
:1016E80012068878867C017D017BFF7A2179B27E9B
:1016F800007F0312068878897C017D017BFF7A21AF
:1017080079B57E007F06120688788F7C017D017B83
:10171800FF7A2179BB7E007F0112068878907C01D0
:101728007D017BFF7A2179BC7E007F031206887DCC
:101738005A7F5312229B7DA57F5312229B7D207FC7
:101748003D12229B122297E4FF000000000FEFB425
:10175800DCF7900180E0FD7F2512229B7D3F7F26EC
:1017680012229B7A017981121E8F7B017A01798975
:1017780090017F7406F07F3A121E997B017A0179F5
:101788008F90017F7401F07F39121E997B017A01D5
:10179800798690017F7403F07F3E121E997B017A4F
:0E17A80001799090017F7403F07F3B021E993F
:041E8A004101B90059
:012469002250
:10107200AB07AA06A9059001BAEFF0C39480500409
:10108200E4F080069001BA7480F09001B7E4F0A316
:101092007480F09001BAE07C002400FEEC3AA3F0E8
:1010A200A3CEF09001B7E0FEA3E0FF7003EE64016F
:1010B20060369001BBE0FCA3E0F5828C83E4938F61
:1010C200828E83F09001B9E004F09001B8E004F060
:1010D20070069001B7E004F09001BCE004F070C328
:1010E2009001BBE004F080BBAF039001BAEFF0C304
:1010F2009480500FE02480FEE4339001B7F0A3CE39
:10110200F0800D9001BAE0FF9001B7E4F0A3EFF098
:101112009001B7E0FCA3E0F5828C83E9F0AD038D8A
:10112200A6EAFFF5A775AEFFA2AF9209C2AF75C7D7
:10113200AA75C755439F01A20992AFA2AF9209C2F5
:10114200AF75C7AA75C75543A501A20992AF75AF7E
:1011520022A2AF9209C2AF75C7AA75C75543A401AF
:10116200A20992AF9001BAEDF0C394805004E4F06A
:1011720080069001BA7480F09001B7E4F0A3748005
:10118200F09001BAE0F5A68FA7A2AF9209C2AF759F
:10119200C7AA75C755439F01A20992AFA2AF920990
:1011A200C2AF75C7AA75C75543A501A20992AF750B
:1011B200AF219001B7E0FEA3E0FFF44E602C8F82D6
:1011C2008E83E0F5AEA2AF9209C2AF75C7AA75C70A
:1011D2005543A401A20992AF05A69001B8E004F01C
:1011E20070D09001B7E004F080C8A2AF9209C2AFFC
:1011F20075C7AA75C75553A5FEA20992AFA2AF92B1
:1012020009C2AF75C7AA75C755539FFEA20992AF0F
:0112120022B9
:040003008F828E83D7
:03000700E493FF80
:01000A0022D3
:10149B00EF14605214700302152A14700302155CCA
:1014AB0014700302158E240460030215BEC282D28F
:1014BB0083D284D285D286D287D294D295D296D239
:1014CB0097ED146012146014146016240360030269
:1014DB0015BEA2970215BEA2960215BEA2950215C5
:1014EB00BEA2940215BED282C283D284D285D2868A
:1014FB00D287D294D295D296D297ED146012146003
:10150B0014146016240360030215BEA2970215BEC5
:10151B00A2960215BEA2950215BEA2940215BED2CA
:10152B0082D283C284D285D286D287D294D295D2EC
:10153B0096D297ED14600E14600F14601024037094
:10154B0072A297806EA296806AA2958066A2948002
:10155B0062D282D283D284C285D286D287D294D2EF
:10156B0095D296D297ED14600E14600F1460102470
:10157B00037040A297803CA2968038A2958034A23B
:10158B00948030D282D283D284D285C286D287D243
:10159B0094D295D296D297ED14600E14600F14600E
:1015AB00102403700EA297800AA2968006A2958043
:0515BB0002A2947F0074
:0115C0002208
:07245200E4FDFF12149B22C0
:082373007D01E4FF12149B221E
:08237B007D02E4FF12149B2215
:082383007D03E4FF12149B220C
:08238B00E4FD7F0112149B2206
:082393007D017F0112149B2261
:08239B007D027F0112149B2258
:0823A3007D037F0112149B224F
:0823AB00E4FD7F0212149B22E5
:0823B3007D017F0212149B2240
:0823BB007D027F0212149B2237
:0823C3007D037F0212149B222E
:0823CB00E4FD7F0312149B22C4
:0823D3007D017F0312149B221F
:0823DB007D027F0312149B2216
:0823E3007D037F0312149B220D
:0823EB00E4FD7F0412149B22A3
:0823F3007D017F0412149B22FE
:0823FB007D027F0412149B22F5
:082403007D037F0412149B22EB
:08240B00E4FD7F0512149B2281
:082413007D017F0512149B22DC
:08241B007D027F0512149B22D3
:082423007D037F0512149B22CA
:06245F00120D5B021F9547
:10221F00900116E0240BF582E43401F583EFF09082
:0D222F000116E004F0C3940A4002E4F0221E
:1020AC00900116E0FF900115E0FEB507037F0022BA
:1020BC00740B2EF582E43401F583E0FF900115E0FA
:0920CC0004F0C3940A4002E4F0A0
:0120D50022E8
:1020FF00900116E0FFA3E0FEB507037F0022740BEB
:10210F002EF582E43401F583E0FF900117E004F02F
:07211F00C3940A4002E4F042
:012126002296
:1022BD0075F00BEFA4240BF582E5F03400F583E007
:0222CD00FF22EE
:10200D0075F00BEFA42409F582E5F03400F583ECAF
:10201D00F0A3EDF075F00BEFA4240CF582E5F03490
:10202D0000F583EBF075F00BEFA4240DF582E5F0D0
:07203D003400F583E4F022FA
:09236A00900116E0900115F0222B
:101F950053B1FB53B2FB53B1F753B2F753B1EF5300
:101FA500B2EF53B1DF53B2DF53B1BF53B2BF53B139
:101FB5007F53B27F53B3EF53B4EF53B3DF53B4DF63
:0D1FC50053B3BF53B4BF53B37F53B47F2257
:100D5B00E47E017F08FD7B017A00790312094BE4E5
:100D6B00900115F0A3F0A3F0FF75F00BEFA424098D
:100D7B00F582E5F03400F583E4F0A374C8F075F068
:100D8B000BEFA42406F582E5F03400F5837402F032
:100D9B0075F00BEFA4240BF582E5F03400F583E43A
:100DAB00F075F00BEFA4240CF582E5F03400F5831D
:100DBB00E4F075F00BEFA4240DF582E5F03400F5AB
:100DCB0083E4F00FEFB418A1E4FF0F75F00BA4242C
:100DDB0003F582E5F03400F58374FFF0A37424F07F
:100DEB00A37452F00F75F00B7401A42403F582E584
:100DFB00F03400F58374FFF0A37423F0A37473F045
:100E0B000F75F00B7402A42403F582E5F03400F5A2
:100E1B008374FFF0A37423F0A3747BF00F75F00BB6
:100E2B007403A42403F582E5F03400F58374FFF01A
:100E3B00A37423F0A37483F00F75F00B7404A42434
:100E4B0003F582E5F03400F58374FFF0A37423F00F
:100E5B00A3748BF00F75F00B7405A42403F582E5D6
:100E6B00F03400F58374FFF0A37423F0A37493F0B4
:100E7B000F75F00B7406A42403F582E5F03400F52E
:100E8B008374FFF0A37423F0A3749BF00F75F00B26
:100E9B007407A42403F582E5F03400F58374FFF0A6
:100EAB00A37423F0A374A3F00F75F00B7408A424A0
:100EBB0003F582E5F03400F58374FFF0A37423F09F
:100ECB00A374ABF00F75F00B7409A42403F582E542
:100EDB00F03400F58374FFF0A37423F0A374B3F024
:100EEB000F75F00B740AA42403F582E5F03400F5BA
:100EFB008374FFF0A37423F0A374BBF00F75F00B96
:100F0B00740BA42403F582E5F03400F58374FFF031
:100F1B00A37423F0A374C3F00F75F00B740CA4240B
:100F2B0003F582E5F03400F58374FFF0A37423F02E
:100F3B00A374CBF00F75F00B740DA42403F582E5AD
:100F4B00F03400F58374FFF0A37423F0A374D3F093
:100F5B000F75F00B740EA42403F582E5F03400F545
:100F6B008374FFF0A37423F0A374DBF00F75F00B05
:100F7B00740FA42403F582E5F03400F58374FFF0BD
:100F8B00A37423F0A374E3F00F75F00B7410A42477
:100F9B0003F582E5F03400F58374FFF0A37423F0BE
:100FAB00A374EBF00F75F00B7411A42403F582E519
:100FBB00F03400F58374FFF0A37423F0A374F3F003
:100FCB000F75F00B7412A42403F582E5F03400F5D1
:100FDB008374FFF0A37423F0A374FBF00F75F00B75
:100FEB007413A42403F582E5F03400F58374FFF049
:100FFB00A37424F0A37403F00F75F00B7414A424E2
:10100B0003F582E5F03400F58374FFF0A37424F04C
:10101B00A3740BF00F75F00B7415A42403F582E584
:10102B00F03400F58374FFF0A37424F0A37413F071
:10103B000F75F00B7416A42403F582E5F03400F55C
:10104B008374FFF0A37424F0A3741BF075F00BEF03
:10105B00A42403F582E5F03400F58374FFF0A37448
:06106B0024F0A37423F041
:01107100225C
:101213009001F2EFF0E075F00BA42403F9740035AC
:10122300F0FA7B01900000EBF0A3EAF0A3E9F012DF
:101233000925120945EF7003021305900000E0FB36
:10124300A3E0FAA3E0F99000031206C7FFC39405D5
:1012530050089000037405021369EFC3940A500801
:1012630090000374010206F49000081206C770147C
:10127300900008041207279001F2E075F003A4041C
:10128300FF12221F900000E0FBA3E0FAA3E0F99015
:101293000006120775FFAEF0D39400EE94005003DE
:1012A30002136C900004120775C39FE5F09E502350
:1012B300900004E475F0011207ADFCE5F06F7002D5
:1012C300EC6E600302136C9001F2E075F003A4244A
:1012D30003802B9000091206C7FFD394005003022A
:1012E300136C90000A74011206F4C39F407B9000B4
:1012F3000AE41207279001F2E075F003A404FF0249
:10130300221F900000E0FBA3E0FAA3E0F9900003A2
:101313001206C7FFD39405400A9000037405120711
:1013230027802BEF600A90000374FF1206F4801EDF
:101333009000081206C7B40115900008E4120727AD
:101343009001F2E075F003A42402FF12221F900023
:1013530000E0FBA3E0FAA3E0F9900004E4F5F01247
:0A13630007FA90000AE4120727229F
:10223C00E49001F3F09001F3E0FFC39418500B12FB
:0A224C0012139001F3E004F080EBA0
:012256002265
:101FD20053B1BF53B2BF53B17F53B27F75985043D1
:101FE2008920438780438E1053C4DFAB07AA06A91A
:101FF20005A8047F407E427D0F7C00120863EF0437
:0B200200F404F58DD28ED299D2AC22EE
:101A0F009001C612091953B1BF53B2BF53B17F53DF
:101A1F00B27F75985043878053C4F843C420900118
:101A2F00C6E0F8A3E0F9A3E0FAA3E0FB7F407E4213
:101A3F007D0F7C00120863C374FF9FFF74FF9EFE2F
:101A4F00E49DFDE49CFC78081209068FC69001C640
:101A5F00E0F8A3E0F9A3E0FAA3E0FB7F407E427D2C
:101A6F000F7C00120863C374FF9FFF8FC543C40828
:051A7F00D299D2AC2257
:07242B003098FDAF99C29843
:012432002287
:08243300C2998F993099FD2236
:101AF3009001CA12091953B1FB53B2FB53B3BF533D
:101B0300B4BF75F85075C40853C4DF9001CAE0F838
:101B1300A3E0F9A3E0FAA3E0FB7F407E427D0F7CC4
:101B230000120863C374FF9FFF74FF9EFEE49DFDD4
:101B3300E49CFC78081209068FC69001CAE0F8A35A
:101B4300E0F9A3E0FAA3E0FB7F407E427D0F7C0037
:0E1B5300120863C374FF9FFF8FC543C40822AE
:07243B0030F8FDAF9AC2F872
:012442002277
:08244300C2F98F9A30F9FD2265
:101D36009001CE120919538EF7438901D28CE4FF24
:101D4600FEFDFC9001CEE0F8A3E0F9A3E0FAA3E0E3
:101D5600FBC31208F5602F758A7E758CFF308DFDEA
:101D6600C28D9001CEE0FCA3E0FDA3E0FEA3E0243B
:101D7600FFFFEE34FFFEED34FFFDEC34FFFC900177
:091D8600CE12091980B8C28C22AA
:101D8F009001D2120919538EF7438901D28CE4FFC7
:101D9F00FEFDFC9001D2E0F8A3E0F9A3E0FAA3E086
:101DAF00FBC31208F5602F758ACA758CFA308DFD4A
:101DBF00C28D9001D2E0FCA3E0FDA3E0FEA3E024DE
:101DCF00FFFFEE34FFFEED34FFFDEC34FFFC90011E
:091DDF00D212091980B8C28C224D
:101DE8009001D6120919538EEF438910D28EE4FF61
:101DF800FEFDFC9001D6E0F8A3E0F9A3E0FAA3E029
:101E0800FBC31208F5602F758BEA758DCB308FFDFB
:101E1800C28F9001D6E0FCA3E0FDA3E0FEA3E0247E
:101E2800FFFFEE34FFFEED34FFFDEC34FFFC9001C4
:091E3800D612091980B8C28E22ED
:101C24009001DA12091953C9BF53C9DF43C910D24D
:101C3400CAE4FFFEFDFC9001DAE0F8A3E0F9A3E0BA
:101C4400FAA3E0FBC31208F5602F75CC3075CDF80C
:101C540030CFFDC2CF9001DAE0FCA3E0FDA3E0FEAB
:101C6400A3E024FFFFEE34FFFEED34FFFDEC34FF70
:0C1C7400FC9001DA12091980B8C2CA22E3
:101C80009001DE12091975C40743C408E4FFFEFD84
:101C9000FC9001DEE0F8A3E0F9A3E0FAA3E0FBC3C7
:101CA0001208F5603275C52C75C6CFE5C430E4FB6B
:101CB00053C4EF9001DEE0FCA3E0FDA3E0FEA3E04F
:101CC00024FFFFEE34FFFEED34FFFDEC34FFFC900B
:0B1CD00001DE12091980B553C4F72291
:101CDB009001E212091975C40743C408E4FFFEFD25
:101CEB00FC9001E2E0F8A3E0F9A3E0FAA3E0FBC368
:101CFB001208F5603275C5D875C6FFE5C430E4FB34
:101D0B0053C4EF9001E2E0FCA3E0FDA3E0FEA3E0EF
:101D1B0024FFFFEE34FFFEED34FFFDEC34FFFC90AF
:0B1D2B0001E212091980B553C4F72231
:1015C1000A3D3D3D3D3D3D3D3D3D3D3D3D3D3D3D7D
:1015D1003D3D3D3D3D3D3D3D3D3D3D3D3D3D3D3D3A
:1015E1003D3D3D3D3D3D3D3D3D3D3D3D3D3D3D3D2A
:1015F1003D3D3D3D3D3D3D3D3D3D3D3D3D3D3D3D1A
:101601003D3D3D3D3D000A2A2020436F70797269BE
:101611006768742863292032303135204E75766F22
:10162100746F6E20546563686E6F6C6F67792043C9
:101631006F72702E20416C6C207269676874732020
:1016410072657365727665642E2020000A2A202057
:10165100436F6E7461637420452D4D61696C3A204E
:101661004D6963726F432D38626974406E75766F90
:10167100746F6E2E636F6D2020202020202020208B
:101681002020202020202020202020202020202059
:1016910020000A2A202044656D6F20566572736907
:1016A1006F6E20203A202532642E2532642E253299
:1016B10064000A2A202046696E69736865642044C3
:1016C100617465203A202532642E2532642E25323C
:0216D1006400B3
:101BC5007BFF7A1579C1120A617BFF7A16790712B4
:101BD5000A617BFF7A16794D120A617BFF7A1679C5
:101BE50093900144E4F0A304F0E4A3F0A3F0A3F080
:101BF500A3F0120A617BFF7A1679B390014474074A
:101C0500F0A374DFF0A3E4F0A37405F0A3E4F0A35C
:0F1C1500741FF0120A617BFF7A1579C1020A6110
:0300000002186B78
:10186B00787FE4F6D8FD9000007FFF7E03E4F0A3C1
:0A187B00DFFCDEFA7581210218C0BF
:10188500022044E493A3F8E493A34003F68001F215
:1018950008DFF48029E493A3F85407240CC8C33364
:1018A500C4540F4420C8834004F456800146F6DF33
:1018B500E4800B0102040810204080901E41E47E64
:1018C500019360BCA3FF543F30E509541FFEE49328
:1018D500A360010ECF54C025E060A840B8E493A3EF
:1018E500FAE493A3F8E493A3C8C582C8CAC583CA1A
:1018F500F0A3C8C582C8CAC583CADFE9DEE780BED2
:011E8E000053
:1005B800E709F608DFFA8046E709F208DFFA803E25
:1005C80088828C83E709F0A3DFFA8032E309F60812
:1005D800DFFA8078E309F208DFFA807088828C837A
:1005E800E309F0A3DFFA806489828A83E0A3F6082E
:1005F800DFFA805889828A83E0A3F208DFFA804C08
:1006080080D280FA80C680D4806980F280338010DE
:1006180080A680EA809A80A880DA80E280CA803347
:1006280089828A83ECFAE493A3C8C582C8CCC583BF
:10063800CCF0A3C8C582C8CCC583CCDFE9DEE7808F
:100648000D89828A83E493A3F608DFF9ECFAA9F00E
:10065800EDFB2289828A83ECFAE0A3C8C582C8CC64
:10066800C583CCF0A3C8C582C8CCC583CCDFEADE7D
:10067800E880DB89828A83E493A3F208DFF980CCDF
:1006880088F0EF60010E4E60C388F0ED2402B404D8
:100698000050B9F582EB2402B4040050AF2323457F
:0606A80082239006087396
:1006AE00BB010689828A83E0225002E722BBFE024A
:0906BE00E32289828A83E493227D
:1006C700BB010CE58229F582E5833AF583E02250E8
:1006D70006E92582F8E622BBFE06E92582F8E22232
:0D06E700E58229F582E5833AF583E493224C
:1006F400BB010FF8E58229F582E5833AF583E0280A
:10070400F0225009C58229F8E58226F622BBFE09AB
:10071400C58229F8E22582F222F8EA2583F583E9E5
:03072400932822F5
:10072700F8BB010DE58229F582E5833AF583E8F008
:10073700225006E92582C8F622BBFE05E92582C8B4
:02074700F2229C
:10074900C5F0F8A3E028F0C5F0F8E582158270023B
:060759001583E038F022D8
:10075F00A3F8E0C5F025F0F0E5821582700215834D
:06076F00E0C838F0E822AA
:10077500BB0110E58229F582E5833AF583E0F5F0C2
:10078500A3E0225009E92582F886F008E622BBFE9F
:100795000AE92582F8E2F5F008E222E5832AF583E5
:0807A500E993F5F0A3E99322AA
:1007AD00BB010DC58229C582C5833AC583020749A0
:1007BD005011C58229F808E5F026F618F5F0E58206
:1007CD0036F622BBFE11C58229F808E225F0F5F0B8
:1007DD00F218E23582F222F8E58229F582E5832AC4
:0D07ED00F58374019325F0F5F0E4933822B4
:1007FA00F8BB0111E58229F582E5833AF583E8F031
:10080A00E5F0A3F0225009E92582C8F608A6F022ED
:0D081A00BBFE09E92582C8F2E5F008F222D4
:1008270075F008758200EF2FFFEE33FECD33CDCC88
:1008370033CCC58233C5829BED9AEC99E58298400B
:100847000CF582EE9BFEED9AFDEC99FC0FD5F0D6E8
:10085700E4CEFBE4CDFAE4CCF9A88222B800C1B912
:100867000059BA002DEC8BF084CFCECDFCE5F0CB50
:10087700F97818EF2FFFEE33FEED33FDEC33FCEB89
:1008870033FB10D703994004EB99FB0FD8E5E4F944
:10089700FA227818EF2FFFEE33FEED33FDEC33FC31
:1008A700C933C910D7059BE99A4007EC9BFCE99A25
:1008B700F90FD8E0E4C9FAE4CCFB2275F010EF2F6A
:1008C700FFEE33FEED33FDCC33CCC833C810D7076A
:1008D7009BEC9AE899400AED9BFDEC9AFCE899F8A5
:0E08E7000FD5F0DAE4CDFBE4CCFAE4C8F92238
:1008F500EB9FF5F0EA9E42F0E99D42F0E89C45F059
:0109050022CF
:10090600E8600FECC313FCED13FDEE13FEEF13FFCF
:03091600D8F122F3
:0C091900ECF0A3EDF0A3EEF0A3EFF02251
:10092500BB010789828A830209925005E9F8020909
:1009350089BBFE05E9F80209BB89828A830209C4DD
:060945008A838982E4733D
:1009F600E5082444F582E43401F583E005082290F5
:100A06000141300703900144E475F00112099B028D
:100A160006AE2000E97F2ED2008018EF540F2490F6
:100A2600D43440D4FF30040BEF24BFB41A00500373
:100A36002461FFE50960021509050CE50C70020545
:100A46000B30070E900141E475F00112099BEF028D
:100A5600097702214E7403D2078003E4C207F50822
:100A66009001411209B2E4F509F50BF50CE50960B0
:100A7600077F20120A3980F5750AFFC201C200C23B
:100A860002C203C205C206C208120A05FF700D3073
:100A960007057F00120A4AAF0CAE0B22B4255FC2CF
:100AA600D5C204120A05FF24D0B40A00501A75F004
:100AB6000A780930D50508B6FF0106C6A426F62031
:100AC600D5047002D20380D924CFB41A00EF5004A3
:100AD600C2E5D204020C4BD20180C6D20080C0D23D
:100AE6000280BCD2D580BAD20580B47F20120A39E2
:100AF6002002077401B5090040F11209F6FF120A37
:100B060039020A73D208D20680951209F6FB120939
:100B1600F6FA1209F6F94A4B7006791C7A0D7BFF34
:100B260020022EE509602A7E008E82758300120659
:100B3600C760060EEE650A70F0C2D5EBC0E0EAC0EB
:100B4600E0E9C0E0EE120C92D0E0F9D0E0FAD0E095
:100B5600FB1206AEFF60AAEBC0E0EAC0E0E9C0E027
:100B6600120A39D0E02401F9D0E03400FAD0E0FBD3
:100B7600E50A0460DCD50AD980877BFF7A0C798E7A
:100B8600D202809C791080027908C206C2088008C9
:100B9600D2D5790A8004790AC2D5E50A047002F52D
:100BA6000AE4FAFDFEFF1209F6FC7B082001131287
:100BB60009F6FD7B1030000A1209F6FE1209F6FF4F
:100BC6007B20EC3382D592D55013C3E43000069FC8
:100BD600FFE49EFEE42001039DFDE49CFCE4CBF8CB
:100BE600C201EC700CCFCECDCCE824F8F870F380BF
:100BF60017C3EF33FFEE33FEED33FDEC33FCEB337F
:100C0600FB994002FB0FD8E9EB300105F8D0E0C4B0
:100C160048B201C0E00AEC4D4E4F78207B0070C20E
:100C2600EAB50A0040BCC0E0120C94D0F0D0E02037
:100C36000104C4C0E0C4B201C0F0120A22D0F0D54B
:100C4600F0EB020A731209D00B10530B8A580AE113
:100C56004C0ADD420B8E4F0B96440B96490AF6431F
:080C66000B9C550B80460B802E
:100C6E00450B80470D3C500AE52D0AE92E0B0C2B47
:100C7E000AED230B0A200D252A0AA54800000B04B5
:100C8E003F3F3F00790AA2D5200314300509B91061
:100C9E00020404B9080104A2D52006025001042062
:100CAE0002689202B509005034C0E07F203003196B
:100CBE007F30A20272067205500F120CEBC202C2F6
:100CCE0006C205C2087F30800F300503E9C0E0126E
:100CDE000A39300503D0E0F9D0E0B509CC3005175C
:100CEE007F30B9100C120A397F583004077F788094
:100CFE0003B90803120A393002057F2D020A397F23
:100D0E00202008F87F2B2006F322920280CF286E37
:100D1E00756C6C2900D2011209F63001F8C2017807
:100D2E000930D50108F6020AA52D5043495812097B
:100D3E00F62403B405004001E4900D3793120A2AFD
:0D0D4E00743A120A2AD203750904020B8AB6
:10094B00EF4E6012EF60010EEDBB010B89828A83C3
:10095B00F0A3DFFCDEFA2289F05007F709DFFCA9D0
:0C096B00F022BBFEFCF309DFFCA9F02227
:10097700BB010689828A83F0225002F722BBFE015F
:02098700F32259
:09098900E6FB08E6FA08E6F92293
:09099200E0FBA3E0FAA3E0F92266
:10099B00F8E0FBA3A3E0F925F0F0E58215827002E5
:0709AB001583E0FA38F02289
:0909B200EBF0A3EAF0A3E9F02246
:0909BB00E2FB08E2FA08E2F9226D
:0C09C400E493FB740193FA740293F9228F
:1009D000D083D082F8E4937012740193700DA3A3B6
:1009E00093F8740193F5828883E4737402936860CA
:0609F000EFA3A3A380DFCA
:10214E00EFB40A07740D122159740A309811A89928
:10215E00B8130CC2983098FDA899C298B811F630F1
:07216E0099FDC299F59922C9
:00000001FF
